{
  "_format": "hh-sol-artifact-1",
  "contractName": "BuyoutModule",
  "sourceName": "contracts/modules/implementations/BuyoutModule.sol",
  "abi": [
    {
      "inputs": [
        {
          "internalType": "address",
          "name": "walletTemplate",
          "type": "address"
        }
      ],
      "stateMutability": "nonpayable",
      "type": "constructor"
    },
    {
      "anonymous": false,
      "inputs": [
        {
          "indexed": true,
          "internalType": "contract ShardedWallet",
          "name": "wallet",
          "type": "address"
        },
        {
          "indexed": false,
          "internalType": "address",
          "name": "user",
          "type": "address"
        }
      ],
      "name": "BuyoutClaimed",
      "type": "event"
    },
    {
      "anonymous": false,
      "inputs": [
        {
          "indexed": true,
          "internalType": "contract ShardedWallet",
          "name": "wallet",
          "type": "address"
        },
        {
          "indexed": false,
          "internalType": "address",
          "name": "closer",
          "type": "address"
        }
      ],
      "name": "BuyoutClosed",
      "type": "event"
    },
    {
      "anonymous": false,
      "inputs": [
        {
          "indexed": true,
          "internalType": "contract ShardedWallet",
          "name": "wallet",
          "type": "address"
        }
      ],
      "name": "BuyoutFinalized",
      "type": "event"
    },
    {
      "anonymous": false,
      "inputs": [
        {
          "indexed": true,
          "internalType": "contract ShardedWallet",
          "name": "wallet",
          "type": "address"
        },
        {
          "indexed": false,
          "internalType": "address",
          "name": "proposer",
          "type": "address"
        },
        {
          "indexed": false,
          "internalType": "uint256",
          "name": "pricePerShard",
          "type": "uint256"
        }
      ],
      "name": "BuyoutOpened",
      "type": "event"
    },
    {
      "anonymous": false,
      "inputs": [
        {
          "indexed": true,
          "internalType": "bytes32",
          "name": "timer",
          "type": "bytes32"
        }
      ],
      "name": "TimerReset",
      "type": "event"
    },
    {
      "anonymous": false,
      "inputs": [
        {
          "indexed": true,
          "internalType": "bytes32",
          "name": "timer",
          "type": "bytes32"
        },
        {
          "indexed": false,
          "internalType": "uint256",
          "name": "deadline",
          "type": "uint256"
        }
      ],
      "name": "TimerStarted",
      "type": "event"
    },
    {
      "anonymous": false,
      "inputs": [
        {
          "indexed": true,
          "internalType": "bytes32",
          "name": "timer",
          "type": "bytes32"
        }
      ],
      "name": "TimerStopped",
      "type": "event"
    },
    {
      "inputs": [],
      "name": "BUYOUT_AUTH_RATIO",
      "outputs": [
        {
          "internalType": "bytes32",
          "name": "",
          "type": "bytes32"
        }
      ],
      "stateMutability": "view",
      "type": "function"
    },
    {
      "inputs": [],
      "name": "BUYOUT_DURATION",
      "outputs": [
        {
          "internalType": "bytes32",
          "name": "",
          "type": "bytes32"
        }
      ],
      "stateMutability": "view",
      "type": "function"
    },
    {
      "inputs": [
        {
          "internalType": "contract ShardedWallet",
          "name": "",
          "type": "address"
        }
      ],
      "name": "_deposit",
      "outputs": [
        {
          "internalType": "uint256",
          "name": "",
          "type": "uint256"
        }
      ],
      "stateMutability": "view",
      "type": "function"
    },
    {
      "inputs": [
        {
          "internalType": "contract ShardedWallet",
          "name": "wallet",
          "type": "address"
        }
      ],
      "name": "claimBuyout",
      "outputs": [],
      "stateMutability": "nonpayable",
      "type": "function"
    },
    {
      "inputs": [
        {
          "internalType": "contract ShardedWallet",
          "name": "wallet",
          "type": "address"
        }
      ],
      "name": "claimBuyoutBackup",
      "outputs": [],
      "stateMutability": "nonpayable",
      "type": "function"
    },
    {
      "inputs": [
        {
          "internalType": "contract ShardedWallet",
          "name": "wallet",
          "type": "address"
        }
      ],
      "name": "closeBuyout",
      "outputs": [],
      "stateMutability": "payable",
      "type": "function"
    },
    {
      "inputs": [
        {
          "internalType": "contract ShardedWallet",
          "name": "wallet",
          "type": "address"
        }
      ],
      "name": "finalizeBuyout",
      "outputs": [],
      "stateMutability": "nonpayable",
      "type": "function"
    },
    {
      "inputs": [],
      "name": "name",
      "outputs": [
        {
          "internalType": "string",
          "name": "",
          "type": "string"
        }
      ],
      "stateMutability": "view",
      "type": "function"
    },
    {
      "inputs": [
        {
          "internalType": "contract ShardedWallet",
          "name": "wallet",
          "type": "address"
        },
        {
          "internalType": "uint256",
          "name": "pricePerShard",
          "type": "uint256"
        }
      ],
      "name": "openBuyout",
      "outputs": [],
      "stateMutability": "payable",
      "type": "function"
    },
    {
      "inputs": [],
      "name": "walletTemplate",
      "outputs": [
        {
          "internalType": "address",
          "name": "",
          "type": "address"
        }
      ],
      "stateMutability": "view",
      "type": "function"
    }
  ],
  "bytecode": "0x60a060405234801561001057600080fd5b506040516116a83803806116a883398101604081905261002f91610044565b60601b6001600160601b031916608052610072565b600060208284031215610055578081fd5b81516001600160a01b038116811461006b578182fd5b9392505050565b60805160601c6116116100976000396000818161025301526106fd01526116116000f3fe6080604052600436106100b15760003560e01c806398c93a3111610069578063b9973f5b1161004e578063b9973f5b1461018f578063e60c6717146101a2578063fd8f5335146101c2576100b1565b806398c93a311461015a578063afc104241461016f576100b1565b80635415aaf21161009a5780635415aaf2146101035780635997b63e14610123578063680f1daf14610145576100b1565b806306fdde03146100b6578063502dbfb5146100e1575b600080fd5b3480156100c257600080fd5b506100cb6101e2565b6040516100d891906113b3565b60405180910390f35b3480156100ed57600080fd5b506100f661021b565b6040516100d891906113aa565b34801561010f57600080fd5b506100f661011e3660046112f7565b61023f565b34801561012f57600080fd5b50610138610251565b6040516100d89190611359565b6101586101533660046112f7565b610275565b005b34801561016657600080fd5b506100f661058b565b34801561017b57600080fd5b5061015861018a3660046112f7565b6105af565b61015861019d366004611313565b6106f7565b3480156101ae57600080fd5b506101586101bd3660046112f7565b610d5f565b3480156101ce57600080fd5b506101586101dd3660046112f7565b610f0a565b60405180604001604052600c8152806020017f4275796f75744d6f64756c65000000000000000000000000000000000000000081525081565b7f2b0302f2fecc31c4abdae5dbfeb4ffb88f5e75f2102ec01dda9073a9330d6b1c81565b60036020526000908152604090205481565b7f000000000000000000000000000000000000000000000000000000000000000081565b6001600160a01b03811661028881611031565b6102ad5760405162461bcd60e51b81526004016102a4906114d1565b60405180910390fd5b6001600160a01b0382166000818152600260205260408082205490516370a0823160e01b81529092906370a08231906102ea903090600401611359565b60206040518083038186803b15801561030257600080fd5b505afa158015610316573d6000803e3d6000fd5b505050506040513d601f19601f8201168201806040525081019061033a919061133e565b90506000821561036f5761036a828461035b34670de0b6b3a7640000611577565b6103659190611557565b611055565b610371565b815b90506000670de0b6b3a76400006103888584611577565b6103929190611557565b6001600160a01b0387166000908152600360205260408120805492935083929091906103bf90849061153f565b90915550506040517fa9059cbb0000000000000000000000000000000000000000000000000000000081526001600160a01b0387169063a9059cbb9061040b9033908690600401611391565b602060405180830381600087803b15801561042557600080fd5b505af1158015610439573d6000803e3d6000fd5b505050506040513d601f19601f8201168201806040525081019061045d91906112bb565b5082821415610570576104786001600160a01b03871661106b565b856001600160a01b031663715018a66040518163ffffffff1660e01b8152600401600060405180830381600087803b1580156104b357600080fd5b505af11580156104c7573d6000803e3d6000fd5b5050506001600160a01b03808816600090815260016020908152604080832080546003808552838620805473ffffffffffffffffffffffffffffffffffffffff19841690945560028652938620869055909352929055909116915061052c82826110cd565b876001600160a01b03167f12da849b7d2630867efa50350c94133bb77ce15a9bec06457c950ff429f41391336040516105659190611359565b60405180910390a250505b6105833361057e8334611596565b6110cd565b505050505050565b7ffe28b1c1d768c9fc13cde756c61b63ec3a40333a8bb3cd2e556327781fbea03c81565b6001600160a01b0381166105c28161116e565b6105de5760405162461bcd60e51b81526004016102a490611406565b6001600160a01b038281166000908152600160205260409020541661060257600080fd5b6001600160a01b03808316600081815260016020526040908190205490517ff2fde38b000000000000000000000000000000000000000000000000000000008152919263f2fde38b9261065b9290911690600401611359565b600060405180830381600087803b15801561067557600080fd5b505af1158015610689573d6000803e3d6000fd5b505050506001600160a01b0382166000818152600160209081526040808320805473ffffffffffffffffffffffffffffffffffffffff191690556003909152808220829055517f789087f2b6478ee3ec4c1799208889b535fff75563829bfc140a2ae81814e5239190a25050565b816107227f000000000000000000000000000000000000000000000000000000000000000082611190565b61072b57600080fd5b82336108d5670de0b6b3a7640000836001600160a01b0316635aa6e6756040518163ffffffff1660e01b815260040160206040518083038186803b15801561077257600080fd5b505afa158015610786573d6000803e3d6000fd5b505050506040513d601f19601f820116820180604052508101906107aa91906112db565b604051627ebcdb60e21b81526001600160a01b0391909116906301faf36c906107f99087907ffe28b1c1d768c9fc13cde756c61b63ec3a40333a8bb3cd2e556327781fbea03c90600401611391565b60206040518083038186803b15801561081157600080fd5b505afa158015610825573d6000803e3d6000fd5b505050506040513d601f19601f82011682018060405250810190610849919061133e565b846001600160a01b03166318160ddd6040518163ffffffff1660e01b815260040160206040518083038186803b15801561088257600080fd5b505afa158015610896573d6000803e3d6000fd5b505050506040513d601f19601f820116820180604052508101906108ba919061133e565b6108c49190611577565b6108ce9190611557565b6001611212565b6040516370a0823160e01b81526001600160a01b038416906370a0823190610901908590600401611359565b60206040518083038186803b15801561091957600080fd5b505afa15801561092d573d6000803e3d6000fd5b505050506040513d601f19601f82011682018060405250810190610951919061133e565b101561095c57600080fd5b6001600160a01b03851661096f81611222565b61098b5760405162461bcd60e51b81526004016102a490611508565b6040516370a0823160e01b81526000906001600160a01b038816906370a08231906109ba903390600401611359565b60206040518083038186803b1580156109d257600080fd5b505afa1580156109e6573d6000803e3d6000fd5b505050506040513d601f19601f82011682018060405250810190610a0a919061133e565b90506000670de0b6b3a764000087838a6001600160a01b03166318160ddd6040518163ffffffff1660e01b815260040160206040518083038186803b158015610a5257600080fd5b505afa158015610a66573d6000803e3d6000fd5b505050506040513d601f19601f82011682018060405250810190610a8a919061133e565b610a949190611596565b610a9e9190611577565b610aa89190611557565b9050610bcf886001600160a01b031660001b896001600160a01b0316635aa6e6756040518163ffffffff1660e01b815260040160206040518083038186803b158015610af357600080fd5b505afa158015610b07573d6000803e3d6000fd5b505050506040513d601f19601f82011682018060405250810190610b2b91906112db565b604051627ebcdb60e21b81526001600160a01b0391909116906301faf36c90610b7a908d907f2b0302f2fecc31c4abdae5dbfeb4ffb88f5e75f2102ec01dda9073a9330d6b1c90600401611391565b60206040518083038186803b158015610b9257600080fd5b505afa158015610ba6573d6000803e3d6000fd5b505050506040513d601f19601f82011682018060405250810190610bca919061133e565b611235565b6001600160a01b0388166000818152600160209081526040808320805473ffffffffffffffffffffffffffffffffffffffff191633179055600282528083208b9055600390915290819020839055517f36afba800000000000000000000000000000000000000000000000000000000081526336afba8090610c55903090600401611359565b600060405180830381600087803b158015610c6f57600080fd5b505af1158015610c83573d6000803e3d6000fd5b50506040517f9eb996d40000000000000000000000000000000000000000000000000000000081526001600160a01b038b169250639eb996d49150610cd09033903090879060040161136d565b600060405180830381600087803b158015610cea57600080fd5b505af1158015610cfe573d6000803e3d6000fd5b50505050610d1233823461057e9190611596565b876001600160a01b03167f6eb152f99feb8dc81be9a042ae2ed64f7d8f21c4e872f85b786953d486b196943389604051610d4d929190611391565b60405180910390a25050505050505050565b6001600160a01b038116610d728161116e565b610d8e5760405162461bcd60e51b81526004016102a490611406565b6001600160a01b0382166000818152600260205260408082205490516370a0823160e01b81529092906370a0823190610dcb903390600401611359565b60206040518083038186803b158015610de357600080fd5b505afa158015610df7573d6000803e3d6000fd5b505050506040513d601f19601f82011682018060405250810190610e1b919061133e565b90506000670de0b6b3a7640000610e328484611577565b610e3c9190611557565b6040517f91b98e0e0000000000000000000000000000000000000000000000000000000081529091506001600160a01b038616906391b98e0e90610e869033908690600401611391565b600060405180830381600087803b158015610ea057600080fd5b505af1158015610eb4573d6000803e3d6000fd5b50505050610ec233826110cd565b846001600160a01b03167fc1c88b4418b40de5e5e5f41b05f709ec16fa498fa420fb846c0681726e88510333604051610efb9190611359565b60405180910390a25050505050565b6001600160a01b038116610f1d8161116e565b610f395760405162461bcd60e51b81526004016102a490611406565b6001600160a01b0382166000818152600260205260408082205490516370a0823160e01b81529092906370a0823190610f76903390600401611359565b60206040518083038186803b158015610f8e57600080fd5b505afa158015610fa2573d6000803e3d6000fd5b505050506040513d601f19601f82011682018060405250810190610fc6919061133e565b90506000670de0b6b3a7640000610fdd8484611577565b610fe79190611557565b6040517f79cc67900000000000000000000000000000000000000000000000000000000081529091506001600160a01b038616906379cc679090610e869033908690600401611391565b600081815260208190526040812054801580159061104e57504281115b9392505050565b6000818310611064578161104e565b5090919050565b8061107581611031565b6110915760405162461bcd60e51b81526004016102a4906114d1565b6000828152602081905260408082208290555183917f7d49dc7c9889c3bb21eca272a365f92ba7e27303e14fa6c733911004210aa30e91a25050565b804710156110ed5760405162461bcd60e51b81526004016102a49061149a565b6000826001600160a01b03168260405161110690611356565b60006040518083038185875af1925050503d8060008114611143576040519150601f19603f3d011682016040523d82523d6000602084013e611148565b606091505b50509050806111695760405162461bcd60e51b81526004016102a49061143d565b505050565b600081815260208190526040812054801580159061104e575042101592915050565b6000808360601b90506040517f363d3d373d3d3d363d7300000000000000000000000000000000000000000000815281600a8201527f5af43d82803e903d91602b57fd5bf30000000000000000000000000000000000601e82015260408101602d600082873c600d810151600d83015114815183511416935050505092915050565b600081831015611064578161104e565b6000908152602081905260409020541590565b8161123f81611222565b61125b5760405162461bcd60e51b81526004016102a490611508565b6000611267834261153f565b600085815260208190526040908190208290555190915084907f605574b2967b0bcc75b287d9a63f28d379642ae66f3e2ed42e1679cd992915f5906112ad9084906113aa565b60405180910390a250505050565b6000602082840312156112cc578081fd5b8151801515811461104e578182fd5b6000602082840312156112ec578081fd5b815161104e816115c3565b600060208284031215611308578081fd5b813561104e816115c3565b60008060408385031215611325578081fd5b8235611330816115c3565b946020939093013593505050565b60006020828403121561134f578081fd5b5051919050565b90565b6001600160a01b0391909116815260200190565b6001600160a01b039384168152919092166020820152604081019190915260600190565b6001600160a01b03929092168252602082015260400190565b90815260200190565b6000602080835283518082850152825b818110156113df578581018301518582016040015282016113c3565b818111156113f05783604083870101525b50601f01601f1916929092016040019392505050565b6020808252601a908201527f5769746854696d6572733a206f6e6c79416674657254696d6572000000000000604082015260600190565b6020808252603a908201527f416464726573733a20756e61626c6520746f2073656e642076616c75652c207260408201527f6563697069656e74206d61792068617665207265766572746564000000000000606082015260800190565b6020808252601d908201527f416464726573733a20696e73756666696369656e742062616c616e6365000000604082015260600190565b6020808252601b908201527f5769746854696d6572733a206f6e6c79447572696e6754696d65720000000000604082015260600190565b6020808252601b908201527f5769746854696d6572733a206f6e6c794265666f726554696d65720000000000604082015260600190565b60008219821115611552576115526115ad565b500190565b60008261157257634e487b7160e01b81526012600452602481fd5b500490565b6000816000190483118215151615611591576115916115ad565b500290565b6000828210156115a8576115a86115ad565b500390565b634e487b7160e01b600052601160045260246000fd5b6001600160a01b03811681146115d857600080fd5b5056fea264697066735822122088bf9a873888fa2e13c588ebc053ad6365948fdbe0ba502b50a4d47a1db2a71564736f6c63430008010033",
  "linkReferences": {},
  "deployedLinkReferences": {}
}