{
  "_format": "hh-sol-artifact-1",
  "contractName": "ERC20ManagerModule",
  "sourceName": "contracts/modules/implementations/ERC20ManagerModule.sol",
  "abi": [
    {
      "inputs": [
        {
          "internalType": "address",
          "name": "walletTemplate",
          "type": "address"
        }
      ],
      "stateMutability": "nonpayable",
      "type": "constructor"
    },
    {
      "inputs": [
        {
          "internalType": "address",
          "name": "account",
          "type": "address"
        },
        {
          "internalType": "uint256",
          "name": "amount",
          "type": "uint256"
        }
      ],
      "name": "burn",
      "outputs": [],
      "stateMutability": "nonpayable",
      "type": "function"
    },
    {
      "inputs": [
        {
          "internalType": "address",
          "name": "account",
          "type": "address"
        },
        {
          "internalType": "uint256",
          "name": "amount",
          "type": "uint256"
        }
      ],
      "name": "mint",
      "outputs": [],
      "stateMutability": "nonpayable",
      "type": "function"
    },
    {
      "inputs": [],
      "name": "name",
      "outputs": [
        {
          "internalType": "string",
          "name": "",
          "type": "string"
        }
      ],
      "stateMutability": "view",
      "type": "function"
    },
    {
      "inputs": [
        {
          "internalType": "address",
          "name": "from",
          "type": "address"
        },
        {
          "internalType": "address",
          "name": "to",
          "type": "address"
        },
        {
          "internalType": "uint256",
          "name": "amount",
          "type": "uint256"
        }
      ],
      "name": "transfer",
      "outputs": [],
      "stateMutability": "nonpayable",
      "type": "function"
    },
    {
      "inputs": [],
      "name": "walletTemplate",
      "outputs": [
        {
          "internalType": "address",
          "name": "",
          "type": "address"
        }
      ],
      "stateMutability": "view",
      "type": "function"
    }
  ],
  "bytecode": "0x60a060405234801561001057600080fd5b5060405161047e38038061047e83398101604081905261002f91610044565b60601b6001600160601b031916608052610072565b600060208284031215610055578081fd5b81516001600160a01b038116811461006b578182fd5b9392505050565b60805160601c6103ee610090600039600061018901526103ee6000f3fe608060405234801561001057600080fd5b50600436106100675760003560e01c80635997b63e116100505780635997b63e1461009f5780639dc29fac146100b4578063beabacc8146100c757610067565b806306fdde031461006c57806340c10f191461008a575b600080fd5b6100746100da565b6040516100819190610365565b60405180910390f35b61009d6100983660046102c4565b610113565b005b6100a7610187565b60405161008191906102ed565b61009d6100c23660046102c4565b6101ab565b61009d6100d5366004610289565b6101e9565b6040518060400160405260128152806020017f45524332304d616e616765724d6f64756c65000000000000000000000000000081525081565b6040517f4e26463f0000000000000000000000000000000000000000000000000000000081523390634e26463f90610151908590859060040161033f565b600060405180830381600087803b15801561016b57600080fd5b505af115801561017f573d6000803e3d6000fd5b505050505050565b7f000000000000000000000000000000000000000000000000000000000000000081565b6040517f91b98e0e00000000000000000000000000000000000000000000000000000000815233906391b98e0e90610151908590859060040161033f565b6040517f9eb996d40000000000000000000000000000000000000000000000000000000081523390639eb996d4906102299086908690869060040161030e565b600060405180830381600087803b15801561024357600080fd5b505af1158015610257573d6000803e3d6000fd5b50505050505050565b803573ffffffffffffffffffffffffffffffffffffffff8116811461028457600080fd5b919050565b60008060006060848603121561029d578283fd5b6102a684610260565b92506102b460208501610260565b9150604084013590509250925092565b600080604083850312156102d6578081fd5b6102df83610260565b946020939093013593505050565b73ffffffffffffffffffffffffffffffffffffffff91909116815260200190565b73ffffffffffffffffffffffffffffffffffffffff9384168152919092166020820152604081019190915260600190565b73ffffffffffffffffffffffffffffffffffffffff929092168252602082015260400190565b6000602080835283518082850152825b8181101561039157858101830151858201604001528201610375565b818111156103a25783604083870101525b50601f01601f191692909201604001939250505056fea2646970667358221220ea6595b3387a141917ce2516d232c6e97b341398dec84571a814fc598455892164736f6c63430008010033",
  "linkReferences": {},
  "deployedLinkReferences": {}
}