{
  "_format": "hh-sol-artifact-1",
  "contractName": "BondingCurve2",
  "sourceName": "contracts/initializable/old/BondingCurve2.sol",
  "abi": [
    {
      "anonymous": false,
      "inputs": [
        {
          "indexed": true,
          "internalType": "address",
          "name": "provider",
          "type": "address"
        },
        {
          "indexed": false,
          "internalType": "uint256",
          "name": "amount",
          "type": "uint256"
        }
      ],
      "name": "EtherSupplied",
      "type": "event"
    },
    {
      "anonymous": false,
      "inputs": [
        {
          "indexed": true,
          "internalType": "address",
          "name": "provider",
          "type": "address"
        },
        {
          "indexed": false,
          "internalType": "uint256",
          "name": "value",
          "type": "uint256"
        },
        {
          "indexed": false,
          "internalType": "uint256",
          "name": "payout",
          "type": "uint256"
        }
      ],
      "name": "EtherWithdrawn",
      "type": "event"
    },
    {
      "anonymous": false,
      "inputs": [
        {
          "indexed": false,
          "internalType": "address",
          "name": "wallet",
          "type": "address"
        }
      ],
      "name": "Initialized",
      "type": "event"
    },
    {
      "anonymous": false,
      "inputs": [
        {
          "indexed": true,
          "internalType": "address",
          "name": "account",
          "type": "address"
        },
        {
          "indexed": false,
          "internalType": "uint256",
          "name": "amount",
          "type": "uint256"
        },
        {
          "indexed": false,
          "internalType": "uint256",
          "name": "cost",
          "type": "uint256"
        }
      ],
      "name": "ShardsBought",
      "type": "event"
    },
    {
      "anonymous": false,
      "inputs": [
        {
          "indexed": true,
          "internalType": "address",
          "name": "account",
          "type": "address"
        },
        {
          "indexed": false,
          "internalType": "uint256",
          "name": "amount",
          "type": "uint256"
        },
        {
          "indexed": false,
          "internalType": "uint256",
          "name": "payout",
          "type": "uint256"
        }
      ],
      "name": "ShardsSold",
      "type": "event"
    },
    {
      "anonymous": false,
      "inputs": [
        {
          "indexed": true,
          "internalType": "address",
          "name": "provider",
          "type": "address"
        },
        {
          "indexed": false,
          "internalType": "uint256",
          "name": "amount",
          "type": "uint256"
        }
      ],
      "name": "ShardsSupplied",
      "type": "event"
    },
    {
      "anonymous": false,
      "inputs": [
        {
          "indexed": true,
          "internalType": "address",
          "name": "provider",
          "type": "address"
        },
        {
          "indexed": false,
          "internalType": "uint256",
          "name": "payout",
          "type": "uint256"
        },
        {
          "indexed": false,
          "internalType": "uint256",
          "name": "shards",
          "type": "uint256"
        }
      ],
      "name": "ShardsWithdrawn",
      "type": "event"
    },
    {
      "anonymous": false,
      "inputs": [
        {
          "indexed": true,
          "internalType": "address",
          "name": "sender",
          "type": "address"
        },
        {
          "indexed": true,
          "internalType": "address",
          "name": "recipient",
          "type": "address"
        },
        {
          "indexed": false,
          "internalType": "uint256",
          "name": "amount",
          "type": "uint256"
        }
      ],
      "name": "TransferEthLPTokens",
      "type": "event"
    },
    {
      "anonymous": false,
      "inputs": [
        {
          "indexed": true,
          "internalType": "address",
          "name": "sender",
          "type": "address"
        },
        {
          "indexed": true,
          "internalType": "address",
          "name": "recipient",
          "type": "address"
        },
        {
          "indexed": false,
          "internalType": "uint256",
          "name": "amount",
          "type": "uint256"
        }
      ],
      "name": "TransferShardLPTokens",
      "type": "event"
    },
    {
      "inputs": [],
      "name": "LIQUIDITY_TIMELOCK",
      "outputs": [
        {
          "internalType": "bytes32",
          "name": "",
          "type": "bytes32"
        }
      ],
      "stateMutability": "view",
      "type": "function"
    },
    {
      "inputs": [],
      "name": "PCT_FEE_ARTIST",
      "outputs": [
        {
          "internalType": "bytes32",
          "name": "",
          "type": "bytes32"
        }
      ],
      "stateMutability": "view",
      "type": "function"
    },
    {
      "inputs": [],
      "name": "PCT_FEE_NIFTEX",
      "outputs": [
        {
          "internalType": "bytes32",
          "name": "",
          "type": "bytes32"
        }
      ],
      "stateMutability": "view",
      "type": "function"
    },
    {
      "inputs": [],
      "name": "PCT_FEE_SUPPLIERS",
      "outputs": [
        {
          "internalType": "bytes32",
          "name": "",
          "type": "bytes32"
        }
      ],
      "stateMutability": "view",
      "type": "function"
    },
    {
      "inputs": [
        {
          "internalType": "uint256",
          "name": "amount",
          "type": "uint256"
        },
        {
          "internalType": "uint256",
          "name": "maxCost",
          "type": "uint256"
        }
      ],
      "name": "buyShards",
      "outputs": [],
      "stateMutability": "payable",
      "type": "function"
    },
    {
      "inputs": [],
      "name": "calcEthForShardSuppliers",
      "outputs": [
        {
          "internalType": "uint256",
          "name": "",
          "type": "uint256"
        }
      ],
      "stateMutability": "view",
      "type": "function"
    },
    {
      "inputs": [
        {
          "internalType": "uint256",
          "name": "amount",
          "type": "uint256"
        }
      ],
      "name": "calcNewEthLPTokensToIssue",
      "outputs": [
        {
          "internalType": "uint256",
          "name": "",
          "type": "uint256"
        }
      ],
      "stateMutability": "view",
      "type": "function"
    },
    {
      "inputs": [
        {
          "internalType": "uint256",
          "name": "amount",
          "type": "uint256"
        }
      ],
      "name": "calcNewShardLPTokensToIssue",
      "outputs": [
        {
          "internalType": "uint256",
          "name": "",
          "type": "uint256"
        }
      ],
      "stateMutability": "view",
      "type": "function"
    },
    {
      "inputs": [],
      "name": "calcShardsForEthSuppliers",
      "outputs": [
        {
          "internalType": "uint256",
          "name": "",
          "type": "uint256"
        }
      ],
      "stateMutability": "view",
      "type": "function"
    },
    {
      "inputs": [],
      "name": "decimals",
      "outputs": [
        {
          "internalType": "uint256",
          "name": "",
          "type": "uint256"
        }
      ],
      "stateMutability": "view",
      "type": "function"
    },
    {
      "inputs": [],
      "name": "getCurrentPrice",
      "outputs": [
        {
          "internalType": "uint256",
          "name": "",
          "type": "uint256"
        }
      ],
      "stateMutability": "view",
      "type": "function"
    },
    {
      "inputs": [],
      "name": "getCurveCoordinates",
      "outputs": [
        {
          "internalType": "uint256",
          "name": "",
          "type": "uint256"
        },
        {
          "internalType": "uint256",
          "name": "",
          "type": "uint256"
        }
      ],
      "stateMutability": "view",
      "type": "function"
    },
    {
      "inputs": [
        {
          "internalType": "address",
          "name": "owner",
          "type": "address"
        }
      ],
      "name": "getEthLPTokens",
      "outputs": [
        {
          "internalType": "uint256",
          "name": "",
          "type": "uint256"
        }
      ],
      "stateMutability": "view",
      "type": "function"
    },
    {
      "inputs": [],
      "name": "getEthSuppliers",
      "outputs": [
        {
          "internalType": "uint256",
          "name": "",
          "type": "uint256"
        },
        {
          "internalType": "uint256",
          "name": "",
          "type": "uint256"
        },
        {
          "internalType": "uint256",
          "name": "",
          "type": "uint256"
        },
        {
          "internalType": "uint256",
          "name": "",
          "type": "uint256"
        }
      ],
      "stateMutability": "view",
      "type": "function"
    },
    {
      "inputs": [
        {
          "internalType": "address",
          "name": "owner",
          "type": "address"
        }
      ],
      "name": "getShardLPTokens",
      "outputs": [
        {
          "internalType": "uint256",
          "name": "",
          "type": "uint256"
        }
      ],
      "stateMutability": "view",
      "type": "function"
    },
    {
      "inputs": [],
      "name": "getShardSuppliers",
      "outputs": [
        {
          "internalType": "uint256",
          "name": "",
          "type": "uint256"
        },
        {
          "internalType": "uint256",
          "name": "",
          "type": "uint256"
        },
        {
          "internalType": "uint256",
          "name": "",
          "type": "uint256"
        },
        {
          "internalType": "uint256",
          "name": "",
          "type": "uint256"
        }
      ],
      "stateMutability": "view",
      "type": "function"
    },
    {
      "inputs": [
        {
          "internalType": "uint256",
          "name": "supply",
          "type": "uint256"
        },
        {
          "internalType": "address",
          "name": "wallet",
          "type": "address"
        },
        {
          "internalType": "address",
          "name": "recipient",
          "type": "address"
        },
        {
          "internalType": "uint256",
          "name": "price",
          "type": "uint256"
        }
      ],
      "name": "initialize",
      "outputs": [],
      "stateMutability": "payable",
      "type": "function"
    },
    {
      "inputs": [
        {
          "internalType": "address",
          "name": "owner",
          "type": "address"
        },
        {
          "internalType": "uint256",
          "name": "amount",
          "type": "uint256"
        },
        {
          "internalType": "bytes",
          "name": "data",
          "type": "bytes"
        }
      ],
      "name": "onApprovalReceived",
      "outputs": [
        {
          "internalType": "bytes4",
          "name": "",
          "type": "bytes4"
        }
      ],
      "stateMutability": "nonpayable",
      "type": "function"
    },
    {
      "inputs": [
        {
          "internalType": "uint256",
          "name": "amount",
          "type": "uint256"
        },
        {
          "internalType": "uint256",
          "name": "minPayout",
          "type": "uint256"
        }
      ],
      "name": "sellShards",
      "outputs": [],
      "stateMutability": "nonpayable",
      "type": "function"
    },
    {
      "inputs": [],
      "name": "supplyEther",
      "outputs": [],
      "stateMutability": "payable",
      "type": "function"
    },
    {
      "inputs": [
        {
          "internalType": "uint256",
          "name": "amount",
          "type": "uint256"
        }
      ],
      "name": "supplyShards",
      "outputs": [],
      "stateMutability": "nonpayable",
      "type": "function"
    },
    {
      "inputs": [
        {
          "internalType": "address",
          "name": "recipient",
          "type": "address"
        },
        {
          "internalType": "uint256",
          "name": "amount",
          "type": "uint256"
        }
      ],
      "name": "transferEthLPTokens",
      "outputs": [],
      "stateMutability": "nonpayable",
      "type": "function"
    },
    {
      "inputs": [
        {
          "internalType": "address",
          "name": "recipient",
          "type": "address"
        },
        {
          "internalType": "uint256",
          "name": "amount",
          "type": "uint256"
        }
      ],
      "name": "transferShardLPTokens",
      "outputs": [],
      "stateMutability": "nonpayable",
      "type": "function"
    },
    {
      "inputs": [],
      "name": "transferTimelockLiquidity",
      "outputs": [],
      "stateMutability": "nonpayable",
      "type": "function"
    },
    {
      "inputs": [
        {
          "internalType": "address",
          "name": "recipient",
          "type": "address"
        }
      ],
      "name": "withdrawNiftexOrArtistFees",
      "outputs": [],
      "stateMutability": "nonpayable",
      "type": "function"
    },
    {
      "inputs": [
        {
          "internalType": "uint256",
          "name": "amount",
          "type": "uint256"
        }
      ],
      "name": "withdrawSuppliedEther",
      "outputs": [
        {
          "internalType": "uint256",
          "name": "",
          "type": "uint256"
        },
        {
          "internalType": "uint256",
          "name": "",
          "type": "uint256"
        }
      ],
      "stateMutability": "nonpayable",
      "type": "function"
    },
    {
      "inputs": [
        {
          "internalType": "uint256",
          "name": "amount",
          "type": "uint256"
        }
      ],
      "name": "withdrawSuppliedShards",
      "outputs": [
        {
          "internalType": "uint256",
          "name": "",
          "type": "uint256"
        },
        {
          "internalType": "uint256",
          "name": "",
          "type": "uint256"
        }
      ],
      "stateMutability": "nonpayable",
      "type": "function"
    }
  ],
  "bytecode": "0x608060405234801561001057600080fd5b50612ede806100206000396000f3fe6080604052600436106101ac5760003560e01c80637cabec9e116100ec5780639b3c52f11161008a578063eb91d37e11610064578063eb91d37e1461044a578063efcbead91461045f578063f4056f7814610474578063f6a166f514610489576101ac565b80639b3c52f1146103f7578063da92b89b14610417578063e37259e914610437576101ac565b80638eebe00e116100c65780638eebe00e1461039857806393ab6599146103b85780639a0ca43b146103cd5780639a35fa82146103e2576101ac565b80637cabec9e1461033857806388beb7d4146103585780638c27a38d14610378576101ac565b806346aa4229116101595780636130aec7116101335780636130aec7146102b65780636aeb188b146102d65780637b04a2d0146102eb5780637c10016314610318576101ac565b806346aa4229146102565780635f8b8db314610276578063603477e314610296576101ac565b8063313ce5671161018a578063313ce567146102195780634120f88e1461023b578063463f0a6a1461024e576101ac565b80630dda6b5f146101b15780631bb16441146101dd5780631e62d2a6146101f4575b600080fd5b3480156101bd57600080fd5b506101c661049e565b6040516101d4929190612cd2565b60405180910390f35b3480156101e957600080fd5b506101f26104a8565b005b34801561020057600080fd5b506102096104f8565b6040516101d49493929190612ce0565b34801561022557600080fd5b5061022e61050a565b6040516101d49190612b66565b6101f2610249366004612ab6565b610510565b6101f261054c565b34801561026257600080fd5b506101f261027136600461293b565b610556565b34801561028257600080fd5b5061022e610291366004612a3f565b610565565b3480156102a257600080fd5b506101f26102b1366004612903565b6105d6565b3480156102c257600080fd5b5061022e6102d1366004612903565b61086f565b3480156102e257600080fd5b5061022e61088a565b3480156102f757600080fd5b5061030b610306366004612966565b610954565b6040516101d49190612b6f565b34801561032457600080fd5b506101c6610333366004612a3f565b610b02565b34801561034457600080fd5b506101f2610353366004612a3f565b610cc7565b34801561036457600080fd5b5061022e610373366004612903565b610d63565b34801561038457600080fd5b506101f261039336600461293b565b610d7e565b3480156103a457600080fd5b506101c66103b3366004612a3f565b610d89565b3480156103c457600080fd5b5061022e610fcb565b3480156103d957600080fd5b50610209610fef565b3480156103ee57600080fd5b5061022e611001565b34801561040357600080fd5b5061022e610412366004612a3f565b611025565b34801561042357600080fd5b506101f2610432366004612ab6565b611082565b6101f2610445366004612a6f565b61111c565b34801561045657600080fd5b5061022e61154b565b34801561046b57600080fd5b5061022e611585565b34801561048057600080fd5b5061022e6115a9565b34801561049557600080fd5b5061022e6115cd565b6000546001549091565b42600f54106104b657600080fd5b600e546104d69030906001600160a01b03166104d18261086f565b611605565b600e546104f69030906001600160a01b03166104f182610d63565b6116b1565b565b600754600a5460085460095490919293565b600d5490565b600061051d338484611750565b90503481111561052c57600080fd5b8034111561054757610547336105428334612e66565b611ed7565b505050565b6104f63334611f73565b610561338383611605565b5050565b6002546000908061057957829150506105d1565b60006105858483612cfb565b61059785670de0b6b3a7640000612e47565b6105a19190612d13565b90506105b581670de0b6b3a7640000612e66565b6005546105c29083612e47565b6105cc9190612d13565b925050505b919050565b600080600c60009054906101000a90046001600160a01b03166001600160a01b031663a3342fba6040518163ffffffff1660e01b815260040160206040518083038186803b15801561062757600080fd5b505afa15801561063b573d6000803e3d6000fd5b505050506040513d601f19601f8201168201806040525081019061065f919061291f565b6001600160a01b0316336001600160a01b031614156106a2576004546106859083612cfb565b6009549092506106959082612cfb565b6000600481905560095590505b600c60009054906101000a90046001600160a01b03166001600160a01b0316635aa6e6756040518163ffffffff1660e01b815260040160206040518083038186803b1580156106f057600080fd5b505afa158015610704573d6000803e3d6000fd5b505050506040513d601f19601f82011682018060405250810190610728919061291f565b6001600160a01b0316630927d6046040518163ffffffff1660e01b815260040160206040518083038186803b15801561076057600080fd5b505afa158015610774573d6000803e3d6000fd5b505050506040513d601f19601f82011682018060405250810190610798919061291f565b6001600160a01b0316336001600160a01b031614156107db576003546107be9083612cfb565b6008549092506107ce9082612cfb565b6000600381905560085590505b6107e58383611ed7565b600c5460405163a9059cbb60e01b81526001600160a01b039091169063a9059cbb906108179086908590600401612b4d565b602060405180830381600087803b15801561083157600080fd5b505af1158015610845573d6000803e3d6000fd5b505050506040513d601f19601f8201168201806040525081019061086991906129ea565b50505050565b6001600160a01b031660009081526006602052604090205490565b600954600854600c546040516370a0823160e01b81526000938493909290916001600160a01b03909116906370a08231906108c9903090600401612afb565b60206040518083038186803b1580156108e157600080fd5b505afa1580156108f5573d6000803e3d6000fd5b505050506040513d601f19601f820116820180604052508101906109199190612a57565b6109239190612e66565b61092d9190612e66565b600754909150811061094b576007546109469082612e66565b61094e565b60005b91505090565b600c546000906001600160a01b0316331461098a5760405162461bcd60e51b815260040161098190612be1565b60405180910390fd5b600c546040516323b872dd60e01b81526001600160a01b03909116906323b872dd906109be90889030908990600401612b29565b602060405180830381600087803b1580156109d857600080fd5b505af11580156109ec573d6000803e3d6000fd5b505050506040513d601f19601f82011682018060405250810190610a1091906129ea565b610a1957600080fd5b6000610a2783850185612a0a565b90506001600160e01b031981167fda92b89b000000000000000000000000000000000000000000000000000000001415610a7e576000610a6984860186612a24565b915050610a77878783612002565b5050610ad7565b6001600160e01b031981167f7cabec9e000000000000000000000000000000000000000000000000000000001415610abf57610aba868661262a565b610ad7565b60405162461bcd60e51b815260040161098190612b84565b507f7b04a2d00000000000000000000000000000000000000000000000000000000095945050505050565b60008060008311610b1257600080fd5b60055460045460035460009190610b299047612e66565b610b339190612e66565b90506000600260000154821115610b63576002548390610b54908890612e47565b610b5e9190612d13565b610b78565b82610b6e8784612e47565b610b789190612d13565b905060008387610b8661088a565b610b909190612e47565b610b9a9190612d13565b9050610ba68785612e66565b60028054600090610bb8908490612e47565b909155505060028054859190600090610bd2908490612d13565b90915550610be2905033886126ad565b610bec3383611ed7565b8015610c7857600c5460405163a9059cbb60e01b81526001600160a01b039091169063a9059cbb90610c249033908590600401612b4d565b602060405180830381600087803b158015610c3e57600080fd5b505af1158015610c52573d6000803e3d6000fd5b505050506040513d601f19601f82011682018060405250810190610c7691906129ea565b505b336001600160a01b03167fd5ca65e1ec4f4864fea7b9c5cb1ec3087a0dbf9c74641db3f6458edf445c40518383604051610cb3929190612cd2565b60405180910390a290945092505050915091565b600c546040516323b872dd60e01b81526001600160a01b03909116906323b872dd90610cfb90339030908690600401612b29565b602060405180830381600087803b158015610d1557600080fd5b505af1158015610d29573d6000803e3d6000fd5b505050506040513d601f19601f82011682018060405250810190610d4d91906129ea565b610d5657600080fd5b610d60338261262a565b50565b6001600160a01b03166000908152600b602052604090205490565b6105613383836116b1565b60008060008311610d9957600080fd5b600a54600954600854600c546040516370a0823160e01b815260009392916001600160a01b0316906370a0823190610dd5903090600401612afb565b60206040518083038186803b158015610ded57600080fd5b505afa158015610e01573d6000803e3d6000fd5b505050506040513d601f19601f82011682018060405250810190610e259190612a57565b610e2f9190612e66565b610e399190612e66565b90506000600760000154821115610e69576007548390610e5a908890612e47565b610e649190612d13565b610e7e565b82610e748784612e47565b610e7e9190612d13565b905060008387610e8c6115cd565b610e969190612e47565b610ea09190612d13565b9050610eac8785612e66565b60078054600090610ebe908490612e47565b909155505060078054859190600090610ed8908490612d13565b90915550610ee89050338861273e565b600c5460405163a9059cbb60e01b81526001600160a01b039091169063a9059cbb90610f1a9033908690600401612b4d565b602060405180830381600087803b158015610f3457600080fd5b505af1158015610f48573d6000803e3d6000fd5b505050506040513d601f19601f82011682018060405250810190610f6c91906129ea565b508015610f7d57610f7d3382611ed7565b336001600160a01b03167f58e152cead17252a663f4a702dbf197a286bf749a645635d9ccd5dfac4a19ff98284604051610fb8929190612cd2565b60405180910390a2945092505050915091565b7fcfb1dd89e6f4506eca597e7558fbcfe22dbc7e0b9f2b3956e121d0e344d6f7aa81565b60025460055460035460045490919293565b7fdd0618e2e2a17ff193a933618181c8f8909dc169e9707cce1921893a88739ca081565b6007546000908061103957829150506105d1565b60006110458483612cfb565b61105785670de0b6b3a7640000612e47565b6110619190612d13565b905061107581670de0b6b3a7640000612e66565b600a546105c29083612e47565b600c546040516323b872dd60e01b81526001600160a01b03909116906323b872dd906110b690339030908790600401612b29565b602060405180830381600087803b1580156110d057600080fd5b505af11580156110e4573d6000803e3d6000fd5b505050506040513d601f19601f8201168201806040525081019061110891906129ea565b61111157600080fd5b610547338383612002565b600c546001600160a01b03161561113257600080fd5b6000836001600160a01b03166318160ddd6040518163ffffffff1660e01b815260040160206040518083038186803b15801561116d57600080fd5b505afa158015611181573d6000803e3d6000fd5b505050506040513d601f19601f820116820180604052508101906111a59190612a57565b90506000846001600160a01b031663313ce5676040518163ffffffff1660e01b815260040160206040518083038186803b1580156111e257600080fd5b505afa1580156111f6573d6000803e3d6000fd5b505050506040513d601f19601f8201168201806040525081019061121a9190612ad7565b600c80547fffffffffffffffffffffffff00000000000000000000000000000000000000009081166001600160a01b0389811691821790935560ff93909316600d819055600e8054909216928816929092179055604080517f5aa6e6750000000000000000000000000000000000000000000000000000000081529051919350635aa6e675916004808301926020929190829003018186803b1580156112bf57600080fd5b505afa1580156112d3573d6000803e3d6000fd5b505050506040513d601f19601f820116820180604052508101906112f7919061291f565b604051627ebcdb60e21b81526001600160a01b0391909116906301faf36c906113469088907f4babff57ebd34f251a515a845400ed950a51f0a64c92e803a3e144fc40623fa890600401612b4d565b60206040518083038186803b15801561135e57600080fd5b505afa158015611372573d6000803e3d6000fd5b505050506040513d601f19601f820116820180604052508101906113969190612a57565b6113a09042612cfb565b600f55600c546040517f908408e307fc569b417f6cbec5d5a06f44a0a505ac0479b47d421a4b2fd6a1e6916113e0916001600160a01b0390911690612afb565b60405180910390a18515611479576040516323b872dd60e01b81526001600160a01b038616906323b872dd9061141e90339030908b90600401612b29565b602060405180830381600087803b15801561143857600080fd5b505af115801561144c573d6000803e3d6000fd5b505050506040513d601f19601f8201168201806040525081019061147091906129ea565b61147957600080fd5b600082905561148981600a612d79565b836114948480612e47565b61149e9190612e47565b6114a89190612d13565b6001556114b530876127c3565b6114bf3034612848565b60078690553460025560405130907f4f0c65dc19ed7bd52ba3051b8d85e779e514fed82d8ae5991b8d21c59d95b6f4906114fa908990612b66565b60405180910390a2306001600160a01b03167f6620e0774e01a1d5b97772375d103248f2223f7367ecefa0c580d8230decef5a3460405161153b9190612b66565b60405180910390a2505050505050565b60008054600d54819061155f90600a612d79565b60015461156c9190612e47565b6115769190612d13565b6115809190612d13565b905090565b7fe4f5729eb40e38b5a39dfb36d76ead9f9bc286f06852595980c5078f1af7e8c981565b7f4babff57ebd34f251a515a845400ed950a51f0a64c92e803a3e144fc40623fa881565b60045460035460009182916115e29047612e66565b6115ec9190612e66565b600254909150811061094b576002546109469082612e66565b6001600160a01b0383166000908152600660205260408120805483929061162d908490612e66565b90915550506001600160a01b0382166000908152600660205260408120805483929061165a908490612cfb565b92505081905550816001600160a01b0316836001600160a01b03167f164b5736b5698c5cea31ecbaec13048ee7b2d7c7f1fcdd597f3da625e8d76e9d836040516116a49190612b66565b60405180910390a3505050565b6001600160a01b0383166000908152600b6020526040812080548392906116d9908490612e66565b90915550506001600160a01b0382166000908152600b602052604081208054839290611706908490612cfb565b92505081905550816001600160a01b0316836001600160a01b03167ff0aad3af094499d179e526173a77e33079bd7422ce5c5362317fa0ece15f04e6836040516116a49190612b66565b600080600c60009054906101000a90046001600160a01b03166001600160a01b0316635aa6e6756040518163ffffffff1660e01b815260040160206040518083038186803b1580156117a157600080fd5b505afa1580156117b5573d6000803e3d6000fd5b505050506040513d601f19601f820116820180604052508101906117d9919061291f565b90506000600c60009054906101000a90046001600160a01b03166001600160a01b0316638da5cb5b6040518163ffffffff1660e01b815260040160206040518083038186803b15801561182b57600080fd5b505afa15801561183f573d6000803e3d6000fd5b505050506040513d601f19601f82011682018060405250810190611863919061291f565b90506000600c60009054906101000a90046001600160a01b03166001600160a01b031663a3342fba6040518163ffffffff1660e01b815260040160206040518083038186803b1580156118b557600080fd5b505afa1580156118c9573d6000803e3d6000fd5b505050506040513d601f19601f820116820180604052508101906118ed919061291f565b90506001600160a01b03821615806119845750600c546040516376e5694160e11b81526001600160a01b038581169263edcad2829261193492909116908690600401612b0f565b60206040518083038186803b15801561194c57600080fd5b505afa158015611960573d6000803e3d6000fd5b505050506040513d601f19601f8201168201806040525081019061198491906129ea565b61198d57600080fd5b6119956128cd565b600c54604051627ebcdb60e21b81526001600160a01b03868116926301faf36c926119e892909116907fe4f5729eb40e38b5a39dfb36d76ead9f9bc286f06852595980c5078f1af7e8c990600401612b4d565b60206040518083038186803b158015611a0057600080fd5b505afa158015611a14573d6000803e3d6000fd5b505050506040513d601f19601f82011682018060405250810190611a389190612a57565b8152600c54604051627ebcdb60e21b81526001600160a01b03868116926301faf36c92611a8d92909116907fcfb1dd89e6f4506eca597e7558fbcfe22dbc7e0b9f2b3956e121d0e344d6f7aa90600401612b4d565b60206040518083038186803b158015611aa557600080fd5b505afa158015611ab9573d6000803e3d6000fd5b505050506040513d601f19601f82011682018060405250810190611add9190612a57565b60208201526001600160a01b03821615611b9957600c54604051627ebcdb60e21b81526001600160a01b03868116926301faf36c92611b4492909116907fdd0618e2e2a17ff193a933618181c8f8909dc169e9707cce1921893a88739ca090600401612b4d565b60206040518083038186803b158015611b5c57600080fd5b505afa158015611b70573d6000803e3d6000fd5b505050506040513d601f19601f82011682018060405250810190611b949190612a57565b611b9c565b60005b6040820181905260208201518251600092670de0b6b3a7640000929091611bc39084612cfb565b611bcd9190612cfb565b611bd79190612cfb565b611be1908a612e47565b611beb9190612d13565b90506000816000800154611bff9190612e66565b9050600081600060010154611c149190612d13565b9050600082118015611c265750600081115b611c2f57600080fd5b60008054600154611c409190612d13565b611c4a9083612e66565b905089811115611c5957600080fd5b600954600854600c546040516370a0823160e01b8152879392916001600160a01b0316906370a0823190611c91903090600401612afb565b60206040518083038186803b158015611ca957600080fd5b505afa158015611cbd573d6000803e3d6000fd5b505050506040513d601f19601f82011682018060405250810190611ce19190612a57565b611ceb9190612e66565b611cf59190612e66565b1015611d0057600080fd5b60408501516020860151670de0b6b3a76400009190611d1f9083612cfb565b611d299190612cfb565b611d33908d612e47565b611d3d9190612d13565b600080548190611d4e908490612e66565b90915550508451670de0b6b3a764000090611d69908d612e47565b611d739190612d13565b60078054600090611d85908490612cfb565b90915550506020850151670de0b6b3a764000090611da3908d612e47565b611dad9190612d13565b60088054600090611dbf908490612cfb565b90915550506040850151670de0b6b3a764000090611ddd908d612e47565b611de79190612d13565b60098054600090611df9908490612cfb565b9091555050600c5460405163a9059cbb60e01b81526001600160a01b039091169063a9059cbb90611e30908f908f90600401612b4d565b602060405180830381600087803b158015611e4a57600080fd5b505af1158015611e5e573d6000803e3d6000fd5b505050506040513d601f19601f82011682018060405250810190611e8291906129ea565b508b6001600160a01b03167f9c47f3aea4ae6f59b460e34f63a8022f456438a45fb372a707456f7a2784fcd98c83604051611ebe929190612cd2565b60405180910390a29750505050505050505b9392505050565b80471015611ef75760405162461bcd60e51b815260040161098190612c9b565b6000826001600160a01b031682604051611f1090612af8565b60006040518083038185875af1925050503d8060008114611f4d576040519150601f19603f3d011682016040523d82523d6000602084013e611f52565b606091505b50509050806105475760405162461bcd60e51b815260040161098190612c3e565b6000546001544791611f8491612d13565b1015611f8f57600080fd5b611fa182611f9c83610565565b612848565b8060026000016000828254611fb69190612cfb565b92505081905550816001600160a01b03167f6620e0774e01a1d5b97772375d103248f2223f7367ecefa0c580d8230decef5a82604051611ff69190612b66565b60405180910390a25050565b600080600c60009054906101000a90046001600160a01b03166001600160a01b0316635aa6e6756040518163ffffffff1660e01b815260040160206040518083038186803b15801561205357600080fd5b505afa158015612067573d6000803e3d6000fd5b505050506040513d601f19601f8201168201806040525081019061208b919061291f565b90506000600c60009054906101000a90046001600160a01b03166001600160a01b0316638da5cb5b6040518163ffffffff1660e01b815260040160206040518083038186803b1580156120dd57600080fd5b505afa1580156120f1573d6000803e3d6000fd5b505050506040513d601f19601f82011682018060405250810190612115919061291f565b90506000600c60009054906101000a90046001600160a01b03166001600160a01b031663a3342fba6040518163ffffffff1660e01b815260040160206040518083038186803b15801561216757600080fd5b505afa15801561217b573d6000803e3d6000fd5b505050506040513d601f19601f8201168201806040525081019061219f919061291f565b90506001600160a01b03821615806122365750600c546040516376e5694160e11b81526001600160a01b038581169263edcad282926121e692909116908690600401612b0f565b60206040518083038186803b1580156121fe57600080fd5b505afa158015612212573d6000803e3d6000fd5b505050506040513d601f19601f8201168201806040525081019061223691906129ea565b61223f57600080fd5b6122476128cd565b600c54604051627ebcdb60e21b81526001600160a01b03868116926301faf36c9261229a92909116907fe4f5729eb40e38b5a39dfb36d76ead9f9bc286f06852595980c5078f1af7e8c990600401612b4d565b60206040518083038186803b1580156122b257600080fd5b505afa1580156122c6573d6000803e3d6000fd5b505050506040513d601f19601f820116820180604052508101906122ea9190612a57565b8152600c54604051627ebcdb60e21b81526001600160a01b03868116926301faf36c9261233f92909116907fcfb1dd89e6f4506eca597e7558fbcfe22dbc7e0b9f2b3956e121d0e344d6f7aa90600401612b4d565b60206040518083038186803b15801561235757600080fd5b505afa15801561236b573d6000803e3d6000fd5b505050506040513d601f19601f8201168201806040525081019061238f9190612a57565b60208201526001600160a01b0382161561244b57600c54604051627ebcdb60e21b81526001600160a01b03868116926301faf36c926123f692909116907fdd0618e2e2a17ff193a933618181c8f8909dc169e9707cce1921893a88739ca090600401612b4d565b60206040518083038186803b15801561240e57600080fd5b505afa158015612422573d6000803e3d6000fd5b505050506040513d601f19601f820116820180604052508101906124469190612a57565b61244e565b60005b604082015260008054612462908990612cfb565b90506000816000600101546124779190612d13565b90506000821180156124895750600081115b61249257600080fd5b6000805460015483916124a491612d13565b6124ae9190612e66565b600454600354919250906124c29047612e66565b6124cc9190612e66565b81111580156124db5750888110155b6124e457600080fd5b604084015160208501518551600092670de0b6b3a76400009290916125099084612e66565b6125139190612e66565b61251d9190612e66565b6125279084612e47565b6125319190612d13565b60008590558551909150670de0b6b3a76400009061254f9084612e47565b6125599190612d13565b6002805460009061256b908490612cfb565b90915550506020850151670de0b6b3a7640000906125899084612e47565b6125939190612d13565b600380546000906125a5908490612cfb565b90915550506040850151670de0b6b3a7640000906125c39084612e47565b6125cd9190612d13565b600480546000906125df908490612cfb565b909155506125ef90508c82611ed7565b8b6001600160a01b03167fbea455d4604caa788f862499efde7bc7f24081f52db686c99c904ff715373b9b8c83604051611ebe929190612cd2565b600754612638908290612cfb565b600054101561264657600080fd5b6126588261265383611025565b6127c3565b806007600001600082825461266d9190612cfb565b92505081905550816001600160a01b03167f4f0c65dc19ed7bd52ba3051b8d85e779e514fed82d8ae5991b8d21c59d95b6f482604051611ff69190612b66565b6001600160a01b038216600090815260066020526040812080548392906126d5908490612e66565b9091555050600580548291906000906126ef908490612e66565b90915550506040516000906001600160a01b038416907f164b5736b5698c5cea31ecbaec13048ee7b2d7c7f1fcdd597f3da625e8d76e9d90612732908590612b66565b60405180910390a35050565b6001600160a01b0382166000908152600b602052604081208054839290612766908490612e66565b9091555050600a8054829190600090612780908490612e66565b90915550506040516000906001600160a01b038416907ff0aad3af094499d179e526173a77e33079bd7422ce5c5362317fa0ece15f04e690612732908590612b66565b6001600160a01b0382166000908152600b6020526040812080548392906127eb908490612cfb565b9091555050600a8054829190600090612805908490612cfb565b90915550506040516001600160a01b038316906000907ff0aad3af094499d179e526173a77e33079bd7422ce5c5362317fa0ece15f04e690612732908590612b66565b6001600160a01b03821660009081526006602052604081208054839290612870908490612cfb565b90915550506005805482919060009061288a908490612cfb565b90915550506040516001600160a01b038316906000907f164b5736b5698c5cea31ecbaec13048ee7b2d7c7f1fcdd597f3da625e8d76e9d90612732908590612b66565b60405180606001604052806003906020820280368337509192915050565b80356001600160e01b0319811681146105d157600080fd5b600060208284031215612914578081fd5b8135611ed081612e93565b600060208284031215612930578081fd5b8151611ed081612e93565b6000806040838503121561294d578081fd5b823561295881612e93565b946020939093013593505050565b6000806000806060858703121561297b578182fd5b843561298681612e93565b935060208501359250604085013567ffffffffffffffff808211156129a9578384fd5b818701915087601f8301126129bc578384fd5b8135818111156129ca578485fd5b8860208285010111156129db578485fd5b95989497505060200194505050565b6000602082840312156129fb578081fd5b81518015158114611ed0578182fd5b600060208284031215612a1b578081fd5b611ed0826128eb565b60008060408385031215612a36578182fd5b612958836128eb565b600060208284031215612a50578081fd5b5035919050565b600060208284031215612a68578081fd5b5051919050565b60008060008060808587031215612a84578384fd5b843593506020850135612a9681612e93565b92506040850135612aa681612e93565b9396929550929360600135925050565b60008060408385031215612ac8578182fd5b50508035926020909101359150565b600060208284031215612ae8578081fd5b815160ff81168114611ed0578182fd5b90565b6001600160a01b0391909116815260200190565b6001600160a01b0392831681529116602082015260400190565b6001600160a01b039384168152919092166020820152604081019190915260600190565b6001600160a01b03929092168252602082015260400190565b90815260200190565b6001600160e01b031991909116815260200190565b6020808252602b908201527f696e76616c69642073656c6563746f7220696e206f6e417070726f76616c526560408201527f6365697665642064617461000000000000000000000000000000000000000000606082015260800190565b6020808252602f908201527f6f6e417070726f76616c5265636569766564207265737472696374656420746f60408201527f20746f6b656e20636f6e74726163740000000000000000000000000000000000606082015260800190565b6020808252603a908201527f416464726573733a20756e61626c6520746f2073656e642076616c75652c207260408201527f6563697069656e74206d61792068617665207265766572746564000000000000606082015260800190565b6020808252601d908201527f416464726573733a20696e73756666696369656e742062616c616e6365000000604082015260600190565b918252602082015260400190565b93845260208401929092526040830152606082015260800190565b60008219821115612d0e57612d0e612e7d565b500190565b600082612d2e57634e487b7160e01b81526012600452602481fd5b500490565b80825b6001808611612d455750612d70565b818704821115612d5757612d57612e7d565b80861615612d6457918102915b9490941c938002612d36565b94509492505050565b6000611ed06000198484600082612d9257506001611ed0565b81612d9f57506000611ed0565b8160018114612db55760028114612dbf57612dec565b6001915050611ed0565b60ff841115612dd057612dd0612e7d565b6001841b915084821115612de657612de6612e7d565b50611ed0565b5060208310610133831016604e8410600b8410161715612e1f575081810a83811115612e1a57612e1a612e7d565b611ed0565b612e2c8484846001612d33565b808604821115612e3e57612e3e612e7d565b02949350505050565b6000816000190483118215151615612e6157612e61612e7d565b500290565b600082821015612e7857612e78612e7d565b500390565b634e487b7160e01b600052601160045260246000fd5b6001600160a01b0381168114610d6057600080fdfea264697066735822122056d0ba90a9b19845741b6a4e6a582fb0c337ba9e1c695a263785a6f4dffd651b64736f6c63430008010033",
  "linkReferences": {},
  "deployedLinkReferences": {}
}