{
  "_format": "hh-sol-artifact-1",
  "contractName": "MulticallModule",
  "sourceName": "contracts/modules/implementations/MulticallModule.sol",
  "abi": [
    {
      "inputs": [
        {
          "internalType": "address",
          "name": "walletTemplate",
          "type": "address"
        }
      ],
      "stateMutability": "nonpayable",
      "type": "constructor"
    },
    {
      "inputs": [
        {
          "internalType": "contract ShardedWallet",
          "name": "wallet",
          "type": "address"
        },
        {
          "internalType": "address[]",
          "name": "to",
          "type": "address[]"
        },
        {
          "internalType": "uint256[]",
          "name": "value",
          "type": "uint256[]"
        },
        {
          "internalType": "bytes[]",
          "name": "data",
          "type": "bytes[]"
        }
      ],
      "name": "batch",
      "outputs": [],
      "stateMutability": "nonpayable",
      "type": "function"
    },
    {
      "inputs": [],
      "name": "name",
      "outputs": [
        {
          "internalType": "string",
          "name": "",
          "type": "string"
        }
      ],
      "stateMutability": "view",
      "type": "function"
    },
    {
      "inputs": [],
      "name": "walletTemplate",
      "outputs": [
        {
          "internalType": "address",
          "name": "",
          "type": "address"
        }
      ],
      "stateMutability": "view",
      "type": "function"
    }
  ],
  "bytecode": "0x60a060405234801561001057600080fd5b506040516105d03803806105d083398101604081905261002f91610044565b60601b6001600160601b031916608052610072565b600060208284031215610055578081fd5b81516001600160a01b038116811461006b578182fd5b9392505050565b60805160601c61054161008f600039600060c901526105416000f3fe608060405234801561001057600080fd5b50600436106100415760003560e01c806306fdde03146100465780635997b63e14610064578063fde2de1414610079575b600080fd5b61004e61008e565b60405161005b9190610434565b60405180910390f35b61006c6100c7565b60405161005b91906103da565b61008c610087366004610331565b6100eb565b005b60405180604001604052600f8152806020017f4d756c746963616c6c4d6f64756c65000000000000000000000000000000000081525081565b7f000000000000000000000000000000000000000000000000000000000000000081565b8633806001600160a01b0316826001600160a01b0316638da5cb5b6040518163ffffffff1660e01b815260040160206040518083038186803b15801561013057600080fd5b505afa158015610144573d6000803e3d6000fd5b505050506040513d601f19601f820116820180604052508101906101689190610315565b6001600160a01b03161461017b57600080fd5b86851461018757600080fd5b86831461019357600080fd5b60005b8781101561029d57896001600160a01b03166363f10c6d8a8a848181106101cd57634e487b7160e01b600052603260045260246000fd5b90506020020160208101906101e291906102f2565b89898581811061020257634e487b7160e01b600052603260045260246000fd5b9050602002013588888681811061022957634e487b7160e01b600052603260045260246000fd5b905060200281019061023b9190610487565b6040518563ffffffff1660e01b815260040161025a94939291906103ee565b600060405180830381600087803b15801561027457600080fd5b505af1158015610288573d6000803e3d6000fd5b5050505080610296906104cc565b9050610196565b50505050505050505050565b60008083601f8401126102ba578182fd5b50813567ffffffffffffffff8111156102d1578182fd5b60208301915083602080830285010111156102eb57600080fd5b9250929050565b600060208284031215610303578081fd5b813561030e816104f3565b9392505050565b600060208284031215610326578081fd5b815161030e816104f3565b60008060008060008060006080888a03121561034b578283fd5b8735610356816104f3565b9650602088013567ffffffffffffffff80821115610372578485fd5b61037e8b838c016102a9565b909850965060408a0135915080821115610396578485fd5b6103a28b838c016102a9565b909650945060608a01359150808211156103ba578384fd5b506103c78a828b016102a9565b989b979a50959850939692959293505050565b6001600160a01b0391909116815260200190565b60006001600160a01b03861682528460208301526060604083015282606083015282846080840137818301608090810191909152601f909201601f191601019392505050565b6000602080835283518082850152825b8181101561046057858101830151858201604001528201610444565b818111156104715783604083870101525b50601f01601f1916929092016040019392505050565b6000808335601e1984360301811261049d578283fd5b83018035915067ffffffffffffffff8211156104b7578283fd5b6020019150368190038213156102eb57600080fd5b60006000198214156104ec57634e487b7160e01b81526011600452602481fd5b5060010190565b6001600160a01b038116811461050857600080fd5b5056fea26469706673582212200360208a1be7dc5e793eabef785a2f342abb6df18460779aeee87358d22e9f0c64736f6c63430008010033",
  "linkReferences": {},
  "deployedLinkReferences": {}
}