{
  "_format": "hh-sol-artifact-1",
  "contractName": "ERC1155Mock",
  "sourceName": "contracts/mocks/ERC1155Mock.sol",
  "abi": [
    {
      "inputs": [
        {
          "internalType": "string",
          "name": "uri",
          "type": "string"
        }
      ],
      "stateMutability": "nonpayable",
      "type": "constructor"
    },
    {
      "anonymous": false,
      "inputs": [
        {
          "indexed": true,
          "internalType": "address",
          "name": "account",
          "type": "address"
        },
        {
          "indexed": true,
          "internalType": "address",
          "name": "operator",
          "type": "address"
        },
        {
          "indexed": false,
          "internalType": "bool",
          "name": "approved",
          "type": "bool"
        }
      ],
      "name": "ApprovalForAll",
      "type": "event"
    },
    {
      "anonymous": false,
      "inputs": [
        {
          "indexed": true,
          "internalType": "address",
          "name": "operator",
          "type": "address"
        },
        {
          "indexed": true,
          "internalType": "address",
          "name": "from",
          "type": "address"
        },
        {
          "indexed": true,
          "internalType": "address",
          "name": "to",
          "type": "address"
        },
        {
          "indexed": false,
          "internalType": "uint256[]",
          "name": "ids",
          "type": "uint256[]"
        },
        {
          "indexed": false,
          "internalType": "uint256[]",
          "name": "values",
          "type": "uint256[]"
        }
      ],
      "name": "TransferBatch",
      "type": "event"
    },
    {
      "anonymous": false,
      "inputs": [
        {
          "indexed": true,
          "internalType": "address",
          "name": "operator",
          "type": "address"
        },
        {
          "indexed": true,
          "internalType": "address",
          "name": "from",
          "type": "address"
        },
        {
          "indexed": true,
          "internalType": "address",
          "name": "to",
          "type": "address"
        },
        {
          "indexed": false,
          "internalType": "uint256",
          "name": "id",
          "type": "uint256"
        },
        {
          "indexed": false,
          "internalType": "uint256",
          "name": "value",
          "type": "uint256"
        }
      ],
      "name": "TransferSingle",
      "type": "event"
    },
    {
      "anonymous": false,
      "inputs": [
        {
          "indexed": false,
          "internalType": "string",
          "name": "value",
          "type": "string"
        },
        {
          "indexed": true,
          "internalType": "uint256",
          "name": "id",
          "type": "uint256"
        }
      ],
      "name": "URI",
      "type": "event"
    },
    {
      "inputs": [
        {
          "internalType": "address",
          "name": "account",
          "type": "address"
        },
        {
          "internalType": "uint256",
          "name": "id",
          "type": "uint256"
        }
      ],
      "name": "balanceOf",
      "outputs": [
        {
          "internalType": "uint256",
          "name": "",
          "type": "uint256"
        }
      ],
      "stateMutability": "view",
      "type": "function"
    },
    {
      "inputs": [
        {
          "internalType": "address[]",
          "name": "accounts",
          "type": "address[]"
        },
        {
          "internalType": "uint256[]",
          "name": "ids",
          "type": "uint256[]"
        }
      ],
      "name": "balanceOfBatch",
      "outputs": [
        {
          "internalType": "uint256[]",
          "name": "",
          "type": "uint256[]"
        }
      ],
      "stateMutability": "view",
      "type": "function"
    },
    {
      "inputs": [
        {
          "internalType": "address",
          "name": "owner",
          "type": "address"
        },
        {
          "internalType": "uint256",
          "name": "id",
          "type": "uint256"
        },
        {
          "internalType": "uint256",
          "name": "value",
          "type": "uint256"
        }
      ],
      "name": "burn",
      "outputs": [],
      "stateMutability": "nonpayable",
      "type": "function"
    },
    {
      "inputs": [
        {
          "internalType": "address",
          "name": "owner",
          "type": "address"
        },
        {
          "internalType": "uint256[]",
          "name": "ids",
          "type": "uint256[]"
        },
        {
          "internalType": "uint256[]",
          "name": "values",
          "type": "uint256[]"
        }
      ],
      "name": "burnBatch",
      "outputs": [],
      "stateMutability": "nonpayable",
      "type": "function"
    },
    {
      "inputs": [
        {
          "internalType": "address",
          "name": "account",
          "type": "address"
        },
        {
          "internalType": "address",
          "name": "operator",
          "type": "address"
        }
      ],
      "name": "isApprovedForAll",
      "outputs": [
        {
          "internalType": "bool",
          "name": "",
          "type": "bool"
        }
      ],
      "stateMutability": "view",
      "type": "function"
    },
    {
      "inputs": [
        {
          "internalType": "address",
          "name": "to",
          "type": "address"
        },
        {
          "internalType": "uint256",
          "name": "id",
          "type": "uint256"
        },
        {
          "internalType": "uint256",
          "name": "value",
          "type": "uint256"
        },
        {
          "internalType": "bytes",
          "name": "data",
          "type": "bytes"
        }
      ],
      "name": "mint",
      "outputs": [],
      "stateMutability": "nonpayable",
      "type": "function"
    },
    {
      "inputs": [
        {
          "internalType": "address",
          "name": "to",
          "type": "address"
        },
        {
          "internalType": "uint256[]",
          "name": "ids",
          "type": "uint256[]"
        },
        {
          "internalType": "uint256[]",
          "name": "values",
          "type": "uint256[]"
        },
        {
          "internalType": "bytes",
          "name": "data",
          "type": "bytes"
        }
      ],
      "name": "mintBatch",
      "outputs": [],
      "stateMutability": "nonpayable",
      "type": "function"
    },
    {
      "inputs": [
        {
          "internalType": "address",
          "name": "from",
          "type": "address"
        },
        {
          "internalType": "address",
          "name": "to",
          "type": "address"
        },
        {
          "internalType": "uint256[]",
          "name": "ids",
          "type": "uint256[]"
        },
        {
          "internalType": "uint256[]",
          "name": "amounts",
          "type": "uint256[]"
        },
        {
          "internalType": "bytes",
          "name": "data",
          "type": "bytes"
        }
      ],
      "name": "safeBatchTransferFrom",
      "outputs": [],
      "stateMutability": "nonpayable",
      "type": "function"
    },
    {
      "inputs": [
        {
          "internalType": "address",
          "name": "from",
          "type": "address"
        },
        {
          "internalType": "address",
          "name": "to",
          "type": "address"
        },
        {
          "internalType": "uint256",
          "name": "id",
          "type": "uint256"
        },
        {
          "internalType": "uint256",
          "name": "amount",
          "type": "uint256"
        },
        {
          "internalType": "bytes",
          "name": "data",
          "type": "bytes"
        }
      ],
      "name": "safeTransferFrom",
      "outputs": [],
      "stateMutability": "nonpayable",
      "type": "function"
    },
    {
      "inputs": [
        {
          "internalType": "address",
          "name": "operator",
          "type": "address"
        },
        {
          "internalType": "bool",
          "name": "approved",
          "type": "bool"
        }
      ],
      "name": "setApprovalForAll",
      "outputs": [],
      "stateMutability": "nonpayable",
      "type": "function"
    },
    {
      "inputs": [
        {
          "internalType": "string",
          "name": "newuri",
          "type": "string"
        }
      ],
      "name": "setURI",
      "outputs": [],
      "stateMutability": "nonpayable",
      "type": "function"
    },
    {
      "inputs": [
        {
          "internalType": "bytes4",
          "name": "interfaceId",
          "type": "bytes4"
        }
      ],
      "name": "supportsInterface",
      "outputs": [
        {
          "internalType": "bool",
          "name": "",
          "type": "bool"
        }
      ],
      "stateMutability": "view",
      "type": "function"
    },
    {
      "inputs": [
        {
          "internalType": "uint256",
          "name": "",
          "type": "uint256"
        }
      ],
      "name": "uri",
      "outputs": [
        {
          "internalType": "string",
          "name": "",
          "type": "string"
        }
      ],
      "stateMutability": "view",
      "type": "function"
    }
  ],
  "bytecode": "0x60806040523480156200001157600080fd5b506040516200227f3803806200227f833981016040819052620000349162000107565b80620000408162000048565b505062000230565b80516200005d90600290602084019062000061565b5050565b8280546200006f90620001dd565b90600052602060002090601f016020900481019282620000935760008555620000de565b82601f10620000ae57805160ff1916838001178555620000de565b82800160010185558215620000de579182015b82811115620000de578251825591602001919060010190620000c1565b50620000ec929150620000f0565b5090565b5b80821115620000ec5760008155600101620000f1565b600060208083850312156200011a578182fd5b82516001600160401b038082111562000131578384fd5b818501915085601f83011262000145578384fd5b8151818111156200015a576200015a6200021a565b604051601f8201601f19908116603f011681019083821181831017156200018557620001856200021a565b8160405282815288868487010111156200019d578687fd5b8693505b82841015620001c05784840186015181850187015292850192620001a1565b82841115620001d157868684830101525b98975050505050505050565b600281046001821680620001f257607f821691505b602082108114156200021457634e487b7160e01b600052602260045260246000fd5b50919050565b634e487b7160e01b600052604160045260246000fd5b61203f80620002406000396000f3fe608060405234801561001057600080fd5b50600436106100de5760003560e01c80634e1273f41161008c578063a22cb46511610066578063a22cb465146101cd578063e985e9c5146101e0578063f242432a146101f3578063f5298aca14610206576100de565b80634e1273f4146101875780636b20c454146101a7578063731133e9146101ba576100de565b80630e89341c116100bd5780630e89341c146101415780631f7fdffa146101615780632eb2c2d614610174576100de565b8062fdd58e146100e357806301ffc9a71461010c57806302fe53051461012c575b600080fd5b6100f66100f13660046115de565b610219565b6040516101039190611e31565b60405180910390f35b61011f61011a366004611755565b610270565b604051610103919061195a565b61013f61013a36600461178d565b6102ea565b005b61015461014f3660046117db565b6102f6565b6040516101039190611965565b61013f61016f36600461150f565b61038a565b61013f610182366004611395565b61039c565b61019a61019536600461168c565b610602565b6040516101039190611919565b61013f6101b536600461149e565b610722565b61013f6101c8366004611639565b610732565b61013f6101db3660046115a4565b61073e565b61011f6101ee366004611363565b61080c565b61013f61020136600461143b565b61083a565b61013f610214366004611607565b6109d0565b60006001600160a01b03831661024a5760405162461bcd60e51b815260040161024190611a32565b60405180910390fd5b506000908152602081815260408083206001600160a01b03949094168352929052205490565b60006001600160e01b031982167fd9b67a260000000000000000000000000000000000000000000000000000000014806102d357506001600160e01b031982167f0e89341c00000000000000000000000000000000000000000000000000000000145b806102e257506102e2826109db565b90505b919050565b6102f381610a0d565b50565b60606002805461030590611e9b565b80601f016020809104026020016040519081016040528092919081815260200182805461033190611e9b565b801561037e5780601f106103535761010080835404028352916020019161037e565b820191906000526020600020905b81548152906001019060200180831161036157829003601f168201915b50505050509050919050565b61039684848484610a24565b50505050565b81518351146103bd5760405162461bcd60e51b815260040161024190611d77565b6001600160a01b0384166103e35760405162461bcd60e51b815260040161024190611b49565b6103eb610bac565b6001600160a01b0316856001600160a01b031614806104115750610411856101ee610bac565b61042d5760405162461bcd60e51b815260040161024190611ba6565b6000610437610bac565b90506104478187878787876105fa565b60005b845181101561059457600085828151811061047557634e487b7160e01b600052603260045260246000fd5b6020026020010151905060008583815181106104a157634e487b7160e01b600052603260045260246000fd5b602090810291909101810151600084815280835260408082206001600160a01b038e1683529093529190912054909150818110156104f15760405162461bcd60e51b815260040161024190611c60565b6104fb8282611e84565b60008085815260200190815260200160002060008c6001600160a01b03166001600160a01b03168152602001908152602001600020819055508160008085815260200190815260200160002060008b6001600160a01b03166001600160a01b0316815260200190815260200160002060008282546105799190611e6c565b925050819055505050508061058d90611f03565b905061044a565b50846001600160a01b0316866001600160a01b0316826001600160a01b03167f4a39dc06d4c0dbc64b70af90fd698a233a518aa5d07e595d983b8c0526c8f7fb87876040516105e492919061192c565b60405180910390a46105fa818787878787610bb1565b505050505050565b606081518351146106255760405162461bcd60e51b815260040161024190611d1a565b6000835167ffffffffffffffff81111561064f57634e487b7160e01b600052604160045260246000fd5b604051908082528060200260200182016040528015610678578160200160208202803683370190505b50905060005b845181101561071a576106df8582815181106106aa57634e487b7160e01b600052603260045260246000fd5b60200260200101518583815181106106d257634e487b7160e01b600052603260045260246000fd5b6020026020010151610219565b8282815181106106ff57634e487b7160e01b600052603260045260246000fd5b602090810291909101015261071381611f03565b905061067e565b509392505050565b61072d838383610cd6565b505050565b61039684848484610e94565b816001600160a01b0316610750610bac565b6001600160a01b031614156107775760405162461bcd60e51b815260040161024190611cbd565b8060016000610784610bac565b6001600160a01b03908116825260208083019390935260409182016000908120918716808252919093529120805460ff1916921515929092179091556107c8610bac565b6001600160a01b03167f17307eab39ab6107e8899845ad3d59bd9653f200f220920489ca2b5937696c3183604051610800919061195a565b60405180910390a35050565b6001600160a01b03918216600090815260016020908152604080832093909416825291909152205460ff1690565b6001600160a01b0384166108605760405162461bcd60e51b815260040161024190611b49565b610868610bac565b6001600160a01b0316856001600160a01b0316148061088e575061088e856101ee610bac565b6108aa5760405162461bcd60e51b815260040161024190611aec565b60006108b4610bac565b90506108d48187876108c588610f74565b6108ce88610f74565b876105fa565b6000848152602081815260408083206001600160a01b038a168452909152902054838110156109155760405162461bcd60e51b815260040161024190611c60565b61091f8482611e84565b6000868152602081815260408083206001600160a01b038c8116855292528083209390935588168152908120805486929061095b908490611e6c565b92505081905550856001600160a01b0316876001600160a01b0316836001600160a01b03167fc3d58168c5ae7397731d063d5bbf3d657854427343f4c083240f7aacaa2d0f6288886040516109b1929190611e3a565b60405180910390a46109c7828888888888610fcd565b50505050505050565b61072d83838361109e565b6001600160e01b031981167f01ffc9a70000000000000000000000000000000000000000000000000000000014919050565b8051610a209060029060208401906111bd565b5050565b6001600160a01b038416610a4a5760405162461bcd60e51b815260040161024190611dd4565b8151835114610a6b5760405162461bcd60e51b815260040161024190611d77565b6000610a75610bac565b9050610a86816000878787876105fa565b60005b8451811015610b3d57838181518110610ab257634e487b7160e01b600052603260045260246000fd5b6020026020010151600080878481518110610add57634e487b7160e01b600052603260045260246000fd5b602002602001015181526020019081526020016000206000886001600160a01b03166001600160a01b031681526020019081526020016000206000828254610b259190611e6c565b90915550819050610b3581611f03565b915050610a89565b50846001600160a01b031660006001600160a01b0316826001600160a01b03167f4a39dc06d4c0dbc64b70af90fd698a233a518aa5d07e595d983b8c0526c8f7fb8787604051610b8e92919061192c565b60405180910390a4610ba581600087878787610bb1565b5050505050565b335b90565b610bc3846001600160a01b03166111b7565b156105fa5760405163bc197c8160e01b81526001600160a01b0385169063bc197c8190610bfc9089908990889088908890600401611878565b602060405180830381600087803b158015610c1657600080fd5b505af1925050508015610c46575060408051601f3d908101601f19168201909252610c4391810190611771565b60015b610ca657610c52611f4a565b806308c379a01415610c8c5750610c67611f61565b80610c725750610c8e565b8060405162461bcd60e51b81526004016102419190611965565b505b60405162461bcd60e51b815260040161024190611978565b6001600160e01b0319811663bc197c8160e01b146109c75760405162461bcd60e51b8152600401610241906119d5565b6001600160a01b038316610cfc5760405162461bcd60e51b815260040161024190611c03565b8051825114610d1d5760405162461bcd60e51b815260040161024190611d77565b6000610d27610bac565b9050610d47818560008686604051806020016040528060008152506105fa565b60005b8351811015610e35576000848281518110610d7557634e487b7160e01b600052603260045260246000fd5b602002602001015190506000848381518110610da157634e487b7160e01b600052603260045260246000fd5b602090810291909101810151600084815280835260408082206001600160a01b038c168352909352919091205490915081811015610df15760405162461bcd60e51b815260040161024190611a8f565b610dfb8282611e84565b6000938452602084815260408086206001600160a01b038c1687529091529093209290925550819050610e2d81611f03565b915050610d4a565b5060006001600160a01b0316846001600160a01b0316826001600160a01b03167f4a39dc06d4c0dbc64b70af90fd698a233a518aa5d07e595d983b8c0526c8f7fb8686604051610e8692919061192c565b60405180910390a450505050565b6001600160a01b038416610eba5760405162461bcd60e51b815260040161024190611dd4565b6000610ec4610bac565b9050610ed6816000876108c588610f74565b6000848152602081815260408083206001600160a01b038916845290915281208054859290610f06908490611e6c565b92505081905550846001600160a01b031660006001600160a01b0316826001600160a01b03167fc3d58168c5ae7397731d063d5bbf3d657854427343f4c083240f7aacaa2d0f628787604051610f5d929190611e3a565b60405180910390a4610ba581600087878787610fcd565b60408051600180825281830190925260609160009190602080830190803683370190505090508281600081518110610fbc57634e487b7160e01b600052603260045260246000fd5b602090810291909101015292915050565b610fdf846001600160a01b03166111b7565b156105fa5760405163f23a6e6160e01b81526001600160a01b0385169063f23a6e619061101890899089908890889088906004016118d6565b602060405180830381600087803b15801561103257600080fd5b505af1925050508015611062575060408051601f3d908101601f1916820190925261105f91810190611771565b60015b61106e57610c52611f4a565b6001600160e01b0319811663f23a6e6160e01b146109c75760405162461bcd60e51b8152600401610241906119d5565b6001600160a01b0383166110c45760405162461bcd60e51b815260040161024190611c03565b60006110ce610bac565b90506110fe818560006110e087610f74565b6110e987610f74565b604051806020016040528060008152506105fa565b6000838152602081815260408083206001600160a01b03881684529091529020548281101561113f5760405162461bcd60e51b815260040161024190611a8f565b6111498382611e84565b6000858152602081815260408083206001600160a01b03808b16808652919093528184209490945551919291908516907fc3d58168c5ae7397731d063d5bbf3d657854427343f4c083240f7aacaa2d0f62906111a89089908990611e3a565b60405180910390a45050505050565b3b151590565b8280546111c990611e9b565b90600052602060002090601f0160209004810192826111eb5760008555611231565b82601f1061120457805160ff1916838001178555611231565b82800160010185558215611231579182015b82811115611231578251825591602001919060010190611216565b5061123d929150611241565b5090565b5b8082111561123d5760008155600101611242565b600067ffffffffffffffff83111561127057611270611f34565b604051611287601f8501601f191660200182611ed6565b80915083815284848401111561129c57600080fd5b83836020830137600060208583010152509392505050565b80356001600160a01b03811681146102e557600080fd5b600082601f8301126112db578081fd5b813560206112e882611e48565b6040516112f58282611ed6565b838152828101915085830183850287018401881015611312578586fd5b855b8581101561133057813584529284019290840190600101611314565b5090979650505050505050565b600082601f83011261134d578081fd5b61135c83833560208501611256565b9392505050565b60008060408385031215611375578182fd5b61137e836112b4565b915061138c602084016112b4565b90509250929050565b600080600080600060a086880312156113ac578081fd5b6113b5866112b4565b94506113c3602087016112b4565b9350604086013567ffffffffffffffff808211156113df578283fd5b6113eb89838a016112cb565b94506060880135915080821115611400578283fd5b61140c89838a016112cb565b93506080880135915080821115611421578283fd5b5061142e8882890161133d565b9150509295509295909350565b600080600080600060a08688031215611452578081fd5b61145b866112b4565b9450611469602087016112b4565b93506040860135925060608601359150608086013567ffffffffffffffff811115611492578182fd5b61142e8882890161133d565b6000806000606084860312156114b2578283fd5b6114bb846112b4565b9250602084013567ffffffffffffffff808211156114d7578384fd5b6114e3878388016112cb565b935060408601359150808211156114f8578283fd5b50611505868287016112cb565b9150509250925092565b60008060008060808587031215611524578384fd5b61152d856112b4565b9350602085013567ffffffffffffffff80821115611549578485fd5b611555888389016112cb565b9450604087013591508082111561156a578384fd5b611576888389016112cb565b9350606087013591508082111561158b578283fd5b506115988782880161133d565b91505092959194509250565b600080604083850312156115b6578182fd5b6115bf836112b4565b9150602083013580151581146115d3578182fd5b809150509250929050565b600080604083850312156115f0578182fd5b6115f9836112b4565b946020939093013593505050565b60008060006060848603121561161b578081fd5b611624846112b4565b95602085013595506040909401359392505050565b6000806000806080858703121561164e578182fd5b611657856112b4565b93506020850135925060408501359150606085013567ffffffffffffffff811115611680578182fd5b6115988782880161133d565b6000806040838503121561169e578182fd5b823567ffffffffffffffff808211156116b5578384fd5b818501915085601f8301126116c8578384fd5b813560206116d582611e48565b6040516116e28282611ed6565b8381528281019150858301838502870184018b10156116ff578889fd5b8896505b8487101561172857611714816112b4565b835260019690960195918301918301611703565b509650508601359250508082111561173e578283fd5b5061174b858286016112cb565b9150509250929050565b600060208284031215611766578081fd5b813561135c81611ff3565b600060208284031215611782578081fd5b815161135c81611ff3565b60006020828403121561179e578081fd5b813567ffffffffffffffff8111156117b4578182fd5b8201601f810184136117c4578182fd5b6117d384823560208401611256565b949350505050565b6000602082840312156117ec578081fd5b5035919050565b6000815180845260208085019450808401835b8381101561182257815187529582019590820190600101611806565b509495945050505050565b60008151808452815b8181101561185257602081850181015186830182015201611836565b818111156118635782602083870101525b50601f01601f19169290920160200192915050565b60006001600160a01b03808816835280871660208401525060a060408301526118a460a08301866117f3565b82810360608401526118b681866117f3565b905082810360808401526118ca818561182d565b98975050505050505050565b60006001600160a01b03808816835280871660208401525084604083015283606083015260a0608083015261190e60a083018461182d565b979650505050505050565b60006020825261135c60208301846117f3565b60006040825261193f60408301856117f3565b828103602084015261195181856117f3565b95945050505050565b901515815260200190565b60006020825261135c602083018461182d565b60208082526034908201527f455243313135353a207472616e7366657220746f206e6f6e204552433131353560408201527f526563656976657220696d706c656d656e746572000000000000000000000000606082015260800190565b60208082526028908201527f455243313135353a204552433131353552656365697665722072656a6563746560408201527f6420746f6b656e73000000000000000000000000000000000000000000000000606082015260800190565b6020808252602b908201527f455243313135353a2062616c616e636520717565727920666f7220746865207a60408201527f65726f2061646472657373000000000000000000000000000000000000000000606082015260800190565b60208082526024908201527f455243313135353a206275726e20616d6f756e7420657863656564732062616c60408201527f616e636500000000000000000000000000000000000000000000000000000000606082015260800190565b60208082526029908201527f455243313135353a2063616c6c6572206973206e6f74206f776e6572206e6f7260408201527f20617070726f7665640000000000000000000000000000000000000000000000606082015260800190565b60208082526025908201527f455243313135353a207472616e7366657220746f20746865207a65726f20616460408201527f6472657373000000000000000000000000000000000000000000000000000000606082015260800190565b60208082526032908201527f455243313135353a207472616e736665722063616c6c6572206973206e6f742060408201527f6f776e6572206e6f7220617070726f7665640000000000000000000000000000606082015260800190565b60208082526023908201527f455243313135353a206275726e2066726f6d20746865207a65726f206164647260408201527f6573730000000000000000000000000000000000000000000000000000000000606082015260800190565b6020808252602a908201527f455243313135353a20696e73756666696369656e742062616c616e636520666f60408201527f72207472616e7366657200000000000000000000000000000000000000000000606082015260800190565b60208082526029908201527f455243313135353a2073657474696e6720617070726f76616c2073746174757360408201527f20666f722073656c660000000000000000000000000000000000000000000000606082015260800190565b60208082526029908201527f455243313135353a206163636f756e747320616e6420696473206c656e67746860408201527f206d69736d617463680000000000000000000000000000000000000000000000606082015260800190565b60208082526028908201527f455243313135353a2069647320616e6420616d6f756e7473206c656e6774682060408201527f6d69736d61746368000000000000000000000000000000000000000000000000606082015260800190565b60208082526021908201527f455243313135353a206d696e7420746f20746865207a65726f2061646472657360408201527f7300000000000000000000000000000000000000000000000000000000000000606082015260800190565b90815260200190565b918252602082015260400190565b600067ffffffffffffffff821115611e6257611e62611f34565b5060209081020190565b60008219821115611e7f57611e7f611f1e565b500190565b600082821015611e9657611e96611f1e565b500390565b600281046001821680611eaf57607f821691505b60208210811415611ed057634e487b7160e01b600052602260045260246000fd5b50919050565b601f8201601f1916810167ffffffffffffffff81118282101715611efc57611efc611f34565b6040525050565b6000600019821415611f1757611f17611f1e565b5060010190565b634e487b7160e01b600052601160045260246000fd5b634e487b7160e01b600052604160045260246000fd5b600060033d1115610bae57600481823e5160e01c90565b600060443d1015611f7157610bae565b6040516003193d81016004833e81513d67ffffffffffffffff8160248401118184111715611fa3575050505050610bae565b8285019150815181811115611fbd57505050505050610bae565b843d8701016020828501011115611fd957505050505050610bae565b611fe860208286010187611ed6565b509094505050505090565b6001600160e01b0319811681146102f357600080fdfea264697066735822122013e368bc4d5c6d11759ee5f46e504ea16dfdf6dc9d65e4a296ff1567fd82157a64736f6c63430008010033",
  "linkReferences": {},
  "deployedLinkReferences": {}
}