{
  "_format": "hh-sol-artifact-1",
  "contractName": "ERC721Mock",
  "sourceName": "contracts/mocks/ERC721Mock.sol",
  "abi": [
    {
      "inputs": [
        {
          "internalType": "string",
          "name": "name",
          "type": "string"
        },
        {
          "internalType": "string",
          "name": "symbol",
          "type": "string"
        }
      ],
      "stateMutability": "nonpayable",
      "type": "constructor"
    },
    {
      "anonymous": false,
      "inputs": [
        {
          "indexed": true,
          "internalType": "address",
          "name": "owner",
          "type": "address"
        },
        {
          "indexed": true,
          "internalType": "address",
          "name": "approved",
          "type": "address"
        },
        {
          "indexed": true,
          "internalType": "uint256",
          "name": "tokenId",
          "type": "uint256"
        }
      ],
      "name": "Approval",
      "type": "event"
    },
    {
      "anonymous": false,
      "inputs": [
        {
          "indexed": true,
          "internalType": "address",
          "name": "owner",
          "type": "address"
        },
        {
          "indexed": true,
          "internalType": "address",
          "name": "operator",
          "type": "address"
        },
        {
          "indexed": false,
          "internalType": "bool",
          "name": "approved",
          "type": "bool"
        }
      ],
      "name": "ApprovalForAll",
      "type": "event"
    },
    {
      "anonymous": false,
      "inputs": [
        {
          "indexed": true,
          "internalType": "address",
          "name": "from",
          "type": "address"
        },
        {
          "indexed": true,
          "internalType": "address",
          "name": "to",
          "type": "address"
        },
        {
          "indexed": true,
          "internalType": "uint256",
          "name": "tokenId",
          "type": "uint256"
        }
      ],
      "name": "Transfer",
      "type": "event"
    },
    {
      "inputs": [
        {
          "internalType": "address",
          "name": "to",
          "type": "address"
        },
        {
          "internalType": "uint256",
          "name": "tokenId",
          "type": "uint256"
        }
      ],
      "name": "approve",
      "outputs": [],
      "stateMutability": "nonpayable",
      "type": "function"
    },
    {
      "inputs": [
        {
          "internalType": "address",
          "name": "owner",
          "type": "address"
        }
      ],
      "name": "balanceOf",
      "outputs": [
        {
          "internalType": "uint256",
          "name": "",
          "type": "uint256"
        }
      ],
      "stateMutability": "view",
      "type": "function"
    },
    {
      "inputs": [
        {
          "internalType": "uint256",
          "name": "tokenId",
          "type": "uint256"
        }
      ],
      "name": "burn",
      "outputs": [],
      "stateMutability": "nonpayable",
      "type": "function"
    },
    {
      "inputs": [
        {
          "internalType": "uint256",
          "name": "tokenId",
          "type": "uint256"
        }
      ],
      "name": "exists",
      "outputs": [
        {
          "internalType": "bool",
          "name": "",
          "type": "bool"
        }
      ],
      "stateMutability": "view",
      "type": "function"
    },
    {
      "inputs": [
        {
          "internalType": "uint256",
          "name": "tokenId",
          "type": "uint256"
        }
      ],
      "name": "getApproved",
      "outputs": [
        {
          "internalType": "address",
          "name": "",
          "type": "address"
        }
      ],
      "stateMutability": "view",
      "type": "function"
    },
    {
      "inputs": [
        {
          "internalType": "address",
          "name": "owner",
          "type": "address"
        },
        {
          "internalType": "address",
          "name": "operator",
          "type": "address"
        }
      ],
      "name": "isApprovedForAll",
      "outputs": [
        {
          "internalType": "bool",
          "name": "",
          "type": "bool"
        }
      ],
      "stateMutability": "view",
      "type": "function"
    },
    {
      "inputs": [
        {
          "internalType": "address",
          "name": "to",
          "type": "address"
        },
        {
          "internalType": "uint256",
          "name": "tokenId",
          "type": "uint256"
        }
      ],
      "name": "mint",
      "outputs": [],
      "stateMutability": "nonpayable",
      "type": "function"
    },
    {
      "inputs": [],
      "name": "name",
      "outputs": [
        {
          "internalType": "string",
          "name": "",
          "type": "string"
        }
      ],
      "stateMutability": "view",
      "type": "function"
    },
    {
      "inputs": [
        {
          "internalType": "uint256",
          "name": "tokenId",
          "type": "uint256"
        }
      ],
      "name": "ownerOf",
      "outputs": [
        {
          "internalType": "address",
          "name": "",
          "type": "address"
        }
      ],
      "stateMutability": "view",
      "type": "function"
    },
    {
      "inputs": [
        {
          "internalType": "address",
          "name": "to",
          "type": "address"
        },
        {
          "internalType": "uint256",
          "name": "tokenId",
          "type": "uint256"
        },
        {
          "internalType": "bytes",
          "name": "_data",
          "type": "bytes"
        }
      ],
      "name": "safeMint",
      "outputs": [],
      "stateMutability": "nonpayable",
      "type": "function"
    },
    {
      "inputs": [
        {
          "internalType": "address",
          "name": "to",
          "type": "address"
        },
        {
          "internalType": "uint256",
          "name": "tokenId",
          "type": "uint256"
        }
      ],
      "name": "safeMint",
      "outputs": [],
      "stateMutability": "nonpayable",
      "type": "function"
    },
    {
      "inputs": [
        {
          "internalType": "address",
          "name": "from",
          "type": "address"
        },
        {
          "internalType": "address",
          "name": "to",
          "type": "address"
        },
        {
          "internalType": "uint256",
          "name": "tokenId",
          "type": "uint256"
        }
      ],
      "name": "safeTransferFrom",
      "outputs": [],
      "stateMutability": "nonpayable",
      "type": "function"
    },
    {
      "inputs": [
        {
          "internalType": "address",
          "name": "from",
          "type": "address"
        },
        {
          "internalType": "address",
          "name": "to",
          "type": "address"
        },
        {
          "internalType": "uint256",
          "name": "tokenId",
          "type": "uint256"
        },
        {
          "internalType": "bytes",
          "name": "_data",
          "type": "bytes"
        }
      ],
      "name": "safeTransferFrom",
      "outputs": [],
      "stateMutability": "nonpayable",
      "type": "function"
    },
    {
      "inputs": [
        {
          "internalType": "address",
          "name": "operator",
          "type": "address"
        },
        {
          "internalType": "bool",
          "name": "approved",
          "type": "bool"
        }
      ],
      "name": "setApprovalForAll",
      "outputs": [],
      "stateMutability": "nonpayable",
      "type": "function"
    },
    {
      "inputs": [
        {
          "internalType": "bytes4",
          "name": "interfaceId",
          "type": "bytes4"
        }
      ],
      "name": "supportsInterface",
      "outputs": [
        {
          "internalType": "bool",
          "name": "",
          "type": "bool"
        }
      ],
      "stateMutability": "view",
      "type": "function"
    },
    {
      "inputs": [],
      "name": "symbol",
      "outputs": [
        {
          "internalType": "string",
          "name": "",
          "type": "string"
        }
      ],
      "stateMutability": "view",
      "type": "function"
    },
    {
      "inputs": [
        {
          "internalType": "uint256",
          "name": "tokenId",
          "type": "uint256"
        }
      ],
      "name": "tokenURI",
      "outputs": [
        {
          "internalType": "string",
          "name": "",
          "type": "string"
        }
      ],
      "stateMutability": "view",
      "type": "function"
    },
    {
      "inputs": [
        {
          "internalType": "address",
          "name": "from",
          "type": "address"
        },
        {
          "internalType": "address",
          "name": "to",
          "type": "address"
        },
        {
          "internalType": "uint256",
          "name": "tokenId",
          "type": "uint256"
        }
      ],
      "name": "transferFrom",
      "outputs": [],
      "stateMutability": "nonpayable",
      "type": "function"
    }
  ],
  "bytecode": "0x60806040523480156200001157600080fd5b5060405162001aa238038062001aa28339810160408190526200003491620001c7565b8151829082906200004d9060009060208501906200006e565b508051620000639060019060208401906200006e565b505050505062000281565b8280546200007c906200022e565b90600052602060002090601f016020900481019282620000a05760008555620000eb565b82601f10620000bb57805160ff1916838001178555620000eb565b82800160010185558215620000eb579182015b82811115620000eb578251825591602001919060010190620000ce565b50620000f9929150620000fd565b5090565b5b80821115620000f95760008155600101620000fe565b600082601f83011262000125578081fd5b81516001600160401b03808211156200014257620001426200026b565b604051601f8301601f19908116603f011681019082821181831017156200016d576200016d6200026b565b8160405283815260209250868385880101111562000189578485fd5b8491505b83821015620001ac57858201830151818301840152908201906200018d565b83821115620001bd57848385830101525b9695505050505050565b60008060408385031215620001da578182fd5b82516001600160401b0380821115620001f1578384fd5b620001ff8683870162000114565b9350602085015191508082111562000215578283fd5b50620002248582860162000114565b9150509250929050565b6002810460018216806200024357607f821691505b602082108114156200026557634e487b7160e01b600052602260045260246000fd5b50919050565b634e487b7160e01b600052604160045260246000fd5b61181180620002916000396000f3fe608060405234801561001057600080fd5b50600436106101365760003560e01c80636352211e116100b2578063a144819411610081578063b88d4fde11610066578063b88d4fde14610281578063c87b56dd14610294578063e985e9c5146102a757610136565b8063a14481941461025b578063a22cb4651461026e57610136565b80636352211e1461020d57806370a08231146102205780638832e6e31461024057806395d89b411461025357610136565b806323b872dd1161010957806342842e0e116100ee57806342842e0e146101d457806342966c68146101e75780634f558e79146101fa57610136565b806323b872dd146101ae57806340c10f19146101c157610136565b806301ffc9a71461013b57806306fdde0314610164578063081812fc14610179578063095ea7b314610199575b600080fd5b61014e610149366004611108565b6102ba565b60405161015b9190611203565b60405180910390f35b61016c610334565b60405161015b919061120e565b61018c610187366004611140565b6103c6565b60405161015b91906111b3565b6101ac6101a736600461108a565b610412565b005b6101ac6101bc366004610faf565b6104aa565b6101ac6101cf36600461108a565b6104e2565b6101ac6101e2366004610faf565b6104f0565b6101ac6101f5366004611140565b61050b565b61014e610208366004611140565b610517565b61018c61021b366004611140565b610522565b61023361022e366004610f63565b610557565b60405161015b91906116a1565b6101ac61024e3660046110b3565b61059b565b61016c6105a6565b6101ac61026936600461108a565b6105b5565b6101ac61027c366004611050565b6105bf565b6101ac61028f366004610fea565b61068d565b61016c6102a2366004611140565b6106cc565b61014e6102b5366004610f7d565b61074f565b60006001600160e01b031982167f80ac58cd00000000000000000000000000000000000000000000000000000000148061031d57506001600160e01b031982167f5b5e139f00000000000000000000000000000000000000000000000000000000145b8061032c575061032c8261077d565b90505b919050565b60606000805461034390611719565b80601f016020809104026020016040519081016040528092919081815260200182805461036f90611719565b80156103bc5780601f10610391576101008083540402835291602001916103bc565b820191906000526020600020905b81548152906001019060200180831161039f57829003601f168201915b5050505050905090565b60006103d1826107af565b6103f65760405162461bcd60e51b81526004016103ed906114e1565b60405180910390fd5b506000908152600460205260409020546001600160a01b031690565b600061041d82610522565b9050806001600160a01b0316836001600160a01b031614156104515760405162461bcd60e51b81526004016103ed906115e7565b806001600160a01b03166104636107cc565b6001600160a01b0316148061047f575061047f816102b56107cc565b61049b5760405162461bcd60e51b81526004016103ed90611395565b6104a583836107d0565b505050565b6104bb6104b56107cc565b8261084b565b6104d75760405162461bcd60e51b81526004016103ed90611644565b6104a58383836108d0565b6104ec8282610a0a565b5050565b6104a58383836040518060200160405280600081525061068d565b61051481610af6565b50565b600061032c826107af565b6000818152600260205260408120546001600160a01b03168061032c5760405162461bcd60e51b81526004016103ed9061144f565b60006001600160a01b03821661057f5760405162461bcd60e51b81526004016103ed906113f2565b506001600160a01b031660009081526003602052604090205490565b6104a5838383610baa565b60606001805461034390611719565b6104ec8282610bdd565b6105c76107cc565b6001600160a01b0316826001600160a01b031614156105f85760405162461bcd60e51b81526004016103ed90611312565b80600560006106056107cc565b6001600160a01b03908116825260208083019390935260409182016000908120918716808252919093529120805460ff1916921515929092179091556106496107cc565b6001600160a01b03167f17307eab39ab6107e8899845ad3d59bd9653f200f220920489ca2b5937696c31836040516106819190611203565b60405180910390a35050565b61069e6106986107cc565b8361084b565b6106ba5760405162461bcd60e51b81526004016103ed90611644565b6106c684848484610bf7565b50505050565b60606106d7826107af565b6106f35760405162461bcd60e51b81526004016103ed9061158a565b60006106fd610c2a565b9050600081511161071d5760405180602001604052806000815250610748565b8061072784610c3c565b604051602001610738929190611184565b6040516020818303038152906040525b9392505050565b6001600160a01b03918216600090815260056020908152604080832093909416825291909152205460ff1690565b6001600160e01b031981167f01ffc9a70000000000000000000000000000000000000000000000000000000014919050565b6000908152600260205260409020546001600160a01b0316151590565b3390565b6000818152600460205260409020805473ffffffffffffffffffffffffffffffffffffffff19166001600160a01b038416908117909155819061081282610522565b6001600160a01b03167f8c5be1e5ebec7d5bd14f71427d1e84f3dd0314c0f7b2291e5b200ac8c7c3b92560405160405180910390a45050565b6000610856826107af565b6108725760405162461bcd60e51b81526004016103ed90611349565b600061087d83610522565b9050806001600160a01b0316846001600160a01b031614806108b85750836001600160a01b03166108ad846103c6565b6001600160a01b0316145b806108c857506108c8818561074f565b949350505050565b826001600160a01b03166108e382610522565b6001600160a01b0316146109095760405162461bcd60e51b81526004016103ed9061152d565b6001600160a01b03821661092f5760405162461bcd60e51b81526004016103ed906112b5565b61093a8383836104a5565b6109456000826107d0565b6001600160a01b038316600090815260036020526040812080546001929061096e9084906116d6565b90915550506001600160a01b038216600090815260036020526040812080546001929061099c9084906116aa565b9091555050600081815260026020526040808220805473ffffffffffffffffffffffffffffffffffffffff19166001600160a01b0386811691821790925591518493918716917fddf252ad1be2c89b69c2b068fc378daa952ba7f163c4a11628f55a4df523b3ef91a4505050565b6001600160a01b038216610a305760405162461bcd60e51b81526004016103ed906114ac565b610a39816107af565b15610a565760405162461bcd60e51b81526004016103ed9061127e565b610a62600083836104a5565b6001600160a01b0382166000908152600360205260408120805460019290610a8b9084906116aa565b9091555050600081815260026020526040808220805473ffffffffffffffffffffffffffffffffffffffff19166001600160a01b03861690811790915590518392907fddf252ad1be2c89b69c2b068fc378daa952ba7f163c4a11628f55a4df523b3ef908290a45050565b6000610b0182610522565b9050610b0f816000846104a5565b610b1a6000836107d0565b6001600160a01b0381166000908152600360205260408120805460019290610b439084906116d6565b9091555050600082815260026020526040808220805473ffffffffffffffffffffffffffffffffffffffff19169055518391906001600160a01b038416907fddf252ad1be2c89b69c2b068fc378daa952ba7f163c4a11628f55a4df523b3ef908390a45050565b610bb48383610a0a565b610bc16000848484610d8b565b6104a55760405162461bcd60e51b81526004016103ed90611221565b6104ec828260405180602001604052806000815250610baa565b610c028484846108d0565b610c0e84848484610d8b565b6106c65760405162461bcd60e51b81526004016103ed90611221565b60408051602081019091526000815290565b606081610c7d575060408051808201909152600181527f3000000000000000000000000000000000000000000000000000000000000000602082015261032f565b8160005b8115610ca75780610c9181611754565b9150610ca09050600a836116c2565b9150610c81565b60008167ffffffffffffffff811115610cd057634e487b7160e01b600052604160045260246000fd5b6040519080825280601f01601f191660200182016040528015610cfa576020820181803683370190505b5090505b84156108c857610d0f6001836116d6565b9150610d1c600a8661176f565b610d279060306116aa565b60f81b818381518110610d4a57634e487b7160e01b600052603260045260246000fd5b60200101907effffffffffffffffffffffffffffffffffffffffffffffffffffffffffffff1916908160001a905350610d84600a866116c2565b9450610cfe565b6000610d9f846001600160a01b0316610ebf565b15610eb457836001600160a01b031663150b7a02610dbb6107cc565b8786866040518563ffffffff1660e01b8152600401610ddd94939291906111c7565b602060405180830381600087803b158015610df757600080fd5b505af1925050508015610e27575060408051601f3d908101601f19168201909252610e2491810190611124565b60015b610e81573d808015610e55576040519150601f19603f3d011682016040523d82523d6000602084013e610e5a565b606091505b508051610e795760405162461bcd60e51b81526004016103ed90611221565b805181602001fd5b6001600160e01b0319167f150b7a02000000000000000000000000000000000000000000000000000000001490506108c8565b506001949350505050565b3b151590565b80356001600160a01b038116811461032f57600080fd5b600082601f830112610eec578081fd5b813567ffffffffffffffff80821115610f0757610f076117af565b604051601f8301601f19908116603f01168101908282118183101715610f2f57610f2f6117af565b81604052838152866020858801011115610f47578485fd5b8360208701602083013792830160200193909352509392505050565b600060208284031215610f74578081fd5b61074882610ec5565b60008060408385031215610f8f578081fd5b610f9883610ec5565b9150610fa660208401610ec5565b90509250929050565b600080600060608486031215610fc3578081fd5b610fcc84610ec5565b9250610fda60208501610ec5565b9150604084013590509250925092565b60008060008060808587031215610fff578081fd5b61100885610ec5565b935061101660208601610ec5565b925060408501359150606085013567ffffffffffffffff811115611038578182fd5b61104487828801610edc565b91505092959194509250565b60008060408385031215611062578182fd5b61106b83610ec5565b91506020830135801515811461107f578182fd5b809150509250929050565b6000806040838503121561109c578182fd5b6110a583610ec5565b946020939093013593505050565b6000806000606084860312156110c7578283fd5b6110d084610ec5565b925060208401359150604084013567ffffffffffffffff8111156110f2578182fd5b6110fe86828701610edc565b9150509250925092565b600060208284031215611119578081fd5b8135610748816117c5565b600060208284031215611135578081fd5b8151610748816117c5565b600060208284031215611151578081fd5b5035919050565b600081518084526111708160208601602086016116ed565b601f01601f19169290920160200192915050565b600083516111968184602088016116ed565b8351908301906111aa8183602088016116ed565b01949350505050565b6001600160a01b0391909116815260200190565b60006001600160a01b038087168352808616602084015250836040830152608060608301526111f96080830184611158565b9695505050505050565b901515815260200190565b6000602082526107486020830184611158565b60208082526032908201527f4552433732313a207472616e7366657220746f206e6f6e20455243373231526560408201527f63656976657220696d706c656d656e7465720000000000000000000000000000606082015260800190565b6020808252601c908201527f4552433732313a20746f6b656e20616c7265616479206d696e74656400000000604082015260600190565b60208082526024908201527f4552433732313a207472616e7366657220746f20746865207a65726f2061646460408201527f7265737300000000000000000000000000000000000000000000000000000000606082015260800190565b60208082526019908201527f4552433732313a20617070726f766520746f2063616c6c657200000000000000604082015260600190565b6020808252602c908201527f4552433732313a206f70657261746f7220717565727920666f72206e6f6e657860408201526b34b9ba32b73a103a37b5b2b760a11b606082015260800190565b60208082526038908201527f4552433732313a20617070726f76652063616c6c6572206973206e6f74206f7760408201527f6e6572206e6f7220617070726f76656420666f7220616c6c0000000000000000606082015260800190565b6020808252602a908201527f4552433732313a2062616c616e636520717565727920666f7220746865207a6560408201527f726f206164647265737300000000000000000000000000000000000000000000606082015260800190565b60208082526029908201527f4552433732313a206f776e657220717565727920666f72206e6f6e657869737460408201527f656e7420746f6b656e0000000000000000000000000000000000000000000000606082015260800190565b6020808252818101527f4552433732313a206d696e7420746f20746865207a65726f2061646472657373604082015260600190565b6020808252602c908201527f4552433732313a20617070726f76656420717565727920666f72206e6f6e657860408201526b34b9ba32b73a103a37b5b2b760a11b606082015260800190565b60208082526029908201527f4552433732313a207472616e73666572206f6620746f6b656e2074686174206960408201527f73206e6f74206f776e0000000000000000000000000000000000000000000000606082015260800190565b6020808252602f908201527f4552433732314d657461646174613a2055524920717565727920666f72206e6f60408201527f6e6578697374656e7420746f6b656e0000000000000000000000000000000000606082015260800190565b60208082526021908201527f4552433732313a20617070726f76616c20746f2063757272656e74206f776e6560408201527f7200000000000000000000000000000000000000000000000000000000000000606082015260800190565b60208082526031908201527f4552433732313a207472616e736665722063616c6c6572206973206e6f74206f60408201527f776e6572206e6f7220617070726f766564000000000000000000000000000000606082015260800190565b90815260200190565b600082198211156116bd576116bd611783565b500190565b6000826116d1576116d1611799565b500490565b6000828210156116e8576116e8611783565b500390565b60005b838110156117085781810151838201526020016116f0565b838111156106c65750506000910152565b60028104600182168061172d57607f821691505b6020821081141561174e57634e487b7160e01b600052602260045260246000fd5b50919050565b600060001982141561176857611768611783565b5060010190565b60008261177e5761177e611799565b500690565b634e487b7160e01b600052601160045260246000fd5b634e487b7160e01b600052601260045260246000fd5b634e487b7160e01b600052604160045260246000fd5b6001600160e01b03198116811461051457600080fdfea26469706673582212204025e05526b5f9dd8f5b7aee9988077d7aff3b25dd1ae07b762d2c1d2dce57a864736f6c63430008010033",
  "linkReferences": {},
  "deployedLinkReferences": {}
}