{
  "_format": "hh-sol-artifact-1",
  "contractName": "BondingCurve",
  "sourceName": "contracts/initializable/old/BondingCurve.sol",
  "abi": [
    {
      "anonymous": false,
      "inputs": [
        {
          "indexed": false,
          "internalType": "uint256",
          "name": "",
          "type": "uint256"
        },
        {
          "indexed": false,
          "internalType": "address",
          "name": "",
          "type": "address"
        }
      ],
      "name": "EtherSupplied",
      "type": "event"
    },
    {
      "anonymous": false,
      "inputs": [
        {
          "indexed": false,
          "internalType": "uint256",
          "name": "",
          "type": "uint256"
        },
        {
          "indexed": false,
          "internalType": "uint256",
          "name": "",
          "type": "uint256"
        },
        {
          "indexed": false,
          "internalType": "address",
          "name": "",
          "type": "address"
        }
      ],
      "name": "EtherWithdrawn",
      "type": "event"
    },
    {
      "anonymous": false,
      "inputs": [
        {
          "indexed": false,
          "internalType": "address",
          "name": "",
          "type": "address"
        },
        {
          "indexed": false,
          "internalType": "address",
          "name": "",
          "type": "address"
        }
      ],
      "name": "Initialized",
      "type": "event"
    },
    {
      "anonymous": false,
      "inputs": [
        {
          "indexed": false,
          "internalType": "uint256",
          "name": "",
          "type": "uint256"
        },
        {
          "indexed": false,
          "internalType": "uint256",
          "name": "",
          "type": "uint256"
        },
        {
          "indexed": false,
          "internalType": "address",
          "name": "",
          "type": "address"
        }
      ],
      "name": "ShardsBought",
      "type": "event"
    },
    {
      "anonymous": false,
      "inputs": [
        {
          "indexed": false,
          "internalType": "uint256",
          "name": "",
          "type": "uint256"
        },
        {
          "indexed": false,
          "internalType": "uint256",
          "name": "",
          "type": "uint256"
        },
        {
          "indexed": false,
          "internalType": "address",
          "name": "",
          "type": "address"
        }
      ],
      "name": "ShardsSold",
      "type": "event"
    },
    {
      "anonymous": false,
      "inputs": [
        {
          "indexed": false,
          "internalType": "uint256",
          "name": "",
          "type": "uint256"
        },
        {
          "indexed": false,
          "internalType": "address",
          "name": "",
          "type": "address"
        }
      ],
      "name": "ShardsSupplied",
      "type": "event"
    },
    {
      "anonymous": false,
      "inputs": [
        {
          "indexed": false,
          "internalType": "uint256",
          "name": "",
          "type": "uint256"
        },
        {
          "indexed": false,
          "internalType": "uint256",
          "name": "",
          "type": "uint256"
        },
        {
          "indexed": false,
          "internalType": "address",
          "name": "",
          "type": "address"
        }
      ],
      "name": "ShardsWithdrawn",
      "type": "event"
    },
    {
      "anonymous": false,
      "inputs": [
        {
          "indexed": false,
          "internalType": "address",
          "name": "",
          "type": "address"
        },
        {
          "indexed": false,
          "internalType": "address",
          "name": "",
          "type": "address"
        },
        {
          "indexed": false,
          "internalType": "uint256",
          "name": "",
          "type": "uint256"
        }
      ],
      "name": "TransferEthLPTokens",
      "type": "event"
    },
    {
      "anonymous": false,
      "inputs": [
        {
          "indexed": false,
          "internalType": "address",
          "name": "",
          "type": "address"
        },
        {
          "indexed": false,
          "internalType": "address",
          "name": "",
          "type": "address"
        },
        {
          "indexed": false,
          "internalType": "uint256",
          "name": "",
          "type": "uint256"
        }
      ],
      "name": "TransferShardLPTokens",
      "type": "event"
    },
    {
      "inputs": [],
      "name": "LIQUIDITY_TIMELOCK",
      "outputs": [
        {
          "internalType": "bytes32",
          "name": "",
          "type": "bytes32"
        }
      ],
      "stateMutability": "view",
      "type": "function"
    },
    {
      "inputs": [],
      "name": "PCT_FEE_ARTIST",
      "outputs": [
        {
          "internalType": "bytes32",
          "name": "",
          "type": "bytes32"
        }
      ],
      "stateMutability": "view",
      "type": "function"
    },
    {
      "inputs": [],
      "name": "PCT_FEE_NIFTEX",
      "outputs": [
        {
          "internalType": "bytes32",
          "name": "",
          "type": "bytes32"
        }
      ],
      "stateMutability": "view",
      "type": "function"
    },
    {
      "inputs": [],
      "name": "PCT_FEE_SUPPLIERS",
      "outputs": [
        {
          "internalType": "bytes32",
          "name": "",
          "type": "bytes32"
        }
      ],
      "stateMutability": "view",
      "type": "function"
    },
    {
      "inputs": [
        {
          "internalType": "uint256",
          "name": "shardAmount",
          "type": "uint256"
        },
        {
          "internalType": "uint256",
          "name": "maxEthForShardAmount",
          "type": "uint256"
        }
      ],
      "name": "buyShards",
      "outputs": [],
      "stateMutability": "payable",
      "type": "function"
    },
    {
      "inputs": [],
      "name": "calcEthForShardSuppliers",
      "outputs": [
        {
          "internalType": "uint256",
          "name": "",
          "type": "uint256"
        }
      ],
      "stateMutability": "view",
      "type": "function"
    },
    {
      "inputs": [
        {
          "internalType": "uint256",
          "name": "addedAmount",
          "type": "uint256"
        }
      ],
      "name": "calcNewEthLPTokensToIssue",
      "outputs": [
        {
          "internalType": "uint256",
          "name": "",
          "type": "uint256"
        }
      ],
      "stateMutability": "view",
      "type": "function"
    },
    {
      "inputs": [
        {
          "internalType": "uint256",
          "name": "addedAmount",
          "type": "uint256"
        }
      ],
      "name": "calcNewShardLPTokensToIssue",
      "outputs": [
        {
          "internalType": "uint256",
          "name": "",
          "type": "uint256"
        }
      ],
      "stateMutability": "view",
      "type": "function"
    },
    {
      "inputs": [],
      "name": "calcShardsForEthSuppliers",
      "outputs": [
        {
          "internalType": "uint256",
          "name": "",
          "type": "uint256"
        }
      ],
      "stateMutability": "view",
      "type": "function"
    },
    {
      "inputs": [],
      "name": "decimals",
      "outputs": [
        {
          "internalType": "uint256",
          "name": "",
          "type": "uint256"
        }
      ],
      "stateMutability": "view",
      "type": "function"
    },
    {
      "inputs": [],
      "name": "getCurrentPrice",
      "outputs": [
        {
          "internalType": "uint256",
          "name": "",
          "type": "uint256"
        }
      ],
      "stateMutability": "view",
      "type": "function"
    },
    {
      "inputs": [],
      "name": "getCurveCoordinates",
      "outputs": [
        {
          "internalType": "uint256",
          "name": "",
          "type": "uint256"
        },
        {
          "internalType": "uint256",
          "name": "",
          "type": "uint256"
        }
      ],
      "stateMutability": "view",
      "type": "function"
    },
    {
      "inputs": [],
      "name": "getEthInPool",
      "outputs": [
        {
          "internalType": "uint256",
          "name": "",
          "type": "uint256"
        }
      ],
      "stateMutability": "view",
      "type": "function"
    },
    {
      "inputs": [
        {
          "internalType": "address",
          "name": "owner",
          "type": "address"
        }
      ],
      "name": "getEthLPTokens",
      "outputs": [
        {
          "internalType": "uint256",
          "name": "",
          "type": "uint256"
        }
      ],
      "stateMutability": "view",
      "type": "function"
    },
    {
      "inputs": [],
      "name": "getEthSuppliers",
      "outputs": [
        {
          "internalType": "uint256",
          "name": "",
          "type": "uint256"
        },
        {
          "internalType": "uint256",
          "name": "",
          "type": "uint256"
        },
        {
          "internalType": "uint256",
          "name": "",
          "type": "uint256"
        },
        {
          "internalType": "uint256",
          "name": "",
          "type": "uint256"
        }
      ],
      "stateMutability": "view",
      "type": "function"
    },
    {
      "inputs": [
        {
          "internalType": "address",
          "name": "owner",
          "type": "address"
        }
      ],
      "name": "getShardLPTokens",
      "outputs": [
        {
          "internalType": "uint256",
          "name": "",
          "type": "uint256"
        }
      ],
      "stateMutability": "view",
      "type": "function"
    },
    {
      "inputs": [],
      "name": "getShardSuppliers",
      "outputs": [
        {
          "internalType": "uint256",
          "name": "",
          "type": "uint256"
        },
        {
          "internalType": "uint256",
          "name": "",
          "type": "uint256"
        },
        {
          "internalType": "uint256",
          "name": "",
          "type": "uint256"
        },
        {
          "internalType": "uint256",
          "name": "",
          "type": "uint256"
        }
      ],
      "stateMutability": "view",
      "type": "function"
    },
    {
      "inputs": [
        {
          "internalType": "uint256",
          "name": "suppliedShards",
          "type": "uint256"
        },
        {
          "internalType": "address",
          "name": "wallet",
          "type": "address"
        },
        {
          "internalType": "address",
          "name": "recipient",
          "type": "address"
        },
        {
          "internalType": "uint256",
          "name": "initialPriceInWei",
          "type": "uint256"
        }
      ],
      "name": "initialize",
      "outputs": [],
      "stateMutability": "payable",
      "type": "function"
    },
    {
      "inputs": [
        {
          "internalType": "uint256",
          "name": "shardAmount",
          "type": "uint256"
        },
        {
          "internalType": "uint256",
          "name": "minEthForShardAmount",
          "type": "uint256"
        }
      ],
      "name": "sellShards",
      "outputs": [],
      "stateMutability": "nonpayable",
      "type": "function"
    },
    {
      "inputs": [],
      "name": "supplyEther",
      "outputs": [],
      "stateMutability": "payable",
      "type": "function"
    },
    {
      "inputs": [
        {
          "internalType": "uint256",
          "name": "shardAmount",
          "type": "uint256"
        }
      ],
      "name": "supplyShards",
      "outputs": [],
      "stateMutability": "nonpayable",
      "type": "function"
    },
    {
      "inputs": [
        {
          "internalType": "uint256",
          "name": "ethLPTokensAmount",
          "type": "uint256"
        },
        {
          "internalType": "address",
          "name": "recipient",
          "type": "address"
        }
      ],
      "name": "transferEthLPTokens",
      "outputs": [],
      "stateMutability": "nonpayable",
      "type": "function"
    },
    {
      "inputs": [
        {
          "internalType": "uint256",
          "name": "shardLPTokensAmount",
          "type": "uint256"
        },
        {
          "internalType": "address",
          "name": "recipient",
          "type": "address"
        }
      ],
      "name": "transferShardLPTokens",
      "outputs": [],
      "stateMutability": "nonpayable",
      "type": "function"
    },
    {
      "inputs": [],
      "name": "transferTimelockLiquidity",
      "outputs": [],
      "stateMutability": "nonpayable",
      "type": "function"
    },
    {
      "inputs": [
        {
          "internalType": "address",
          "name": "recipient",
          "type": "address"
        }
      ],
      "name": "withdrawNiftexOrArtistFees",
      "outputs": [],
      "stateMutability": "nonpayable",
      "type": "function"
    },
    {
      "inputs": [
        {
          "internalType": "uint256",
          "name": "ethLPTokensAmount",
          "type": "uint256"
        }
      ],
      "name": "withdrawSuppliedEther",
      "outputs": [
        {
          "internalType": "uint256",
          "name": "",
          "type": "uint256"
        },
        {
          "internalType": "uint256",
          "name": "",
          "type": "uint256"
        }
      ],
      "stateMutability": "nonpayable",
      "type": "function"
    },
    {
      "inputs": [
        {
          "internalType": "uint256",
          "name": "shardLPTokensAmount",
          "type": "uint256"
        }
      ],
      "name": "withdrawSuppliedShards",
      "outputs": [
        {
          "internalType": "uint256",
          "name": "",
          "type": "uint256"
        },
        {
          "internalType": "uint256",
          "name": "",
          "type": "uint256"
        }
      ],
      "stateMutability": "nonpayable",
      "type": "function"
    }
  ],
  "bytecode": "0x608060405234801561001057600080fd5b50612c3e806100206000396000f3fe6080604052600436106101ac5760003560e01c80637cabec9e116100ec578063d4bd91741161008a578063eb91d37e11610064578063eb91d37e14610432578063efcbead914610447578063f4056f781461045c578063f6a166f514610471576101ac565b8063d4bd9174146103df578063da92b89b146103ff578063e37259e91461041f576101ac565b806393ab6599116100c657806393ab6599146103805780639a0ca43b146103955780639a35fa82146103aa5780639b3c52f1146103bf576101ac565b80637cabec9e1461032057806388beb7d4146103405780638eebe00e14610360576101ac565b8063463f0a6a11610159578063603477e311610133578063603477e3146102ab5780636130aec7146102cb5780636aeb188b146102eb5780637c10016314610300576101ac565b8063463f0a6a1461026e5780635550c4b6146102765780635f8b8db31461028b576101ac565b8063313ce5671161018a578063313ce56714610219578063324937ce1461023b5780634120f88e1461025b576101ac565b80630dda6b5f146101b15780631bb16441146101dd5780631e62d2a6146101f4575b600080fd5b3480156101bd57600080fd5b506101c6610486565b6040516101d4929190612a10565b60405180910390f35b3480156101e957600080fd5b506101f2610490565b005b34801561020057600080fd5b50610209610579565b6040516101d49493929190612a3d565b34801561022557600080fd5b5061022e61058b565b6040516101d4919061295c565b34801561024757600080fd5b506101f2610256366004612839565b610592565b6101f26102693660046128af565b610650565b6101f2610e02565b34801561028257600080fd5b5061022e610ec7565b34801561029757600080fd5b5061022e6102a6366004612809565b610ecb565b3480156102b757600080fd5b506101f26102c63660046127b1565b610f32565b3480156102d757600080fd5b5061022e6102e63660046127b1565b611341565b3480156102f757600080fd5b5061022e61135c565b34801561030c57600080fd5b506101c661031b366004612809565b6113fc565b34801561032c57600080fd5b506101f261033b366004612809565b6115e0565b34801561034c57600080fd5b5061022e61035b3660046127b1565b611715565b34801561036c57600080fd5b506101c661037b366004612809565b611730565b34801561038c57600080fd5b5061022e61195f565b3480156103a157600080fd5b50610209611983565b3480156103b657600080fd5b5061022e611995565b3480156103cb57600080fd5b5061022e6103da366004612809565b6119b9565b3480156103eb57600080fd5b506101f26103fa366004612839565b611a03565b34801561040b57600080fd5b506101f261041a3660046128af565b611ab5565b6101f261042d366004612868565b6121f3565b34801561043e57600080fd5b5061022e6125db565b34801561045357600080fd5b5061022e612607565b34801561046857600080fd5b5061022e61262b565b34801561047d57600080fd5b5061022e61264f565b6000546001549091565b600d54600e546001600160a01b039091169042116104ad57600080fd5b306000908152600a60205260409020541515806104d857503060009081526005602052604090205415155b6104e157600080fd5b306000908152600a6020526040808220546001600160a01b038416835291205461050a91612694565b6001600160a01b0382166000818152600a60209081526040808320949094553082526005905282812054918152919091205461054591612694565b6001600160a01b03909116600090815260056020818152604080842094909455308352600a81528383208390555290812055565b600754600b5460085460095490919293565b600f545b90565b336000908152600560205260409020548211156105ae57600080fd5b336000908152600560205260409020546105c890836126a7565b33600090815260056020526040808220929092556001600160a01b038316815220546105f49083612694565b6001600160a01b0382166000908152600560205260409081902091909155517f164b5736b5698c5cea31ecbaec13048ee7b2d7c7f1fcdd597f3da625e8d76e9d906106449033908490869061291f565b60405180910390a15050565b60008054600154610660916126b3565b905061066a612793565b600c5460408051635aa6e67560e01b815290516000926001600160a01b031691635aa6e675916004808301926020929190829003018186803b1580156106af57600080fd5b505afa1580156106c3573d6000803e3d6000fd5b505050506040513d601f19601f820116820180604052508101906106e791906127cd565b90506000600c60000160009054906101000a90046001600160a01b03166001600160a01b0316638da5cb5b6040518163ffffffff1660e01b815260040160206040518083038186803b15801561073c57600080fd5b505afa158015610750573d6000803e3d6000fd5b505050506040513d601f19601f8201168201806040525081019061077491906127cd565b90506001600160a01b038116158061080b5750600c546040516376e5694160e11b81526001600160a01b038481169263edcad282926107bb92909116908590600401612905565b60206040518083038186803b1580156107d357600080fd5b505afa1580156107e7573d6000803e3d6000fd5b505050506040513d601f19601f8201168201806040525081019061080b91906127e9565b61081457600080fd5b600c54604051627ebcdb60e21b81526001600160a01b03848116926301faf36c9261086792909116907fe4f5729eb40e38b5a39dfb36d76ead9f9bc286f06852595980c5078f1af7e8c990600401612943565b60206040518083038186803b15801561087f57600080fd5b505afa158015610893573d6000803e3d6000fd5b505050506040513d601f19601f820116820180604052508101906108b79190612821565b8352600c54604051627ebcdb60e21b81526001600160a01b03848116926301faf36c9261090c92909116907fcfb1dd89e6f4506eca597e7558fbcfe22dbc7e0b9f2b3956e121d0e344d6f7aa90600401612943565b60206040518083038186803b15801561092457600080fd5b505afa158015610938573d6000803e3d6000fd5b505050506040513d601f19601f8201168201806040525081019061095c9190612821565b6020840152600c54604051627ebcdb60e21b81526001600160a01b03848116926301faf36c926109b492909116907fdd0618e2e2a17ff193a933618181c8f8909dc169e9707cce1921893a88739ca090600401612943565b60206040518083038186803b1580156109cc57600080fd5b505afa1580156109e0573d6000803e3d6000fd5b505050506040513d601f19601f82011682018060405250810190610a049190612821565b604080850191909152600c54815163519a17dd60e11b81529151600094508493506001600160a01b039091169163a3342fba916004808301926020929190829003018186803b158015610a5657600080fd5b505afa158015610a6a573d6000803e3d6000fd5b505050506040513d601f19601f82011682018060405250810190610a8e91906127cd565b6001600160a01b0316141590506000610af0670de0b6b3a7640000610aea610ae3610ac887600160200201518860026020020151886126bf565b8751610add90670de0b6b3a764000090612694565b90612694565b89906126dd565b906126b3565b90506000610b09826000546126a790919063ffffffff16565b90506000610b22826001546126b390919063ffffffff16565b905060008211610b4257634e487b7160e01b600052600160045260246000fd5b60008111610b6057634e487b7160e01b600052600160045260246000fd5b6000610b6c82886126a7565b905080881015610b7b57600080fd5b600954600854600c546040516370a0823160e01b81528793610c13939092610c0d926001600160a01b03909116906370a0823190610bbd9030906004016128f1565b60206040518083038186803b158015610bd557600080fd5b505afa158015610be9573d6000803e3d6000fd5b505050506040513d601f19601f82011682018060405250810190610c0d9190612821565b906126a7565b1015610c1e57600080fd5b34811115610c2b57600080fd5b610c78610c6f670de0b6b3a7640000610aea610c68610c598b600160200201518c600260200201518c6126bf565b670de0b6b3a764000090612694565b8d906126dd565b600054906126a7565b600081905550610cc6610cbd670de0b6b3a7640000610aea89600060038110610cb157634e487b7160e01b600052603260045260246000fd5b60200201518d906126dd565b60075490612694565b600755610cec610ce3670de0b6b3a7640000610aea896001610cb1565b60085490612694565b6008558415610d1c57610d18610d0f670de0b6b3a7640000610aea896002610cb1565b60095490612694565b6009555b600c5460405163a9059cbb60e01b81526001600160a01b039091169063a9059cbb90610d4e9033908d90600401612943565b602060405180830381600087803b158015610d6857600080fd5b505af1158015610d7c573d6000803e3d6000fd5b505050506040513d601f19601f82011682018060405250810190610da091906127e9565b5080341115610dbc57610dbc33610db734846126a7565b6126e9565b7f65b105831cfc6074aef31673286cdc39c55e8563e18a1e04a9a5f13cefe2c271898233604051610def93929190612a1e565b60405180910390a1505050505050505050565b60003411610e0f57600080fd5b47610e276000546001546126b390919063ffffffff16565b1015610e3257600080fd5b6000610e3d34610ecb565b33600090815260056020526040902054909150610e5a9082612694565b33600090815260056020526040902055600654610e779082612694565b600655600254610e879034612694565b6002556040517f9efb45da5a1ec84b79982a1a10193e39bb0238bce4bbd6cb4b97d42e51b8437290610ebc90349033906129f9565b60405180910390a150565b4790565b60025460009080610edf5782915050610f2d565b6000610f00610eee8386612694565b610aea86670de0b6b3a76400006126dd565b90506000610f27610f19670de0b6b3a7640000846126a7565b600654610aea9085906126dd565b93505050505b919050565b600c546040805163519a17dd60e11b815290516001600160a01b039092169163a3342fba91600480820192602092909190829003018186803b158015610f7757600080fd5b505afa158015610f8b573d6000803e3d6000fd5b505050506040513d601f19601f82011682018060405250810190610faf91906127cd565b6001600160a01b0316336001600160a01b031614806110cb5750600c5460408051635aa6e67560e01b815290516001600160a01b0390921691635aa6e67591600480820192602092909190829003018186803b15801561100e57600080fd5b505afa158015611022573d6000803e3d6000fd5b505050506040513d601f19601f8201168201806040525081019061104691906127cd565b6001600160a01b0316630927d6046040518163ffffffff1660e01b815260040160206040518083038186803b15801561107e57600080fd5b505afa158015611092573d6000803e3d6000fd5b505050506040513d601f19601f820116820180604052508101906110b691906127cd565b6001600160a01b0316336001600160a01b0316145b6110d457600080fd5b600080600c60000160009054906101000a90046001600160a01b03166001600160a01b031663a3342fba6040518163ffffffff1660e01b815260040160206040518083038186803b15801561112857600080fd5b505afa15801561113c573d6000803e3d6000fd5b505050506040513d601f19601f8201168201806040525081019061116091906127cd565b6001600160a01b0316336001600160a01b031614156111925750506009805460048054600093849055929055906112ad565b600c5460408051635aa6e67560e01b815290516001600160a01b0390921691635aa6e67591600480820192602092909190829003018186803b1580156111d757600080fd5b505afa1580156111eb573d6000803e3d6000fd5b505050506040513d601f19601f8201168201806040525081019061120f91906127cd565b6001600160a01b0316630927d6046040518163ffffffff1660e01b815260040160206040518083038186803b15801561124757600080fd5b505afa15801561125b573d6000803e3d6000fd5b505050506040513d601f19601f8201168201806040525081019061127f91906127cd565b6001600160a01b0316336001600160a01b031614156112ad5750506008805460038054600093849055929055905b6112b783826126e9565b600c5460405163a9059cbb60e01b81526001600160a01b039091169063a9059cbb906112e99086908690600401612943565b602060405180830381600087803b15801561130357600080fd5b505af1158015611317573d6000803e3d6000fd5b505050506040513d601f19601f8201168201806040525081019061133b91906127e9565b50505050565b6001600160a01b031660009081526005602052604090205490565b600754600954600854600c546040516370a0823160e01b8152600094936113a3939092610c0d926001600160a01b03909116906370a0823190610bbd9030906004016128f1565b10156113b15750600061058f565b600754600954600854600c546040516370a0823160e01b81526113f79493610c0d93909284926001600160a01b03909116906370a0823190610bbd9030906004016128f1565b905090565b6000806000831161140c57600080fd5b3360009081526005602052604090205483111561142857600080fd5b6002546004546003546000929161144491610c0d9047906126a7565b11611479576006546004546003546114729291610aea91889161146c91610c0d9047906126a7565b906126dd565b9050611491565b60065460025461148e9190610aea90876126dd565b90505b60006114a8600260040154610aea8761146c61135c565b336000908152600560205260409020549091506114c590866126a7565b336000908152600560205260409020556006546114f290610aea6114e982896126a7565b600254906126dd565b60025560065461150290866126a7565b60065561150f33836126e9565b801561159b57600c5460405163a9059cbb60e01b81526001600160a01b039091169063a9059cbb906115479033908590600401612943565b602060405180830381600087803b15801561156157600080fd5b505af1158015611575573d6000803e3d6000fd5b505050506040513d601f19601f8201168201806040525081019061159991906127e9565b505b7f9134810487b6d40d8bf00e10ed34dd4c15e1f2af6a30d8d6d120b89ac32067958282336040516115ce93929190612a1e565b60405180910390a19092509050915091565b600c546040516323b872dd60e01b81526001600160a01b03909116906323b872dd906116149033903090869060040161291f565b602060405180830381600087803b15801561162e57600080fd5b505af1158015611642573d6000803e3d6000fd5b505050506040513d601f19601f8201168201806040525081019061166691906127e9565b61166f57600080fd5b60075461167d908290612694565b600054101561168b57600080fd5b6000611696826119b9565b336000908152600a60205260409020549091506116b39082612694565b336000908152600a6020526040902055600b546116d09082612694565b600b556007546116e09083612694565b6007556040517fbfa4111860da0da9f19a0223e910bb1a2d1a9fe565d1559231735c3e9b8786149061064490849033906129f9565b6001600160a01b03166000908152600a602052604090205490565b6000806000831161174057600080fd5b336000908152600a602052604090205483111561175c57600080fd5b600754600954600854600c546040516370a0823160e01b8152600094936117a3939092610c0d926001600160a01b03909116906370a0823190610bbd9030906004016128f1565b116117fa57600b54600954600854600c546040516370a0823160e01b81526117f39493610aea938a9361146c93610c0d92916001600160a01b0316906370a0823190610bbd9030906004016128f1565b9050611812565b600b5460075461180f9190610aea90876126dd565b90505b6000611829600760040154610aea8761146c61264f565b336000908152600a602052604090205490915061184690866126a7565b336000908152600a6020526040902055600b5461187390610aea61186a82896126a7565b600754906126dd565b600755600b5461188390866126a7565b600b55600c5460405163a9059cbb60e01b81526001600160a01b039091169063a9059cbb906118b89033908690600401612943565b602060405180830381600087803b1580156118d257600080fd5b505af11580156118e6573d6000803e3d6000fd5b505050506040513d601f19601f8201168201806040525081019061190a91906127e9565b50801561191b5761191b33826126e9565b7f3391d2ea7317bc22c6b12a52c374b3f5cd4513c33841f2b96979f4ebef4dda6081833360405161194e93929190612a1e565b60405180910390a192509050915091565b7fcfb1dd89e6f4506eca597e7558fbcfe22dbc7e0b9f2b3956e121d0e344d6f7aa81565b60025460065460035460045490919293565b7fdd0618e2e2a17ff193a933618181c8f8909dc169e9707cce1921893a88739ca081565b600754600090806119cd5782915050610f2d565b60006119dc610eee8386612694565b90506000610f276119f5670de0b6b3a7640000846126a7565b600b54610aea9085906126dd565b336000908152600a6020526040902054821115611a1f57600080fd5b336000908152600a6020526040902054611a3990836126a7565b336000908152600a6020526040808220929092556001600160a01b03831681522054611a659083612694565b6001600160a01b0382166000908152600a60205260409081902091909155517ff0aad3af094499d179e526173a77e33079bd7422ce5c5362317fa0ece15f04e6906106449033908490869061291f565b600c546040516370a0823160e01b815283916001600160a01b0316906370a0823190611ae59033906004016128f1565b60206040518083038186803b158015611afd57600080fd5b505afa158015611b11573d6000803e3d6000fd5b505050506040513d601f19601f82011682018060405250810190611b359190612821565b1015611b4057600080fd5b60008054600154611b50916126b3565b90506000600c60000160009054906101000a90046001600160a01b03166001600160a01b0316635aa6e6756040518163ffffffff1660e01b815260040160206040518083038186803b158015611ba557600080fd5b505afa158015611bb9573d6000803e3d6000fd5b505050506040513d601f19601f82011682018060405250810190611bdd91906127cd565b90506000600c60000160009054906101000a90046001600160a01b03166001600160a01b0316638da5cb5b6040518163ffffffff1660e01b815260040160206040518083038186803b158015611c3257600080fd5b505afa158015611c46573d6000803e3d6000fd5b505050506040513d601f19601f82011682018060405250810190611c6a91906127cd565b90506001600160a01b0381161580611d015750600c546040516376e5694160e11b81526001600160a01b038481169263edcad28292611cb192909116908590600401612905565b60206040518083038186803b158015611cc957600080fd5b505afa158015611cdd573d6000803e3d6000fd5b505050506040513d601f19601f82011682018060405250810190611d0191906127e9565b611d0a57600080fd5b611d12612793565b600c54604051627ebcdb60e21b81526001600160a01b03858116926301faf36c92611d6592909116907fe4f5729eb40e38b5a39dfb36d76ead9f9bc286f06852595980c5078f1af7e8c990600401612943565b60206040518083038186803b158015611d7d57600080fd5b505afa158015611d91573d6000803e3d6000fd5b505050506040513d601f19601f82011682018060405250810190611db59190612821565b8152600c54604051627ebcdb60e21b81526001600160a01b03858116926301faf36c92611e0a92909116907fcfb1dd89e6f4506eca597e7558fbcfe22dbc7e0b9f2b3956e121d0e344d6f7aa90600401612943565b60206040518083038186803b158015611e2257600080fd5b505afa158015611e36573d6000803e3d6000fd5b505050506040513d601f19601f82011682018060405250810190611e5a9190612821565b6020820152600c54604051627ebcdb60e21b81526001600160a01b03858116926301faf36c92611eb292909116907fdd0618e2e2a17ff193a933618181c8f8909dc169e9707cce1921893a88739ca090600401612943565b60206040518083038186803b158015611eca57600080fd5b505afa158015611ede573d6000803e3d6000fd5b505050506040513d601f19601f82011682018060405250810190611f029190612821565b604080830191909152600c54815163519a17dd60e11b8152915160009283926001600160a01b03169163a3342fba91600480820192602092909190829003018186803b158015611f5157600080fd5b505afa158015611f65573d6000803e3d6000fd5b505050506040513d601f19601f82011682018060405250810190611f8991906127cd565b6001600160a01b0316141590506000611fad8860005461269490919063ffffffff16565b90506000611fc6826001546126b390919063ffffffff16565b905060008111611fe657634e487b7160e01b600052600160045260246000fd5b6000821161200457634e487b7160e01b600052600160045260246000fd5b600061201088836126a7565b60045460035491925061202891610c0d9047906126a7565b81111561203457600080fd5b60008381556120679061205e90670de0b6b3a764000090610aea9089905b602002015185906126dd565b60025490612694565b60025561208d612084670de0b6b3a7640000610aea886001612052565b60035490612694565b60035583156120bd576120b96120b0670de0b6b3a7640000610aea886002612052565b60045490612694565b6004555b612104670de0b6b3a7640000610aea6120fd6120e889600160200201518a600260200201518a6126bf565b8951610c0d90670de0b6b3a7640000906126a7565b84906126dd565b90508881101561211357600080fd5b600c546040516323b872dd60e01b81526001600160a01b03909116906323b872dd9061214790339030908f9060040161291f565b602060405180830381600087803b15801561216157600080fd5b505af1158015612175573d6000803e3d6000fd5b505050506040513d601f19601f8201168201806040525081019061219991906127e9565b6121a257600080fd5b6121ac33826126e9565b7f31ebc3fea0a030284882c302509423912730f48a55eeaf45c18ad791b7aed3308a82336040516121df93929190612a1e565b60405180910390a150505050505050505050565b600c546001600160a01b03161561220957600080fd5b600c80546001600160a01b038086167fffffffffffffffffffffffff00000000000000000000000000000000000000009283161792839055600d805486831693169290921790915560408051635aa6e67560e01b815290516123709390921691635aa6e67591600480820192602092909190829003018186803b15801561228f57600080fd5b505afa1580156122a3573d6000803e3d6000fd5b505050506040513d601f19601f820116820180604052508101906122c791906127cd565b600c54604051627ebcdb60e21b81526001600160a01b03928316926301faf36c92612319929116907f4babff57ebd34f251a515a845400ed950a51f0a64c92e803a3e144fc40623fa890600401612943565b60206040518083038186803b15801561233157600080fd5b505afa158015612345573d6000803e3d6000fd5b505050506040513d601f19601f820116820180604052508101906123699190612821565b4290612694565b600e55600c54604080517f313ce56700000000000000000000000000000000000000000000000000000000815290516001600160a01b039092169163313ce56791600480820192602092909190829003018186803b1580156123d157600080fd5b505afa1580156123e5573d6000803e3d6000fd5b505050506040513d601f19601f8201168201806040525081019061240991906128d0565b60ff16600f55831561249d57600c546040516323b872dd60e01b81526001600160a01b03909116906323b872dd906124499033903090899060040161291f565b602060405180830381600087803b15801561246357600080fd5b505af1158015612477573d6000803e3d6000fd5b505050506040513d601f19601f8201168201806040525081019061249b91906127e9565b505b600c54604080517f18160ddd00000000000000000000000000000000000000000000000000000000815290516001600160a01b03909216916318160ddd91600480820192602092909190829003018186803b1580156124fb57600080fd5b505afa15801561250f573d6000803e3d6000fd5b505050506040513d601f19601f820116820180604052508101906125339190612821565b600055600f5461255b9061254890600a612ad6565b600054610aea90849061146c90806126dd565b600155306000818152600a60209081526040808320889055600b889055600788905560059091529081902034908190556006819055600255600c5490517f3cd5ec01b1ae7cfec6ca1863e2cd6aa25d6d1702825803ff2b7cc95010fffdc2926125cd926001600160a01b031691612905565b60405180910390a150505050565b60006113f7600054610aea600054610aea600c60030154600a6125fe9190612ad6565b600154906126dd565b7fe4f5729eb40e38b5a39dfb36d76ead9f9bc286f06852595980c5078f1af7e8c981565b7f4babff57ebd34f251a515a845400ed950a51f0a64c92e803a3e144fc40623fa881565b6002546004546003546000929161266b91610c0d9047906126a7565b10156126795750600061058f565b6002546004546003546113f79291610c0d91829047906126a7565b60006126a08284612a58565b9392505050565b60006126a08284612bc3565b60006126a08284612a70565b60008382156126d5576126d28185612694565b90505b949350505050565b60006126a08284612ba4565b804710156127125760405162461bcd60e51b8152600401612709906129c2565b60405180910390fd5b6000826001600160a01b03168260405161272b9061058f565b60006040518083038185875af1925050503d8060008114612768576040519150601f19603f3d011682016040523d82523d6000602084013e61276d565b606091505b505090508061278e5760405162461bcd60e51b815260040161270990612965565b505050565b60405180606001604052806003906020820280368337509192915050565b6000602082840312156127c2578081fd5b81356126a081612bf0565b6000602082840312156127de578081fd5b81516126a081612bf0565b6000602082840312156127fa578081fd5b815180151581146126a0578182fd5b60006020828403121561281a578081fd5b5035919050565b600060208284031215612832578081fd5b5051919050565b6000806040838503121561284b578081fd5b82359150602083013561285d81612bf0565b809150509250929050565b6000806000806080858703121561287d578182fd5b84359350602085013561288f81612bf0565b9250604085013561289f81612bf0565b9396929550929360600135925050565b600080604083850312156128c1578182fd5b50508035926020909101359150565b6000602082840312156128e1578081fd5b815160ff811681146126a0578182fd5b6001600160a01b0391909116815260200190565b6001600160a01b0392831681529116602082015260400190565b6001600160a01b039384168152919092166020820152604081019190915260600190565b6001600160a01b03929092168252602082015260400190565b90815260200190565b6020808252603a908201527f416464726573733a20756e61626c6520746f2073656e642076616c75652c207260408201527f6563697069656e74206d61792068617665207265766572746564000000000000606082015260800190565b6020808252601d908201527f416464726573733a20696e73756666696369656e742062616c616e6365000000604082015260600190565b9182526001600160a01b0316602082015260400190565b918252602082015260400190565b92835260208301919091526001600160a01b0316604082015260600190565b93845260208401929092526040830152606082015260800190565b60008219821115612a6b57612a6b612bda565b500190565b600082612a8b57634e487b7160e01b81526012600452602481fd5b500490565b80825b6001808611612aa25750612acd565b818704821115612ab457612ab4612bda565b80861615612ac157918102915b9490941c938002612a93565b94509492505050565b60006126a06000198484600082612aef575060016126a0565b81612afc575060006126a0565b8160018114612b125760028114612b1c57612b49565b60019150506126a0565b60ff841115612b2d57612b2d612bda565b6001841b915084821115612b4357612b43612bda565b506126a0565b5060208310610133831016604e8410600b8410161715612b7c575081810a83811115612b7757612b77612bda565b6126a0565b612b898484846001612a90565b808604821115612b9b57612b9b612bda565b02949350505050565b6000816000190483118215151615612bbe57612bbe612bda565b500290565b600082821015612bd557612bd5612bda565b500390565b634e487b7160e01b600052601160045260246000fd5b6001600160a01b0381168114612c0557600080fd5b5056fea26469706673582212207fd9dd66ac91bab6f51717c522fe3a89e2e2043eb5817b5a766fcea15b9dde7364736f6c63430008010033",
  "linkReferences": {},
  "deployedLinkReferences": {}
}