{
  "_format": "hh-sol-artifact-1",
  "contractName": "ActionModule",
  "sourceName": "contracts/modules/implementations/ActionModule.sol",
  "abi": [
    {
      "inputs": [
        {
          "internalType": "address",
          "name": "walletTemplate",
          "type": "address"
        }
      ],
      "stateMutability": "nonpayable",
      "type": "constructor"
    },
    {
      "anonymous": false,
      "inputs": [
        {
          "indexed": true,
          "internalType": "contract ShardedWallet",
          "name": "wallet",
          "type": "address"
        },
        {
          "indexed": true,
          "internalType": "bytes32",
          "name": "uid",
          "type": "bytes32"
        },
        {
          "indexed": true,
          "internalType": "bytes32",
          "name": "id",
          "type": "bytes32"
        }
      ],
      "name": "ActionCancelled",
      "type": "event"
    },
    {
      "anonymous": false,
      "inputs": [
        {
          "indexed": true,
          "internalType": "contract ShardedWallet",
          "name": "wallet",
          "type": "address"
        },
        {
          "indexed": true,
          "internalType": "bytes32",
          "name": "uid",
          "type": "bytes32"
        },
        {
          "indexed": true,
          "internalType": "bytes32",
          "name": "id",
          "type": "bytes32"
        },
        {
          "indexed": false,
          "internalType": "uint256",
          "name": "i",
          "type": "uint256"
        },
        {
          "indexed": false,
          "internalType": "address",
          "name": "to",
          "type": "address"
        },
        {
          "indexed": false,
          "internalType": "uint256",
          "name": "value",
          "type": "uint256"
        },
        {
          "indexed": false,
          "internalType": "bytes",
          "name": "data",
          "type": "bytes"
        }
      ],
      "name": "ActionExecuted",
      "type": "event"
    },
    {
      "anonymous": false,
      "inputs": [
        {
          "indexed": true,
          "internalType": "contract ShardedWallet",
          "name": "wallet",
          "type": "address"
        },
        {
          "indexed": true,
          "internalType": "bytes32",
          "name": "uid",
          "type": "bytes32"
        },
        {
          "indexed": true,
          "internalType": "bytes32",
          "name": "id",
          "type": "bytes32"
        },
        {
          "indexed": false,
          "internalType": "uint256",
          "name": "i",
          "type": "uint256"
        },
        {
          "indexed": false,
          "internalType": "address",
          "name": "to",
          "type": "address"
        },
        {
          "indexed": false,
          "internalType": "uint256",
          "name": "value",
          "type": "uint256"
        },
        {
          "indexed": false,
          "internalType": "bytes",
          "name": "data",
          "type": "bytes"
        }
      ],
      "name": "ActionScheduled",
      "type": "event"
    },
    {
      "anonymous": false,
      "inputs": [
        {
          "indexed": true,
          "internalType": "bytes32",
          "name": "timer",
          "type": "bytes32"
        }
      ],
      "name": "TimerReset",
      "type": "event"
    },
    {
      "anonymous": false,
      "inputs": [
        {
          "indexed": true,
          "internalType": "bytes32",
          "name": "timer",
          "type": "bytes32"
        },
        {
          "indexed": false,
          "internalType": "uint256",
          "name": "deadline",
          "type": "uint256"
        }
      ],
      "name": "TimerStarted",
      "type": "event"
    },
    {
      "anonymous": false,
      "inputs": [
        {
          "indexed": true,
          "internalType": "bytes32",
          "name": "timer",
          "type": "bytes32"
        }
      ],
      "name": "TimerStopped",
      "type": "event"
    },
    {
      "inputs": [],
      "name": "ACTION_AUTH_RATIO",
      "outputs": [
        {
          "internalType": "bytes32",
          "name": "",
          "type": "bytes32"
        }
      ],
      "stateMutability": "view",
      "type": "function"
    },
    {
      "inputs": [],
      "name": "ACTION_DURATION",
      "outputs": [
        {
          "internalType": "bytes32",
          "name": "",
          "type": "bytes32"
        }
      ],
      "stateMutability": "view",
      "type": "function"
    },
    {
      "inputs": [
        {
          "internalType": "contract ShardedWallet",
          "name": "wallet",
          "type": "address"
        },
        {
          "internalType": "bytes32",
          "name": "id",
          "type": "bytes32"
        }
      ],
      "name": "cancel",
      "outputs": [
        {
          "internalType": "bool",
          "name": "",
          "type": "bool"
        }
      ],
      "stateMutability": "nonpayable",
      "type": "function"
    },
    {
      "inputs": [
        {
          "internalType": "contract ShardedWallet",
          "name": "wallet",
          "type": "address"
        },
        {
          "internalType": "address[]",
          "name": "to",
          "type": "address[]"
        },
        {
          "internalType": "uint256[]",
          "name": "value",
          "type": "uint256[]"
        },
        {
          "internalType": "bytes[]",
          "name": "data",
          "type": "bytes[]"
        }
      ],
      "name": "execute",
      "outputs": [
        {
          "internalType": "bool",
          "name": "",
          "type": "bool"
        }
      ],
      "stateMutability": "nonpayable",
      "type": "function"
    },
    {
      "inputs": [],
      "name": "name",
      "outputs": [
        {
          "internalType": "string",
          "name": "",
          "type": "string"
        }
      ],
      "stateMutability": "view",
      "type": "function"
    },
    {
      "inputs": [
        {
          "internalType": "contract ShardedWallet",
          "name": "wallet",
          "type": "address"
        },
        {
          "internalType": "address[]",
          "name": "to",
          "type": "address[]"
        },
        {
          "internalType": "uint256[]",
          "name": "value",
          "type": "uint256[]"
        },
        {
          "internalType": "bytes[]",
          "name": "data",
          "type": "bytes[]"
        }
      ],
      "name": "schedule",
      "outputs": [
        {
          "internalType": "bytes32",
          "name": "",
          "type": "bytes32"
        }
      ],
      "stateMutability": "nonpayable",
      "type": "function"
    },
    {
      "inputs": [],
      "name": "walletTemplate",
      "outputs": [
        {
          "internalType": "address",
          "name": "",
          "type": "address"
        }
      ],
      "stateMutability": "view",
      "type": "function"
    }
  ],
  "bytecode": "0x60a060405234801561001057600080fd5b506040516113ed3803806113ed83398101604081905261002f91610044565b60601b6001600160601b031916608052610072565b600060208284031215610055578081fd5b81516001600160a01b038116811461006b578182fd5b9392505050565b60805160601c61135d6100906000396000610177015261135d6000f3fe608060405234801561001057600080fd5b506004361061007d5760003560e01c806361550b3c1161005b57806361550b3c146100ca5780639e2ed686146100d2578063d1952bf2146100f2578063f8f0e295146101055761007d565b806306fdde03146100825780632c46d5e8146100a05780635997b63e146100b5575b600080fd5b61008a610118565b604051610097919061112c565b60405180910390f35b6100a8610151565b6040516100979190611123565b6100bd610175565b6040516100979190611024565b6100a8610199565b6100e56100e0366004610f43565b6101bd565b6040516100979190611118565b6100a8610100366004610e4b565b61046a565b6100e5610113366004610e4b565b6107b3565b60405180604001604052600c8152806020017f416374696f6e4d6f64756c65000000000000000000000000000000000000000081525081565b7f05f91198c37cc2578c2915e1614db3bf5c90e3387bd106bdfbb0da82514418dd81565b7f000000000000000000000000000000000000000000000000000000000000000081565b7f3c3813978ff64b4dbcec0d1ea3c72ec1393a708e0a785f2797bac1f61c3d7e0981565b60008233610369670de0b6b3a7640000836001600160a01b0316635aa6e6756040518163ffffffff1660e01b815260040160206040518083038186803b15801561020657600080fd5b505afa15801561021a573d6000803e3d6000fd5b505050506040513d601f19601f8201168201806040525081019061023e9190610e2f565b604051627ebcdb60e21b81526001600160a01b0391909116906301faf36c9061028d9087907f3c3813978ff64b4dbcec0d1ea3c72ec1393a708e0a785f2797bac1f61c3d7e0990600401611038565b60206040518083038186803b1580156102a557600080fd5b505afa1580156102b9573d6000803e3d6000fd5b505050506040513d601f19601f820116820180604052508101906102dd9190610f6e565b846001600160a01b03166318160ddd6040518163ffffffff1660e01b815260040160206040518083038186803b15801561031657600080fd5b505afa15801561032a573d6000803e3d6000fd5b505050506040513d601f19601f8201168201806040525081019061034e9190610f6e565b61035891906112a9565b6103629190611289565b6001610b54565b6040516370a0823160e01b81526001600160a01b038416906370a0823190610395908590600401611024565b60206040518083038186803b1580156103ad57600080fd5b505afa1580156103c1573d6000803e3d6000fd5b505050506040513d601f19601f820116820180604052508101906103e59190610f6e565b10156103f057600080fd5b60008585604051602001610405929190611038565b60405160208183030381529060405280519060200120905061042681610b6d565b8481876001600160a01b03167f18544de8f6ae44f0e575260e57898708dfdf0d4018535c31bc58d0f8ce8977cb60405160405180910390a450600195945050505050565b600084336104b3670de0b6b3a7640000836001600160a01b0316635aa6e6756040518163ffffffff1660e01b815260040160206040518083038186803b15801561020657600080fd5b6040516370a0823160e01b81526001600160a01b038416906370a08231906104df908590600401611024565b60206040518083038186803b1580156104f757600080fd5b505afa15801561050b573d6000803e3d6000fd5b505050506040513d601f19601f8201168201806040525081019061052f9190610f6e565b101561053a57600080fd5b845186511461054857600080fd5b835186511461055657600080fd5b600086868660405160200161056d93929190611082565b6040516020818303038152906040528051906020012090506000888260405160200161059a929190611038565b6040516020818303038152906040528051906020012090506106cb818a6001600160a01b0316635aa6e6756040518163ffffffff1660e01b815260040160206040518083038186803b1580156105ef57600080fd5b505afa158015610603573d6000803e3d6000fd5b505050506040513d601f19601f820116820180604052508101906106279190610e2f565b604051627ebcdb60e21b81526001600160a01b0391909116906301faf36c90610676908e907f05f91198c37cc2578c2915e1614db3bf5c90e3387bd106bdfbb0da82514418dd90600401611038565b60206040518083038186803b15801561068e57600080fd5b505afa1580156106a2573d6000803e3d6000fd5b505050506040513d601f19601f820116820180604052508101906106c69190610f6e565b610bd8565b60005b88518110156107a55782828b6001600160a01b03167fc2834c4ca0dd84e67539c21874d042e7e14d6da10e4008ee4a0b270b0732b032848d868151811061072557634e487b7160e01b600052603260045260246000fd5b60200260200101518d878151811061074d57634e487b7160e01b600052603260045260246000fd5b60200260200101518d888151811061077557634e487b7160e01b600052603260045260246000fd5b602002602001015160405161078d94939291906111e4565b60405180910390a461079e816112c8565b90506106ce565b509098975050505050505050565b600084336107fc670de0b6b3a7640000836001600160a01b0316635aa6e6756040518163ffffffff1660e01b815260040160206040518083038186803b15801561020657600080fd5b6040516370a0823160e01b81526001600160a01b038416906370a0823190610828908590600401611024565b60206040518083038186803b15801561084057600080fd5b505afa158015610854573d6000803e3d6000fd5b505050506040513d601f19601f820116820180604052508101906108789190610f6e565b101561088357600080fd5b60006001600160a01b0316876001600160a01b0316638da5cb5b6040518163ffffffff1660e01b815260040160206040518083038186803b1580156108c757600080fd5b505afa1580156108db573d6000803e3d6000fd5b505050506040513d601f19601f820116820180604052508101906108ff9190610e2f565b6001600160a01b03161461091257600080fd5b845186511461092057600080fd5b835186511461092e57600080fd5b600086868660405160200161094593929190611082565b60405160208183030381529060405280519060200120905060008882604051602001610972929190611038565b60405160208183030381529060405280519060200120905061099381610c5e565b60005b8851811015610b4457896001600160a01b03166363f10c6d8a83815181106109ce57634e487b7160e01b600052603260045260246000fd5b60200260200101518a84815181106109f657634e487b7160e01b600052603260045260246000fd5b60200260200101518a8581518110610a1e57634e487b7160e01b600052603260045260246000fd5b60200260200101516040518463ffffffff1660e01b8152600401610a4493929190611051565b600060405180830381600087803b158015610a5e57600080fd5b505af1158015610a72573d6000803e3d6000fd5b5050505082828b6001600160a01b03167f6b5896de16c3fe6e5d85e79a0441bc427df96ee2b283c0a55bc77fd450466afb848d8681518110610ac457634e487b7160e01b600052603260045260246000fd5b60200260200101518d8781518110610aec57634e487b7160e01b600052603260045260246000fd5b60200260200101518d8881518110610b1457634e487b7160e01b600052603260045260246000fd5b6020026020010151604051610b2c94939291906111e4565b60405180910390a4610b3d816112c8565b9050610996565b5060019998505050505050505050565b600081831015610b645781610b66565b825b9392505050565b80610b7781610cc0565b610b9c5760405162461bcd60e51b8152600401610b9390611176565b60405180910390fd5b6000828152602081905260408082208290555183917f7d49dc7c9889c3bb21eca272a365f92ba7e27303e14fa6c733911004210aa30e91a25050565b81610be281610ce1565b610bfe5760405162461bcd60e51b8152600401610b93906111ad565b6000610c0a8342611271565b600085815260208190526040908190208290555190915084907f605574b2967b0bcc75b287d9a63f28d379642ae66f3e2ed42e1679cd992915f590610c50908490611123565b60405180910390a250505050565b80610c6881610cf4565b610c845760405162461bcd60e51b8152600401610b939061113f565b6000828152602081905260408082208290555183917f20d65b5dc0ebfa40301979533e073e22a1d96c44638276e67a662e5da7215fba91a25050565b6000818152602081905260408120548015801590610b665750421092915050565b6000908152602081905260409020541590565b6000818152602081905260408120548015801590610b66575042101592915050565b6000601f8381840112610d27578182fd5b82356020610d3c610d378361124d565b61121c565b82815281810190868301865b858110156107a557813589018a603f820112610d62578889fd5b85810135604067ffffffffffffffff821115610d8057610d806112f9565b610d91828b01601f1916890161121c565b8281528d82848601011115610da4578b8cfd5b828285018a83013791820188018b9052508552509284019290840190600101610d48565b600082601f830112610dd8578081fd5b81356020610de8610d378361124d565b8281528181019085830183850287018401881015610e04578586fd5b855b85811015610e2257813584529284019290840190600101610e06565b5090979650505050505050565b600060208284031215610e40578081fd5b8151610b668161130f565b60008060008060808587031215610e60578283fd5b8435610e6b8161130f565b935060208581013567ffffffffffffffff80821115610e88578586fd5b818801915088601f830112610e9b578586fd5b8135610ea9610d378261124d565b81815284810190848601868402860187018d1015610ec557898afd5b8995505b83861015610ef0578035610edc8161130f565b835260019590950194918601918601610ec9565b50975050506040880135925080831115610f08578485fd5b610f1489848a01610dc8565b94506060880135925080831115610f29578384fd5b5050610f3787828801610d16565b91505092959194509250565b60008060408385031215610f55578182fd5b8235610f608161130f565b946020939093013593505050565b600060208284031215610f7f578081fd5b5051919050565b6000815180845260208085018081965082840281019150828601855b85811015610fcc578284038952610fba848351610fd9565b98850198935090840190600101610fa2565b5091979650505050505050565b60008151808452815b81811015610ffe57602081850181015186830182015201610fe2565b8181111561100f5782602083870101525b50601f01601f19169290920160200192915050565b6001600160a01b0391909116815260200190565b6001600160a01b03929092168252602082015260400190565b60006001600160a01b0385168252836020830152606060408301526110796060830184610fd9565b95945050505050565b606080825284519082018190526000906020906080840190828801845b828110156110c45781516001600160a01b03168452928401929084019060010161109f565b50505083810382850152855180825286830191830190845b818110156110f8578351835292840192918401916001016110dc565b5050848103604086015261110c8187610f86565b98975050505050505050565b901515815260200190565b90815260200190565b600060208252610b666020830184610fd9565b6020808252601a908201527f5769746854696d6572733a206f6e6c79416674657254696d6572000000000000604082015260600190565b6020808252601b908201527f5769746854696d6572733a206f6e6c79447572696e6754696d65720000000000604082015260600190565b6020808252601b908201527f5769746854696d6572733a206f6e6c794265666f726554696d65720000000000604082015260600190565b60008582526001600160a01b0385166020830152836040830152608060608301526112126080830184610fd9565b9695505050505050565b604051601f8201601f1916810167ffffffffffffffff81118282101715611245576112456112f9565b604052919050565b600067ffffffffffffffff821115611267576112676112f9565b5060209081020190565b60008219821115611284576112846112e3565b500190565b6000826112a457634e487b7160e01b81526012600452602481fd5b500490565b60008160001904831182151516156112c3576112c36112e3565b500290565b60006000198214156112dc576112dc6112e3565b5060010190565b634e487b7160e01b600052601160045260246000fd5b634e487b7160e01b600052604160045260246000fd5b6001600160a01b038116811461132457600080fd5b5056fea2646970667358221220bd86b99161954ea066a1caa2686c36dec3e89d38d42b5acd91220ae3d73d67bf64736f6c63430008010033",
  "linkReferences": {},
  "deployedLinkReferences": {}
}