{
  "_format": "hh-sol-artifact-1",
  "contractName": "TokenReceiverModule",
  "sourceName": "contracts/modules/implementations/TokenReceiverModule.sol",
  "abi": [
    {
      "inputs": [
        {
          "internalType": "address",
          "name": "walletTemplate",
          "type": "address"
        }
      ],
      "stateMutability": "nonpayable",
      "type": "constructor"
    },
    {
      "inputs": [],
      "name": "name",
      "outputs": [
        {
          "internalType": "string",
          "name": "",
          "type": "string"
        }
      ],
      "stateMutability": "view",
      "type": "function"
    },
    {
      "inputs": [
        {
          "internalType": "address",
          "name": "",
          "type": "address"
        },
        {
          "internalType": "address",
          "name": "",
          "type": "address"
        },
        {
          "internalType": "uint256[]",
          "name": "",
          "type": "uint256[]"
        },
        {
          "internalType": "uint256[]",
          "name": "",
          "type": "uint256[]"
        },
        {
          "internalType": "bytes",
          "name": "",
          "type": "bytes"
        }
      ],
      "name": "onERC1155BatchReceived",
      "outputs": [
        {
          "internalType": "bytes4",
          "name": "",
          "type": "bytes4"
        }
      ],
      "stateMutability": "pure",
      "type": "function"
    },
    {
      "inputs": [
        {
          "internalType": "address",
          "name": "",
          "type": "address"
        },
        {
          "internalType": "address",
          "name": "",
          "type": "address"
        },
        {
          "internalType": "uint256",
          "name": "",
          "type": "uint256"
        },
        {
          "internalType": "uint256",
          "name": "",
          "type": "uint256"
        },
        {
          "internalType": "bytes",
          "name": "",
          "type": "bytes"
        }
      ],
      "name": "onERC1155Received",
      "outputs": [
        {
          "internalType": "bytes4",
          "name": "",
          "type": "bytes4"
        }
      ],
      "stateMutability": "pure",
      "type": "function"
    },
    {
      "inputs": [
        {
          "internalType": "address",
          "name": "",
          "type": "address"
        },
        {
          "internalType": "address",
          "name": "",
          "type": "address"
        },
        {
          "internalType": "uint256",
          "name": "",
          "type": "uint256"
        },
        {
          "internalType": "bytes",
          "name": "",
          "type": "bytes"
        }
      ],
      "name": "onERC721Received",
      "outputs": [
        {
          "internalType": "bytes4",
          "name": "",
          "type": "bytes4"
        }
      ],
      "stateMutability": "pure",
      "type": "function"
    },
    {
      "inputs": [
        {
          "internalType": "bytes4",
          "name": "interfaceId",
          "type": "bytes4"
        }
      ],
      "name": "supportsInterface",
      "outputs": [
        {
          "internalType": "bool",
          "name": "",
          "type": "bool"
        }
      ],
      "stateMutability": "view",
      "type": "function"
    },
    {
      "inputs": [
        {
          "internalType": "address",
          "name": "",
          "type": "address"
        },
        {
          "internalType": "address",
          "name": "",
          "type": "address"
        },
        {
          "internalType": "address",
          "name": "",
          "type": "address"
        },
        {
          "internalType": "uint256",
          "name": "",
          "type": "uint256"
        },
        {
          "internalType": "bytes",
          "name": "",
          "type": "bytes"
        },
        {
          "internalType": "bytes",
          "name": "",
          "type": "bytes"
        }
      ],
      "name": "tokensReceived",
      "outputs": [],
      "stateMutability": "pure",
      "type": "function"
    },
    {
      "inputs": [],
      "name": "walletTemplate",
      "outputs": [
        {
          "internalType": "address",
          "name": "",
          "type": "address"
        }
      ],
      "stateMutability": "view",
      "type": "function"
    }
  ],
  "bytecode": "0x60a060405234801561001057600080fd5b5060405161071c38038061071c83398101604081905261002f91610044565b60601b6001600160601b031916608052610072565b600060208284031215610055578081fd5b81516001600160a01b038116811461006b578182fd5b9392505050565b60805160601c61068c6100906000396000610219015261068c6000f3fe608060405234801561001057600080fd5b506004361061007c5760003560e01c8063150b7a021161005b578063150b7a02146100d45780635997b63e146100f4578063bc197c8114610109578063f23a6e611461011c5761007c565b806223de291461008157806301ffc9a71461009657806306fdde03146100bf575b600080fd5b61009461008f366004610372565b61012f565b005b6100a96100a4366004610593565b610139565b6040516100b691906105e3565b60405180910390f35b6100c76101cd565b6040516100b69190610603565b6100e76100e23660046104b0565b610206565b6040516100b691906105ee565b6100fc610217565b6040516100b691906105c2565b6100e761011736600461041a565b61023b565b6100e761012a36600461051d565b610268565b5050505050505050565b60006001600160e01b03198216630a85bd0160e11b148061018257506001600160e01b031982167e23de2900000000000000000000000000000000000000000000000000000000145b806101b657506001600160e01b031982167f4e2312e000000000000000000000000000000000000000000000000000000000145b806101c557506101c582610293565b90505b919050565b6040518060400160405260138152806020017f546f6b656e52656365697665724d6f64756c650000000000000000000000000081525081565b630a85bd0160e11b95945050505050565b7f000000000000000000000000000000000000000000000000000000000000000081565b7fbc197c810000000000000000000000000000000000000000000000000000000098975050505050505050565b7ff23a6e61000000000000000000000000000000000000000000000000000000009695505050505050565b6001600160e01b031981167f01ffc9a70000000000000000000000000000000000000000000000000000000014919050565b803573ffffffffffffffffffffffffffffffffffffffff811681146101c857600080fd5b60008083601f8401126102fa578182fd5b50813567ffffffffffffffff811115610311578182fd5b602083019150836020808302850101111561032b57600080fd5b9250929050565b60008083601f840112610343578182fd5b50813567ffffffffffffffff81111561035a578182fd5b60208301915083602082850101111561032b57600080fd5b60008060008060008060008060c0898b03121561038d578384fd5b610396896102c5565b97506103a460208a016102c5565b96506103b260408a016102c5565b955060608901359450608089013567ffffffffffffffff808211156103d5578586fd5b6103e18c838d01610332565b909650945060a08b01359150808211156103f9578384fd5b506104068b828c01610332565b999c989b5096995094979396929594505050565b60008060008060008060008060a0898b031215610435578384fd5b61043e896102c5565b975061044c60208a016102c5565b9650604089013567ffffffffffffffff80821115610468578586fd5b6104748c838d016102e9565b909850965060608b013591508082111561048c578586fd5b6104988c838d016102e9565b909650945060808b01359150808211156103f9578384fd5b6000806000806000608086880312156104c7578081fd5b6104d0866102c5565b94506104de602087016102c5565b935060408601359250606086013567ffffffffffffffff811115610500578182fd5b61050c88828901610332565b969995985093965092949392505050565b60008060008060008060a08789031215610535578182fd5b61053e876102c5565b955061054c602088016102c5565b94506040870135935060608701359250608087013567ffffffffffffffff811115610575578283fd5b61058189828a01610332565b979a9699509497509295939492505050565b6000602082840312156105a4578081fd5b81356001600160e01b0319811681146105bb578182fd5b9392505050565b73ffffffffffffffffffffffffffffffffffffffff91909116815260200190565b901515815260200190565b6001600160e01b031991909116815260200190565b6000602080835283518082850152825b8181101561062f57858101830151858201604001528201610613565b818111156106405783604083870101525b50601f01601f191692909201604001939250505056fea264697066735822122052249d5d42ca3b0c1750b46034ac857aa0bb720cf882ee5d735bbcdc54dc73cc64736f6c63430008010033",
  "linkReferences": {},
  "deployedLinkReferences": {}
}