{
  "_format": "hh-sol-artifact-1",
  "contractName": "BondingCurve3",
  "sourceName": "contracts/initializable/BondingCurve3.sol",
  "abi": [
    {
      "inputs": [],
      "stateMutability": "nonpayable",
      "type": "constructor"
    },
    {
      "anonymous": false,
      "inputs": [
        {
          "indexed": true,
          "internalType": "address",
          "name": "provider",
          "type": "address"
        },
        {
          "indexed": false,
          "internalType": "uint256",
          "name": "amount",
          "type": "uint256"
        }
      ],
      "name": "EtherSupplied",
      "type": "event"
    },
    {
      "anonymous": false,
      "inputs": [
        {
          "indexed": true,
          "internalType": "address",
          "name": "provider",
          "type": "address"
        },
        {
          "indexed": false,
          "internalType": "uint256",
          "name": "value",
          "type": "uint256"
        },
        {
          "indexed": false,
          "internalType": "uint256",
          "name": "payout",
          "type": "uint256"
        },
        {
          "indexed": false,
          "internalType": "uint256",
          "name": "amountLPToken",
          "type": "uint256"
        }
      ],
      "name": "EtherWithdrawn",
      "type": "event"
    },
    {
      "anonymous": false,
      "inputs": [
        {
          "indexed": false,
          "internalType": "address",
          "name": "wallet",
          "type": "address"
        }
      ],
      "name": "Initialized",
      "type": "event"
    },
    {
      "anonymous": false,
      "inputs": [
        {
          "indexed": true,
          "internalType": "address",
          "name": "account",
          "type": "address"
        },
        {
          "indexed": false,
          "internalType": "uint256",
          "name": "amount",
          "type": "uint256"
        },
        {
          "indexed": false,
          "internalType": "uint256",
          "name": "cost",
          "type": "uint256"
        }
      ],
      "name": "ShardsBought",
      "type": "event"
    },
    {
      "anonymous": false,
      "inputs": [
        {
          "indexed": true,
          "internalType": "address",
          "name": "account",
          "type": "address"
        },
        {
          "indexed": false,
          "internalType": "uint256",
          "name": "amount",
          "type": "uint256"
        },
        {
          "indexed": false,
          "internalType": "uint256",
          "name": "payout",
          "type": "uint256"
        }
      ],
      "name": "ShardsSold",
      "type": "event"
    },
    {
      "anonymous": false,
      "inputs": [
        {
          "indexed": true,
          "internalType": "address",
          "name": "provider",
          "type": "address"
        },
        {
          "indexed": false,
          "internalType": "uint256",
          "name": "amount",
          "type": "uint256"
        }
      ],
      "name": "ShardsSupplied",
      "type": "event"
    },
    {
      "anonymous": false,
      "inputs": [
        {
          "indexed": true,
          "internalType": "address",
          "name": "provider",
          "type": "address"
        },
        {
          "indexed": false,
          "internalType": "uint256",
          "name": "payout",
          "type": "uint256"
        },
        {
          "indexed": false,
          "internalType": "uint256",
          "name": "shards",
          "type": "uint256"
        },
        {
          "indexed": false,
          "internalType": "uint256",
          "name": "amountLPToken",
          "type": "uint256"
        }
      ],
      "name": "ShardsWithdrawn",
      "type": "event"
    },
    {
      "inputs": [],
      "name": "LIQUIDITY_TIMELOCK",
      "outputs": [
        {
          "internalType": "bytes32",
          "name": "",
          "type": "bytes32"
        }
      ],
      "stateMutability": "view",
      "type": "function"
    },
    {
      "inputs": [],
      "name": "PCT_FEE_ARTIST",
      "outputs": [
        {
          "internalType": "bytes32",
          "name": "",
          "type": "bytes32"
        }
      ],
      "stateMutability": "view",
      "type": "function"
    },
    {
      "inputs": [],
      "name": "PCT_FEE_NIFTEX",
      "outputs": [
        {
          "internalType": "bytes32",
          "name": "",
          "type": "bytes32"
        }
      ],
      "stateMutability": "view",
      "type": "function"
    },
    {
      "inputs": [],
      "name": "PCT_FEE_SUPPLIERS",
      "outputs": [
        {
          "internalType": "bytes32",
          "name": "",
          "type": "bytes32"
        }
      ],
      "stateMutability": "view",
      "type": "function"
    },
    {
      "inputs": [
        {
          "internalType": "uint256",
          "name": "amount",
          "type": "uint256"
        },
        {
          "internalType": "uint256",
          "name": "maxCost",
          "type": "uint256"
        }
      ],
      "name": "buyShards",
      "outputs": [],
      "stateMutability": "payable",
      "type": "function"
    },
    {
      "inputs": [],
      "name": "calcEthForShardSuppliers",
      "outputs": [
        {
          "internalType": "uint256",
          "name": "",
          "type": "uint256"
        }
      ],
      "stateMutability": "view",
      "type": "function"
    },
    {
      "inputs": [
        {
          "internalType": "uint256",
          "name": "amount",
          "type": "uint256"
        }
      ],
      "name": "calcNewEthLPTokensToIssue",
      "outputs": [
        {
          "internalType": "uint256",
          "name": "",
          "type": "uint256"
        }
      ],
      "stateMutability": "view",
      "type": "function"
    },
    {
      "inputs": [
        {
          "internalType": "uint256",
          "name": "amount",
          "type": "uint256"
        }
      ],
      "name": "calcNewShardLPTokensToIssue",
      "outputs": [
        {
          "internalType": "uint256",
          "name": "",
          "type": "uint256"
        }
      ],
      "stateMutability": "view",
      "type": "function"
    },
    {
      "inputs": [],
      "name": "calcShardsForEthSuppliers",
      "outputs": [
        {
          "internalType": "uint256",
          "name": "",
          "type": "uint256"
        }
      ],
      "stateMutability": "view",
      "type": "function"
    },
    {
      "inputs": [],
      "name": "curve",
      "outputs": [
        {
          "internalType": "uint256",
          "name": "x",
          "type": "uint256"
        },
        {
          "internalType": "uint256",
          "name": "k",
          "type": "uint256"
        }
      ],
      "stateMutability": "view",
      "type": "function"
    },
    {
      "inputs": [],
      "name": "deadline",
      "outputs": [
        {
          "internalType": "uint256",
          "name": "",
          "type": "uint256"
        }
      ],
      "stateMutability": "view",
      "type": "function"
    },
    {
      "inputs": [],
      "name": "etherLPToken",
      "outputs": [
        {
          "internalType": "contract LiquidityToken",
          "name": "",
          "type": "address"
        }
      ],
      "stateMutability": "view",
      "type": "function"
    },
    {
      "inputs": [],
      "name": "getCurrentPrice",
      "outputs": [
        {
          "internalType": "uint256",
          "name": "",
          "type": "uint256"
        }
      ],
      "stateMutability": "view",
      "type": "function"
    },
    {
      "inputs": [
        {
          "internalType": "address",
          "name": "owner",
          "type": "address"
        }
      ],
      "name": "getEthLPTokens",
      "outputs": [
        {
          "internalType": "uint256",
          "name": "",
          "type": "uint256"
        }
      ],
      "stateMutability": "view",
      "type": "function"
    },
    {
      "inputs": [],
      "name": "getEthSuppliers",
      "outputs": [
        {
          "internalType": "uint256",
          "name": "",
          "type": "uint256"
        },
        {
          "internalType": "uint256",
          "name": "",
          "type": "uint256"
        },
        {
          "internalType": "uint256",
          "name": "",
          "type": "uint256"
        },
        {
          "internalType": "uint256",
          "name": "",
          "type": "uint256"
        }
      ],
      "stateMutability": "view",
      "type": "function"
    },
    {
      "inputs": [
        {
          "internalType": "address",
          "name": "owner",
          "type": "address"
        }
      ],
      "name": "getShardLPTokens",
      "outputs": [
        {
          "internalType": "uint256",
          "name": "",
          "type": "uint256"
        }
      ],
      "stateMutability": "view",
      "type": "function"
    },
    {
      "inputs": [],
      "name": "getShardSuppliers",
      "outputs": [
        {
          "internalType": "uint256",
          "name": "",
          "type": "uint256"
        },
        {
          "internalType": "uint256",
          "name": "",
          "type": "uint256"
        },
        {
          "internalType": "uint256",
          "name": "",
          "type": "uint256"
        },
        {
          "internalType": "uint256",
          "name": "",
          "type": "uint256"
        }
      ],
      "stateMutability": "view",
      "type": "function"
    },
    {
      "inputs": [
        {
          "internalType": "uint256",
          "name": "supply",
          "type": "uint256"
        },
        {
          "internalType": "address",
          "name": "wallet_",
          "type": "address"
        },
        {
          "internalType": "address",
          "name": "recipient_",
          "type": "address"
        },
        {
          "internalType": "uint256",
          "name": "price",
          "type": "uint256"
        }
      ],
      "name": "initialize",
      "outputs": [],
      "stateMutability": "payable",
      "type": "function"
    },
    {
      "inputs": [
        {
          "internalType": "address",
          "name": "owner",
          "type": "address"
        },
        {
          "internalType": "uint256",
          "name": "amount",
          "type": "uint256"
        },
        {
          "internalType": "bytes",
          "name": "data",
          "type": "bytes"
        }
      ],
      "name": "onApprovalReceived",
      "outputs": [
        {
          "internalType": "bytes4",
          "name": "",
          "type": "bytes4"
        }
      ],
      "stateMutability": "nonpayable",
      "type": "function"
    },
    {
      "inputs": [],
      "name": "recipient",
      "outputs": [
        {
          "internalType": "address",
          "name": "",
          "type": "address"
        }
      ],
      "stateMutability": "view",
      "type": "function"
    },
    {
      "inputs": [
        {
          "internalType": "uint256",
          "name": "amount",
          "type": "uint256"
        },
        {
          "internalType": "uint256",
          "name": "minPayout",
          "type": "uint256"
        }
      ],
      "name": "sellShards",
      "outputs": [],
      "stateMutability": "nonpayable",
      "type": "function"
    },
    {
      "inputs": [],
      "name": "shardLPToken",
      "outputs": [
        {
          "internalType": "contract LiquidityToken",
          "name": "",
          "type": "address"
        }
      ],
      "stateMutability": "view",
      "type": "function"
    },
    {
      "inputs": [],
      "name": "supplyEther",
      "outputs": [],
      "stateMutability": "payable",
      "type": "function"
    },
    {
      "inputs": [
        {
          "internalType": "uint256",
          "name": "amount",
          "type": "uint256"
        }
      ],
      "name": "supplyShards",
      "outputs": [],
      "stateMutability": "nonpayable",
      "type": "function"
    },
    {
      "inputs": [
        {
          "internalType": "address",
          "name": "to",
          "type": "address"
        },
        {
          "internalType": "uint256",
          "name": "amount",
          "type": "uint256"
        }
      ],
      "name": "transferEthLPTokens",
      "outputs": [],
      "stateMutability": "nonpayable",
      "type": "function"
    },
    {
      "inputs": [
        {
          "internalType": "address",
          "name": "to",
          "type": "address"
        },
        {
          "internalType": "uint256",
          "name": "amount",
          "type": "uint256"
        }
      ],
      "name": "transferShardLPTokens",
      "outputs": [],
      "stateMutability": "nonpayable",
      "type": "function"
    },
    {
      "inputs": [],
      "name": "transferTimelockLiquidity",
      "outputs": [],
      "stateMutability": "nonpayable",
      "type": "function"
    },
    {
      "inputs": [],
      "name": "wallet",
      "outputs": [
        {
          "internalType": "address",
          "name": "",
          "type": "address"
        }
      ],
      "stateMutability": "view",
      "type": "function"
    },
    {
      "inputs": [
        {
          "internalType": "address",
          "name": "to",
          "type": "address"
        }
      ],
      "name": "withdrawNiftexOrArtistFees",
      "outputs": [],
      "stateMutability": "nonpayable",
      "type": "function"
    },
    {
      "inputs": [
        {
          "internalType": "uint256",
          "name": "amount",
          "type": "uint256"
        }
      ],
      "name": "withdrawSuppliedEther",
      "outputs": [
        {
          "internalType": "uint256",
          "name": "",
          "type": "uint256"
        },
        {
          "internalType": "uint256",
          "name": "",
          "type": "uint256"
        }
      ],
      "stateMutability": "nonpayable",
      "type": "function"
    },
    {
      "inputs": [
        {
          "internalType": "uint256",
          "name": "amount",
          "type": "uint256"
        }
      ],
      "name": "withdrawSuppliedShards",
      "outputs": [
        {
          "internalType": "uint256",
          "name": "",
          "type": "uint256"
        },
        {
          "internalType": "uint256",
          "name": "",
          "type": "uint256"
        }
      ],
      "stateMutability": "nonpayable",
      "type": "function"
    }
  ],
  "bytecode": "0x60a06040523480156200001157600080fd5b5060405162000020906200006a565b604051809103906000f0801580156200003d573d6000803e3d6000fd5b5060601b6001600160601b031916608052600a805461dead6001600160a01b031990911617905562000078565b6111ec806200377483390190565b60805160601c6136d66200009e600039600081816118b7015261190d01526136d66000f3fe6080604052600436106101d85760003560e01c80637c100163116101025780639a35fa8211610095578063eb91d37e11610064578063eb91d37e146104d7578063efcbead9146104ec578063f4056f7814610501578063f6a166f514610516576101d8565b80639a35fa821461046f5780639b3c52f114610484578063da92b89b146104a4578063e37259e9146104c4576101d8565b80638c3e55ae116100d15780638c3e55ae146104105780638eebe00e1461042557806393ab6599146104455780639a0ca43b1461045a576101d8565b80637c100163146103905780637cabec9e146103b057806388beb7d4146103d05780638c27a38d146103f0576101d8565b8063521eb2731161017a57806366d003ac1161014957806366d003ac146103165780636aeb188b1461032b5780637165485d146103405780637b04a2d014610363576101d8565b8063521eb273146102a15780635f8b8db3146102b6578063603477e3146102d65780636130aec7146102f6576101d8565b806329dcb0cf116101b657806329dcb0cf146102445780634120f88e14610266578063463f0a6a1461027957806346aa422914610281576101d8565b806313b839ec146101dd5780631bb16441146102085780631e62d2a61461021f575b600080fd5b3480156101e957600080fd5b506101f261052b565b6040516101ff9190613397565b60405180910390f35b34801561021457600080fd5b5061021d61053a565b005b34801561022b57600080fd5b50610234610632565b6040516101ff94939291906135aa565b34801561025057600080fd5b506102596106d8565b6040516101ff9190613440565b61021d610274366004613243565b6106de565b61021d61071a565b34801561028d57600080fd5b5061021d61029c36600461301f565b610726565b3480156102ad57600080fd5b506101f2610790565b3480156102c257600080fd5b506102596102d13660046131cc565b61079f565b3480156102e257600080fd5b5061021d6102f1366004612fe0565b610891565b34801561030257600080fd5b50610259610311366004612fe0565b610b24565b34801561032257600080fd5b506101f2610bab565b34801561033757600080fd5b50610259610bba565b34801561034c57600080fd5b50610355610c84565b6040516101ff929190613586565b34801561036f57600080fd5b5061038361037e36600461304a565b610c8d565b6040516101ff9190613449565b34801561039c57600080fd5b506103556103ab3660046131cc565b610e28565b3480156103bc57600080fd5b5061021d6103cb3660046131cc565b6110ce565b3480156103dc57600080fd5b506102596103eb366004612fe0565b61116a565b3480156103fc57600080fd5b5061021d61040b36600461301f565b61119b565b34801561041c57600080fd5b506101f26111cf565b34801561043157600080fd5b506103556104403660046131cc565b6111de565b34801561045157600080fd5b50610259611511565b34801561046657600080fd5b50610234611535565b34801561047b57600080fd5b506102596115d9565b34801561049057600080fd5b5061025961049f3660046131cc565b6115fd565b3480156104b057600080fd5b5061021d6104bf366004613243565b61169b565b61021d6104d23660046131fc565b611735565b3480156104e357600080fd5b50610259611e5e565b3480156104f857600080fd5b50610259611e95565b34801561050d57600080fd5b50610259611eb9565b34801561052257600080fd5b50610259611edd565b6000546001600160a01b031681565b42600c541061054857600080fd5b600054600b546001600160a01b0391821691639b5043879130911661056c82610b24565b6040518463ffffffff1660e01b815260040161058a939291906133c5565b600060405180830381600087803b1580156105a457600080fd5b505af11580156105b8573d6000803e3d6000fd5b5050600154600b546001600160a01b039182169350639b50438792503091166105e08261116a565b6040518463ffffffff1660e01b81526004016105fe939291906133c5565b600060405180830381600087803b15801561061857600080fd5b505af115801561062c573d6000803e3d6000fd5b50505050565b600080600080600760000154600160009054906101000a90046001600160a01b03166001600160a01b03166318160ddd6040518163ffffffff1660e01b815260040160206040518083038186803b15801561068c57600080fd5b505afa1580156106a0573d6000803e3d6000fd5b505050506040513d601f19601f820116820180604052508101906106c491906131e4565b600854600954929791965094509092509050565b600c5481565b60006106eb338484611f15565b9050348111156106fa57600080fd5b803411156107155761071533610710833461361c565b6126d1565b505050565b610724333461276d565b565b600154604051639b50438760e01b81526001600160a01b0390911690639b5043879061075a903390869086906004016133c5565b600060405180830381600087803b15801561077457600080fd5b505af1158015610788573d6000803e3d6000fd5b505050505050565b600a546001600160a01b031681565b600454600090806107b3578291505061088c565b60006107bf84836135c5565b6107d185670de0b6b3a76400006135fd565b6107db91906135dd565b90506107ef81670de0b6b3a764000061361c565b60008054906101000a90046001600160a01b03166001600160a01b03166318160ddd6040518163ffffffff1660e01b815260040160206040518083038186803b15801561083b57600080fd5b505afa15801561084f573d6000803e3d6000fd5b505050506040513d601f19601f8201168201806040525081019061087391906131e4565b61087d90836135fd565b61088791906135dd565b925050505b919050565b600080600a60009054906101000a90046001600160a01b03166001600160a01b031663a3342fba6040518163ffffffff1660e01b815260040160206040518083038186803b1580156108e257600080fd5b505afa1580156108f6573d6000803e3d6000fd5b505050506040513d601f19601f8201168201806040525081019061091a9190613003565b6001600160a01b0316336001600160a01b0316141561095d5760065461094090836135c5565b60095490925061095090826135c5565b6000600681905560095590505b600a60009054906101000a90046001600160a01b03166001600160a01b0316635aa6e6756040518163ffffffff1660e01b815260040160206040518083038186803b1580156109ab57600080fd5b505afa1580156109bf573d6000803e3d6000fd5b505050506040513d601f19601f820116820180604052508101906109e39190613003565b6001600160a01b0316630927d6046040518163ffffffff1660e01b815260040160206040518083038186803b158015610a1b57600080fd5b505afa158015610a2f573d6000803e3d6000fd5b505050506040513d601f19601f82011682018060405250810190610a539190613003565b6001600160a01b0316336001600160a01b03161415610a9657600554610a7990836135c5565b600854909250610a8990826135c5565b6000600581905560085590505b610aa083836126d1565b600a5460405163a9059cbb60e01b81526001600160a01b039091169063a9059cbb90610ad290869085906004016133e9565b602060405180830381600087803b158015610aec57600080fd5b505af1158015610b00573d6000803e3d6000fd5b505050506040513d601f19601f8201168201806040525081019061062c91906130ce565b600080546040516370a0823160e01b81526001600160a01b03909116906370a0823190610b55908590600401613397565b60206040518083038186803b158015610b6d57600080fd5b505afa158015610b81573d6000803e3d6000fd5b505050506040513d601f19601f82011682018060405250810190610ba591906131e4565b92915050565b600b546001600160a01b031681565b600954600854600a546040516370a0823160e01b81526000938493909290916001600160a01b03909116906370a0823190610bf9903090600401613397565b60206040518083038186803b158015610c1157600080fd5b505afa158015610c25573d6000803e3d6000fd5b505050506040513d601f19601f82011682018060405250810190610c4991906131e4565b610c53919061361c565b610c5d919061361c565b6007549091508110610c7b57600754610c76908261361c565b610c7e565b60005b91505090565b60025460035482565b600a546000906001600160a01b03163314610ca757600080fd5b600a546040516323b872dd60e01b81526001600160a01b03909116906323b872dd90610cdb908890309089906004016133c5565b602060405180830381600087803b158015610cf557600080fd5b505af1158015610d09573d6000803e3d6000fd5b505050506040513d601f19601f82011682018060405250810190610d2d91906130ce565b610d3657600080fd5b6000610d44838501856130ee565b90506001600160e01b031981167fda92b89b000000000000000000000000000000000000000000000000000000001415610d9b576000610d8684860186613108565b915050610d94878783612838565b5050610dfd565b6001600160e01b031981167f7cabec9e000000000000000000000000000000000000000000000000000000001415610ddc57610dd78686612e65565b610dfd565b60405162461bcd60e51b8152600401610df49061345e565b60405180910390fd5b507f7b04a2d00000000000000000000000000000000000000000000000000000000095945050505050565b60008060008311610e3857600080fd5b60008060009054906101000a90046001600160a01b03166001600160a01b03166318160ddd6040518163ffffffff1660e01b815260040160206040518083038186803b158015610e8757600080fd5b505afa158015610e9b573d6000803e3d6000fd5b505050506040513d601f19601f82011682018060405250810190610ebf91906131e4565b600654600554919250600091610ed5904761361c565b610edf919061361c565b90506000600460000154821115610f0f576004548390610f009088906135fd565b610f0a91906135dd565b610f24565b82610f1a87846135fd565b610f2491906135dd565b905060008387610f32610bba565b610f3c91906135fd565b610f4691906135dd565b9050610f52878561361c565b60048054600090610f649084906135fd565b909155505060048054859190600090610f7e9084906135dd565b90915550506000546040516390596dd160e01b81526001600160a01b03909116906390596dd190610fb59033908b906004016133e9565b600060405180830381600087803b158015610fcf57600080fd5b505af1158015610fe3573d6000803e3d6000fd5b50505050610ff133836126d1565b801561107d57600a5460405163a9059cbb60e01b81526001600160a01b039091169063a9059cbb9061102990339085906004016133e9565b602060405180830381600087803b15801561104357600080fd5b505af1158015611057573d6000803e3d6000fd5b505050506040513d601f19601f8201168201806040525081019061107b91906130ce565b505b336001600160a01b03167fcfadcd7d986ed7903e13b7d868449944074885e2d144030d5df5b1d35122fbe183838a6040516110ba93929190613594565b60405180910390a290945092505050915091565b600a546040516323b872dd60e01b81526001600160a01b03909116906323b872dd90611102903390309086906004016133c5565b602060405180830381600087803b15801561111c57600080fd5b505af1158015611130573d6000803e3d6000fd5b505050506040513d601f19601f8201168201806040525081019061115491906130ce565b61115d57600080fd5b6111673382612e65565b50565b6001546040516370a0823160e01b81526000916001600160a01b0316906370a0823190610b55908590600401613397565b600054604051639b50438760e01b81526001600160a01b0390911690639b5043879061075a903390869086906004016133c5565b6001546001600160a01b031681565b600080600083116111ee57600080fd5b600154604080517f18160ddd00000000000000000000000000000000000000000000000000000000815290516000926001600160a01b0316916318160ddd916004808301926020929190829003018186803b15801561124c57600080fd5b505afa158015611260573d6000803e3d6000fd5b505050506040513d601f19601f8201168201806040525081019061128491906131e4565b600954600854600a546040516370a0823160e01b81529394506000936001600160a01b03909116906370a08231906112c0903090600401613397565b60206040518083038186803b1580156112d857600080fd5b505afa1580156112ec573d6000803e3d6000fd5b505050506040513d601f19601f8201168201806040525081019061131091906131e4565b61131a919061361c565b611324919061361c565b905060006007600001548211156113545760075483906113459088906135fd565b61134f91906135dd565b611369565b8261135f87846135fd565b61136991906135dd565b905060008387611377611edd565b61138191906135fd565b61138b91906135dd565b9050611397878561361c565b600780546000906113a99084906135fd565b9091555050600780548591906000906113c39084906135dd565b90915550506001546040516390596dd160e01b81526001600160a01b03909116906390596dd1906113fa9033908b906004016133e9565b600060405180830381600087803b15801561141457600080fd5b505af1158015611428573d6000803e3d6000fd5b5050600a5460405163a9059cbb60e01b81526001600160a01b03909116925063a9059cbb915061145e90339086906004016133e9565b602060405180830381600087803b15801561147857600080fd5b505af115801561148c573d6000803e3d6000fd5b505050506040513d601f19601f820116820180604052508101906114b091906130ce565b5080156114c1576114c133826126d1565b336001600160a01b03167f0263b3fb8887d31293358381c39d7d407eae71196f413ea6a6df574023131a6a82848a6040516114fe93929190613594565b60405180910390a2945092505050915091565b7fcfb1dd89e6f4506eca597e7558fbcfe22dbc7e0b9f2b3956e121d0e344d6f7aa81565b60008060008060046000015460008054906101000a90046001600160a01b03166001600160a01b03166318160ddd6040518163ffffffff1660e01b815260040160206040518083038186803b15801561158d57600080fd5b505afa1580156115a1573d6000803e3d6000fd5b505050506040513d601f19601f820116820180604052508101906115c591906131e4565b600554600654929791965094509092509050565b7fdd0618e2e2a17ff193a933618181c8f8909dc169e9707cce1921893a88739ca081565b60075460009080611611578291505061088c565b600061161d84836135c5565b61162f85670de0b6b3a76400006135fd565b61163991906135dd565b905061164d81670de0b6b3a764000061361c565b600160009054906101000a90046001600160a01b03166001600160a01b03166318160ddd6040518163ffffffff1660e01b815260040160206040518083038186803b15801561083b57600080fd5b600a546040516323b872dd60e01b81526001600160a01b03909116906323b872dd906116cf903390309087906004016133c5565b602060405180830381600087803b1580156116e957600080fd5b505af11580156116fd573d6000803e3d6000fd5b505050506040513d601f19601f8201168201806040525081019061172191906130ce565b61172a57600080fd5b610715338383612838565b600a546001600160a01b03161561174b57600080fd5b6000836001600160a01b03166318160ddd6040518163ffffffff1660e01b815260040160206040518083038186803b15801561178657600080fd5b505afa15801561179a573d6000803e3d6000fd5b505050506040513d601f19601f820116820180604052508101906117be91906131e4565b90506000846001600160a01b03166306fdde036040518163ffffffff1660e01b815260040160006040518083038186803b1580156117fb57600080fd5b505afa15801561180f573d6000803e3d6000fd5b505050506040513d6000823e601f3d908101601f191682016040526118379190810190613123565b90506000856001600160a01b03166395d89b416040518163ffffffff1660e01b815260040160006040518083038186803b15801561187457600080fd5b505afa158015611888573d6000803e3d6000fd5b505050506040513d6000823e601f3d908101601f191682016040526118b09190810190613123565b90506118db7f0000000000000000000000000000000000000000000000000000000000000000612f24565b6000805473ffffffffffffffffffffffffffffffffffffffff19166001600160a01b03929092169190911790556119317f0000000000000000000000000000000000000000000000000000000000000000612f24565b6001805473ffffffffffffffffffffffffffffffffffffffff19166001600160a01b039283161790556000546040519116906390657147903090611979908690602001613312565b604051602081830303815290604052846040516020016119999190613353565b6040516020818303038152906040526040518463ffffffff1660e01b81526004016119c693929190613402565b600060405180830381600087803b1580156119e057600080fd5b505af11580156119f4573d6000803e3d6000fd5b50506001546040516001600160a01b039091169250639065714791503090611a209086906020016132d1565b60405160208183030381529060405284604051602001611a409190613290565b6040516020818303038152906040526040518463ffffffff1660e01b8152600401611a6d93929190613402565b600060405180830381600087803b158015611a8757600080fd5b505af1158015611a9b573d6000803e3d6000fd5b5050600a80546001600160a01b03808b1673ffffffffffffffffffffffffffffffffffffffff199283168117909355600b8054918b1691909216179055604080517f5aa6e6750000000000000000000000000000000000000000000000000000000081529051919350635aa6e6759250600480820192602092909190829003018186803b158015611b2b57600080fd5b505afa158015611b3f573d6000803e3d6000fd5b505050506040513d601f19601f82011682018060405250810190611b639190613003565b604051627ebcdb60e21b81526001600160a01b0391909116906301faf36c90611bb29089907f4babff57ebd34f251a515a845400ed950a51f0a64c92e803a3e144fc40623fa8906004016133e9565b60206040518083038186803b158015611bca57600080fd5b505afa158015611bde573d6000803e3d6000fd5b505050506040513d601f19601f82011682018060405250810190611c0291906131e4565b611c0c90426135c5565b600c556040517f908408e307fc569b417f6cbec5d5a06f44a0a505ac0479b47d421a4b2fd6a1e690611c3f908890613397565b60405180910390a18615611cd8576040516323b872dd60e01b81526001600160a01b038716906323b872dd90611c7d90339030908c906004016133c5565b602060405180830381600087803b158015611c9757600080fd5b505af1158015611cab573d6000803e3d6000fd5b505050506040513d601f19601f82011682018060405250810190611ccf91906130ce565b611cd857600080fd5b6002839055670de0b6b3a764000084611cf185806135fd565b611cfb91906135fd565b611d0591906135dd565b600355600054604051630baf60eb60e31b81526001600160a01b0390911690635d7b075890611d3a90309034906004016133e9565b600060405180830381600087803b158015611d5457600080fd5b505af1158015611d68573d6000803e3d6000fd5b5050600154604051630baf60eb60e31b81526001600160a01b039091169250635d7b07589150611d9e9030908b906004016133e9565b600060405180830381600087803b158015611db857600080fd5b505af1158015611dcc573d6000803e3d6000fd5b505034600481905560078a90556040513093507f6620e0774e01a1d5b97772375d103248f2223f7367ecefa0c580d8230decef5a9250611e0c9190613440565b60405180910390a2306001600160a01b03167f4f0c65dc19ed7bd52ba3051b8d85e779e514fed82d8ae5991b8d21c59d95b6f488604051611e4d9190613440565b60405180910390a250505050505050565b600254600354600091908190611e7c90670de0b6b3a76400006135fd565b611e8691906135dd565b611e9091906135dd565b905090565b7fe4f5729eb40e38b5a39dfb36d76ead9f9bc286f06852595980c5078f1af7e8c981565b7f4babff57ebd34f251a515a845400ed950a51f0a64c92e803a3e144fc40623fa881565b6006546005546000918291611ef2904761361c565b611efc919061361c565b6004549091508110610c7b57600454610c76908261361c565b600080600a60009054906101000a90046001600160a01b03166001600160a01b0316635aa6e6756040518163ffffffff1660e01b815260040160206040518083038186803b158015611f6657600080fd5b505afa158015611f7a573d6000803e3d6000fd5b505050506040513d601f19601f82011682018060405250810190611f9e9190613003565b90506000600a60009054906101000a90046001600160a01b03166001600160a01b0316638da5cb5b6040518163ffffffff1660e01b815260040160206040518083038186803b158015611ff057600080fd5b505afa158015612004573d6000803e3d6000fd5b505050506040513d601f19601f820116820180604052508101906120289190613003565b90506000600a60009054906101000a90046001600160a01b03166001600160a01b031663a3342fba6040518163ffffffff1660e01b815260040160206040518083038186803b15801561207a57600080fd5b505afa15801561208e573d6000803e3d6000fd5b505050506040513d601f19601f820116820180604052508101906120b29190613003565b90506001600160a01b03821615806121495750600a546040516376e5694160e11b81526001600160a01b038581169263edcad282926120f9929091169086906004016133ab565b60206040518083038186803b15801561211157600080fd5b505afa158015612125573d6000803e3d6000fd5b505050506040513d601f19601f8201168201806040525081019061214991906130ce565b61215257600080fd5b61215a612faa565b600a54604051627ebcdb60e21b81526001600160a01b03868116926301faf36c926121ad92909116907fe4f5729eb40e38b5a39dfb36d76ead9f9bc286f06852595980c5078f1af7e8c9906004016133e9565b60206040518083038186803b1580156121c557600080fd5b505afa1580156121d9573d6000803e3d6000fd5b505050506040513d601f19601f820116820180604052508101906121fd91906131e4565b8152600a54604051627ebcdb60e21b81526001600160a01b03868116926301faf36c9261225292909116907fcfb1dd89e6f4506eca597e7558fbcfe22dbc7e0b9f2b3956e121d0e344d6f7aa906004016133e9565b60206040518083038186803b15801561226a57600080fd5b505afa15801561227e573d6000803e3d6000fd5b505050506040513d601f19601f820116820180604052508101906122a291906131e4565b60208201526001600160a01b0382161561235e57600a54604051627ebcdb60e21b81526001600160a01b03868116926301faf36c9261230992909116907fdd0618e2e2a17ff193a933618181c8f8909dc169e9707cce1921893a88739ca0906004016133e9565b60206040518083038186803b15801561232157600080fd5b505afa158015612335573d6000803e3d6000fd5b505050506040513d601f19601f8201168201806040525081019061235991906131e4565b612361565b60005b6040820181905260208201518251600092670de0b6b3a764000092909161238890846135c5565b61239291906135c5565b61239c91906135c5565b6123a6908a6135fd565b6123b091906135dd565b90506000816002600001546123c5919061361c565b90506000816002600101546123da91906135dd565b90506000821180156123ec5750600081115b6123f557600080fd5b600254600354600091612407916135dd565b612411908361361c565b90508981111561242057600080fd5b60408501516020860151670de0b6b3a7640000919061243f90836135c5565b61244991906135c5565b612453908d6135fd565b61245d91906135dd565b600954600854600a546040516370a0823160e01b81526001600160a01b03909116906370a0823190612493903090600401613397565b60206040518083038186803b1580156124ab57600080fd5b505afa1580156124bf573d6000803e3d6000fd5b505050506040513d601f19601f820116820180604052508101906124e391906131e4565b6124ed919061361c565b6124f7919061361c565b101561250257600080fd5b60408501516020860151670de0b6b3a7640000919061252190836135c5565b61252b91906135c5565b612535908d6135fd565b61253f91906135dd565b60025461254c919061361c565b6002558451670de0b6b3a764000090612565908d6135fd565b61256f91906135dd565b600780546000906125819084906135c5565b90915550506020850151670de0b6b3a76400009061259f908d6135fd565b6125a991906135dd565b600880546000906125bb9084906135c5565b90915550506040850151670de0b6b3a7640000906125d9908d6135fd565b6125e391906135dd565b600980546000906125f59084906135c5565b9091555050600a5460405163a9059cbb60e01b81526001600160a01b039091169063a9059cbb9061262c908f908f906004016133e9565b602060405180830381600087803b15801561264657600080fd5b505af115801561265a573d6000803e3d6000fd5b505050506040513d601f19601f8201168201806040525081019061267e91906130ce565b508b6001600160a01b03167f9c47f3aea4ae6f59b460e34f63a8022f456438a45fb372a707456f7a2784fcd98c836040516126ba929190613586565b60405180910390a29b9a5050505050505050505050565b804710156126f15760405162461bcd60e51b8152600401610df490613518565b6000826001600160a01b03168260405161270a90613394565b60006040518083038185875af1925050503d8060008114612747576040519150601f19603f3d011682016040523d82523d6000602084013e61274c565b606091505b50509050806107155760405162461bcd60e51b8152600401610df4906134bb565b6000546001600160a01b0316635d7b0758836127888461079f565b6040518363ffffffff1660e01b81526004016127a59291906133e9565b600060405180830381600087803b1580156127bf57600080fd5b505af11580156127d3573d6000803e3d6000fd5b5050505080600460000160008282546127ec91906135c5565b92505081905550816001600160a01b03167f6620e0774e01a1d5b97772375d103248f2223f7367ecefa0c580d8230decef5a8260405161282c9190613440565b60405180910390a25050565b600080600a60009054906101000a90046001600160a01b03166001600160a01b0316635aa6e6756040518163ffffffff1660e01b815260040160206040518083038186803b15801561288957600080fd5b505afa15801561289d573d6000803e3d6000fd5b505050506040513d601f19601f820116820180604052508101906128c19190613003565b90506000600a60009054906101000a90046001600160a01b03166001600160a01b0316638da5cb5b6040518163ffffffff1660e01b815260040160206040518083038186803b15801561291357600080fd5b505afa158015612927573d6000803e3d6000fd5b505050506040513d601f19601f8201168201806040525081019061294b9190613003565b90506000600a60009054906101000a90046001600160a01b03166001600160a01b031663a3342fba6040518163ffffffff1660e01b815260040160206040518083038186803b15801561299d57600080fd5b505afa1580156129b1573d6000803e3d6000fd5b505050506040513d601f19601f820116820180604052508101906129d59190613003565b90506001600160a01b0382161580612a6c5750600a546040516376e5694160e11b81526001600160a01b038581169263edcad28292612a1c929091169086906004016133ab565b60206040518083038186803b158015612a3457600080fd5b505afa158015612a48573d6000803e3d6000fd5b505050506040513d601f19601f82011682018060405250810190612a6c91906130ce565b612a7557600080fd5b612a7d612faa565b600a54604051627ebcdb60e21b81526001600160a01b03868116926301faf36c92612ad092909116907fe4f5729eb40e38b5a39dfb36d76ead9f9bc286f06852595980c5078f1af7e8c9906004016133e9565b60206040518083038186803b158015612ae857600080fd5b505afa158015612afc573d6000803e3d6000fd5b505050506040513d601f19601f82011682018060405250810190612b2091906131e4565b8152600a54604051627ebcdb60e21b81526001600160a01b03868116926301faf36c92612b7592909116907fcfb1dd89e6f4506eca597e7558fbcfe22dbc7e0b9f2b3956e121d0e344d6f7aa906004016133e9565b60206040518083038186803b158015612b8d57600080fd5b505afa158015612ba1573d6000803e3d6000fd5b505050506040513d601f19601f82011682018060405250810190612bc591906131e4565b60208201526001600160a01b03821615612c8157600a54604051627ebcdb60e21b81526001600160a01b03868116926301faf36c92612c2c92909116907fdd0618e2e2a17ff193a933618181c8f8909dc169e9707cce1921893a88739ca0906004016133e9565b60206040518083038186803b158015612c4457600080fd5b505afa158015612c58573d6000803e3d6000fd5b505050506040513d601f19601f82011682018060405250810190612c7c91906131e4565b612c84565b60005b6040820152600254600090612c9a9089906135c5565b9050600081600260010154612caf91906135dd565b9050600082118015612cc15750600081115b612cca57600080fd5b6002546003546000918391612cdf91906135dd565b612ce9919061361c565b60065460055491925090612cfd904761361c565b612d07919061361c565b811115612d1357600080fd5b604084015160208501518551600092670de0b6b3a7640000929091612d38908461361c565b612d42919061361c565b612d4c919061361c565b612d5690846135fd565b612d6091906135dd565b905089811015612d6f57600080fd5b60028490558451670de0b6b3a764000090612d8a90846135fd565b612d9491906135dd565b60048054600090612da69084906135c5565b90915550506020850151670de0b6b3a764000090612dc490846135fd565b612dce91906135dd565b60058054600090612de09084906135c5565b90915550506040850151670de0b6b3a764000090612dfe90846135fd565b612e0891906135dd565b60068054600090612e1a9084906135c5565b90915550612e2a90508c826126d1565b8b6001600160a01b03167fbea455d4604caa788f862499efde7bc7f24081f52db686c99c904ff715373b9b8c836040516126ba929190613586565b6001546001600160a01b0316635d7b075883612e80846115fd565b6040518363ffffffff1660e01b8152600401612e9d9291906133e9565b600060405180830381600087803b158015612eb757600080fd5b505af1158015612ecb573d6000803e3d6000fd5b505050508060076000016000828254612ee491906135c5565b92505081905550816001600160a01b03167f4f0c65dc19ed7bd52ba3051b8d85e779e514fed82d8ae5991b8d21c59d95b6f48260405161282c9190613440565b60006040517f3d602d80600a3d3981f3363d3d373d3d3d363d7300000000000000000000000081528260601b60148201527f5af43d82803e903d91602b57fd5bf3000000000000000000000000000000000060288201526037816000f09150506001600160a01b03811661088c5760405162461bcd60e51b8152600401610df49061354f565b60405180606001604052806003906020820280368337509192915050565b80356001600160e01b03198116811461088c57600080fd5b600060208284031215612ff1578081fd5b8135612ffc8161368b565b9392505050565b600060208284031215613014578081fd5b8151612ffc8161368b565b60008060408385031215613031578081fd5b823561303c8161368b565b946020939093013593505050565b6000806000806060858703121561305f578182fd5b843561306a8161368b565b935060208501359250604085013567ffffffffffffffff8082111561308d578384fd5b818701915087601f8301126130a0578384fd5b8135818111156130ae578485fd5b8860208285010111156130bf578485fd5b95989497505060200194505050565b6000602082840312156130df578081fd5b81518015158114612ffc578182fd5b6000602082840312156130ff578081fd5b612ffc82612fc8565b6000806040838503121561311a578182fd5b61303c83612fc8565b600060208284031215613134578081fd5b815167ffffffffffffffff8082111561314b578283fd5b818401915084601f83011261315e578283fd5b81518181111561317057613170613675565b604051601f8201601f19908116603f0116810190838211818310171561319857613198613675565b816040528281528760208487010111156131b0578586fd5b6131c1836020830160208801613633565b979650505050505050565b6000602082840312156131dd578081fd5b5035919050565b6000602082840312156131f5578081fd5b5051919050565b60008060008060808587031215613211578384fd5b8435935060208501356132238161368b565b925060408501356132338161368b565b9396929550929360600135925050565b60008060408385031215613255578182fd5b50508035926020909101359150565b6000815180845261327c816020860160208601613633565b601f01601f19169290920160200192915050565b600082516132a2818460208701613633565b7f2d534c5000000000000000000000000000000000000000000000000000000000920191825250600401919050565b600082516132e3818460208701613633565b7f2d53686172644c50000000000000000000000000000000000000000000000000920191825250600801919050565b60008251613324818460208701613633565b7f2d45746865724c50000000000000000000000000000000000000000000000000920191825250600801919050565b60008251613365818460208701613633565b7f2d454c5000000000000000000000000000000000000000000000000000000000920191825250600401919050565b90565b6001600160a01b0391909116815260200190565b6001600160a01b0392831681529116602082015260400190565b6001600160a01b039384168152919092166020820152604081019190915260600190565b6001600160a01b03929092168252602082015260400190565b60006001600160a01b0385168252606060208301526134246060830185613264565b82810360408401526134368185613264565b9695505050505050565b90815260200190565b6001600160e01b031991909116815260200190565b6020808252602b908201527f696e76616c69642073656c6563746f7220696e206f6e417070726f76616c526560408201527f6365697665642064617461000000000000000000000000000000000000000000606082015260800190565b6020808252603a908201527f416464726573733a20756e61626c6520746f2073656e642076616c75652c207260408201527f6563697069656e74206d61792068617665207265766572746564000000000000606082015260800190565b6020808252601d908201527f416464726573733a20696e73756666696369656e742062616c616e6365000000604082015260600190565b60208082526016908201527f455243313136373a20637265617465206661696c656400000000000000000000604082015260600190565b918252602082015260400190565b9283526020830191909152604082015260600190565b93845260208401929092526040830152606082015260800190565b600082198211156135d8576135d861365f565b500190565b6000826135f857634e487b7160e01b81526012600452602481fd5b500490565b60008160001904831182151516156136175761361761365f565b500290565b60008282101561362e5761362e61365f565b500390565b60005b8381101561364e578181015183820152602001613636565b8381111561062c5750506000910152565b634e487b7160e01b600052601160045260246000fd5b634e487b7160e01b600052604160045260246000fd5b6001600160a01b038116811461116757600080fdfea264697066735822122048f39215bb4438714905235b5fa4b811266987133e4996cd284145258ad9605a64736f6c63430008010033608060405234801561001057600080fd5b50600580546001600160a01b03191661dead1790556111b8806100346000396000f3fe608060405234801561001057600080fd5b50600436106101365760003560e01c806379cc6790116100b25780639b50438711610081578063a9059cbb11610066578063a9059cbb1461026b578063d331ce0f1461027e578063dd62ed3e1461029357610136565b80639b50438714610245578063a457c2d71461025857610136565b806379cc67901461020457806390596dd114610217578063906571471461022a57806395d89b411461023d57610136565b8063313ce5671161010957806342966c68116100ee57806342966c68146101c95780635d7b0758146101de57806370a08231146101f157610136565b8063313ce567146101a157806339509351146101b657610136565b806306fdde031461013b578063095ea7b31461015957806318160ddd1461017957806323b872dd1461018e575b600080fd5b6101436102a6565b6040516101509190610ca9565b60405180910390f35b61016c610167366004610c49565b610338565b6040516101509190610c9e565b610181610355565b60405161015091906110d5565b61016c61019c366004610b9d565b61035b565b6101a96103fb565b60405161015091906110de565b61016c6101c4366004610c49565b610400565b6101dc6101d7366004610c72565b61044f565b005b6101dc6101ec366004610c49565b610463565b6101816101ff366004610b4a565b610488565b6101dc610212366004610c49565b6104a7565b6101dc610225366004610c49565b6104fc565b6101dc610238366004610bd8565b61051d565b610143610570565b6101dc610253366004610b9d565b61057f565b61016c610266366004610c49565b6105a1565b61016c610279366004610c49565b61061c565b610286610630565b6040516101509190610c8a565b6101816102a1366004610b6b565b61063f565b6060600380546102b59061111b565b80601f01602080910402602001604051908101604052809291908181526020018280546102e19061111b565b801561032e5780601f106103035761010080835404028352916020019161032e565b820191906000526020600020905b81548152906001019060200180831161031157829003601f168201915b5050505050905090565b600061034c61034561066a565b848461066e565b50600192915050565b60025490565b6000610368848484610722565b6001600160a01b03841660009081526001602052604081208161038961066a565b6001600160a01b03166001600160a01b03168152602001908152602001600020549050828110156103d55760405162461bcd60e51b81526004016103cc90610e70565b60405180910390fd5b6103f0856103e161066a565b6103eb8685611104565b61066e565b506001949350505050565b601290565b600061034c61040d61066a565b84846001600061041b61066a565b6001600160a01b03908116825260208083019390935260409182016000908120918b16815292529020546103eb91906110ec565b61046061045a61066a565b8261084a565b50565b6005546001600160a01b0316331461047a57600080fd5b6104848282610930565b5050565b6001600160a01b0381166000908152602081905260409020545b919050565b60006104b5836102a161066a565b9050818110156104d75760405162461bcd60e51b81526004016103cc90610ecd565b6104ed836104e361066a565b6103eb8585611104565b6104f7838361084a565b505050565b6005546001600160a01b0316331461051357600080fd5b610484828261084a565b6005546001600160a01b03161561053357600080fd5b600580547fffffffffffffffffffffffff0000000000000000000000000000000000000000166001600160a01b0385161790556104f782826109f0565b6060600480546102b59061111b565b6005546001600160a01b0316331461059657600080fd5b6104f7838383610722565b600080600160006105b061066a565b6001600160a01b03908116825260208083019390935260409182016000908120918816815292529020549050828110156105fc5760405162461bcd60e51b81526004016103cc90611041565b61061261060761066a565b856103eb8685611104565b5060019392505050565b600061034c61062961066a565b8484610722565b6005546001600160a01b031681565b6001600160a01b03918216600090815260016020908152604080832093909416825291909152205490565b3390565b6001600160a01b0383166106945760405162461bcd60e51b81526004016103cc90610fe4565b6001600160a01b0382166106ba5760405162461bcd60e51b81526004016103cc90610db6565b6001600160a01b0380841660008181526001602090815260408083209487168084529490915290819020849055517f8c5be1e5ebec7d5bd14f71427d1e84f3dd0314c0f7b2291e5b200ac8c7c3b925906107159085906110d5565b60405180910390a3505050565b6001600160a01b0383166107485760405162461bcd60e51b81526004016103cc90610f87565b6001600160a01b03821661076e5760405162461bcd60e51b81526004016103cc90610cfc565b6107798383836104f7565b6001600160a01b038316600090815260208190526040902054818110156107b25760405162461bcd60e51b81526004016103cc90610e13565b6107bc8282611104565b6001600160a01b0380861660009081526020819052604080822093909355908516815290812080548492906107f29084906110ec565b92505081905550826001600160a01b0316846001600160a01b03167fddf252ad1be2c89b69c2b068fc378daa952ba7f163c4a11628f55a4df523b3ef8460405161083c91906110d5565b60405180910390a350505050565b6001600160a01b0382166108705760405162461bcd60e51b81526004016103cc90610f2a565b61087c826000836104f7565b6001600160a01b038216600090815260208190526040902054818110156108b55760405162461bcd60e51b81526004016103cc90610d59565b6108bf8282611104565b6001600160a01b038416600090815260208190526040812091909155600280548492906108ed908490611104565b90915550506040516000906001600160a01b038516907fddf252ad1be2c89b69c2b068fc378daa952ba7f163c4a11628f55a4df523b3ef906107159086906110d5565b6001600160a01b0382166109565760405162461bcd60e51b81526004016103cc9061109e565b610962600083836104f7565b806002600082825461097491906110ec565b90915550506001600160a01b038216600090815260208190526040812080548392906109a19084906110ec565b90915550506040516001600160a01b038316906000907fddf252ad1be2c89b69c2b068fc378daa952ba7f163c4a11628f55a4df523b3ef906109e49085906110d5565b60405180910390a35050565b8151610a03906003906020850190610a13565b5080516104f79060049060208401905b828054610a1f9061111b565b90600052602060002090601f016020900481019282610a415760008555610a87565b82601f10610a5a57805160ff1916838001178555610a87565b82800160010185558215610a87579182015b82811115610a87578251825591602001919060010190610a6c565b50610a93929150610a97565b5090565b5b80821115610a935760008155600101610a98565b80356001600160a01b03811681146104a257600080fd5b600082601f830112610ad3578081fd5b813567ffffffffffffffff80821115610aee57610aee61116c565b604051601f8301601f19908116603f01168101908282118183101715610b1657610b1661116c565b81604052838152866020858801011115610b2e578485fd5b8360208701602083013792830160200193909352509392505050565b600060208284031215610b5b578081fd5b610b6482610aac565b9392505050565b60008060408385031215610b7d578081fd5b610b8683610aac565b9150610b9460208401610aac565b90509250929050565b600080600060608486031215610bb1578081fd5b610bba84610aac565b9250610bc860208501610aac565b9150604084013590509250925092565b600080600060608486031215610bec578283fd5b610bf584610aac565b9250602084013567ffffffffffffffff80821115610c11578384fd5b610c1d87838801610ac3565b93506040860135915080821115610c32578283fd5b50610c3f86828701610ac3565b9150509250925092565b60008060408385031215610c5b578182fd5b610c6483610aac565b946020939093013593505050565b600060208284031215610c83578081fd5b5035919050565b6001600160a01b0391909116815260200190565b901515815260200190565b6000602080835283518082850152825b81811015610cd557858101830151858201604001528201610cb9565b81811115610ce65783604083870101525b50601f01601f1916929092016040019392505050565b60208082526023908201527f45524332303a207472616e7366657220746f20746865207a65726f206164647260408201527f6573730000000000000000000000000000000000000000000000000000000000606082015260800190565b60208082526022908201527f45524332303a206275726e20616d6f756e7420657863656564732062616c616e60408201527f6365000000000000000000000000000000000000000000000000000000000000606082015260800190565b60208082526022908201527f45524332303a20617070726f766520746f20746865207a65726f20616464726560408201527f7373000000000000000000000000000000000000000000000000000000000000606082015260800190565b60208082526026908201527f45524332303a207472616e7366657220616d6f756e742065786365656473206260408201527f616c616e63650000000000000000000000000000000000000000000000000000606082015260800190565b60208082526028908201527f45524332303a207472616e7366657220616d6f756e742065786365656473206160408201527f6c6c6f77616e6365000000000000000000000000000000000000000000000000606082015260800190565b60208082526024908201527f45524332303a206275726e20616d6f756e74206578636565647320616c6c6f7760408201527f616e636500000000000000000000000000000000000000000000000000000000606082015260800190565b60208082526021908201527f45524332303a206275726e2066726f6d20746865207a65726f2061646472657360408201527f7300000000000000000000000000000000000000000000000000000000000000606082015260800190565b60208082526025908201527f45524332303a207472616e736665722066726f6d20746865207a65726f20616460408201527f6472657373000000000000000000000000000000000000000000000000000000606082015260800190565b60208082526024908201527f45524332303a20617070726f76652066726f6d20746865207a65726f2061646460408201527f7265737300000000000000000000000000000000000000000000000000000000606082015260800190565b60208082526025908201527f45524332303a2064656372656173656420616c6c6f77616e63652062656c6f7760408201527f207a65726f000000000000000000000000000000000000000000000000000000606082015260800190565b6020808252601f908201527f45524332303a206d696e7420746f20746865207a65726f206164647265737300604082015260600190565b90815260200190565b60ff91909116815260200190565b600082198211156110ff576110ff611156565b500190565b60008282101561111657611116611156565b500390565b60028104600182168061112f57607f821691505b6020821081141561115057634e487b7160e01b600052602260045260246000fd5b50919050565b634e487b7160e01b600052601160045260246000fd5b634e487b7160e01b600052604160045260246000fdfea2646970667358221220ec3c61db7ff02ae5b4729bfb9bffea470efe375579f06dae61310530e2b416dd64736f6c63430008010033",
  "linkReferences": {},
  "deployedLinkReferences": {}
}