{
  "_format": "hh-sol-artifact-1",
  "contractName": "LiquidityToken",
  "sourceName": "contracts/initializable/BondingCurve3.sol",
  "abi": [
    {
      "inputs": [],
      "stateMutability": "nonpayable",
      "type": "constructor"
    },
    {
      "anonymous": false,
      "inputs": [
        {
          "indexed": true,
          "internalType": "address",
          "name": "owner",
          "type": "address"
        },
        {
          "indexed": true,
          "internalType": "address",
          "name": "spender",
          "type": "address"
        },
        {
          "indexed": false,
          "internalType": "uint256",
          "name": "value",
          "type": "uint256"
        }
      ],
      "name": "Approval",
      "type": "event"
    },
    {
      "anonymous": false,
      "inputs": [
        {
          "indexed": true,
          "internalType": "address",
          "name": "from",
          "type": "address"
        },
        {
          "indexed": true,
          "internalType": "address",
          "name": "to",
          "type": "address"
        },
        {
          "indexed": false,
          "internalType": "uint256",
          "name": "value",
          "type": "uint256"
        }
      ],
      "name": "Transfer",
      "type": "event"
    },
    {
      "inputs": [
        {
          "internalType": "address",
          "name": "owner",
          "type": "address"
        },
        {
          "internalType": "address",
          "name": "spender",
          "type": "address"
        }
      ],
      "name": "allowance",
      "outputs": [
        {
          "internalType": "uint256",
          "name": "",
          "type": "uint256"
        }
      ],
      "stateMutability": "view",
      "type": "function"
    },
    {
      "inputs": [
        {
          "internalType": "address",
          "name": "spender",
          "type": "address"
        },
        {
          "internalType": "uint256",
          "name": "amount",
          "type": "uint256"
        }
      ],
      "name": "approve",
      "outputs": [
        {
          "internalType": "bool",
          "name": "",
          "type": "bool"
        }
      ],
      "stateMutability": "nonpayable",
      "type": "function"
    },
    {
      "inputs": [
        {
          "internalType": "address",
          "name": "account",
          "type": "address"
        }
      ],
      "name": "balanceOf",
      "outputs": [
        {
          "internalType": "uint256",
          "name": "",
          "type": "uint256"
        }
      ],
      "stateMutability": "view",
      "type": "function"
    },
    {
      "inputs": [
        {
          "internalType": "uint256",
          "name": "amount",
          "type": "uint256"
        }
      ],
      "name": "burn",
      "outputs": [],
      "stateMutability": "nonpayable",
      "type": "function"
    },
    {
      "inputs": [
        {
          "internalType": "address",
          "name": "account",
          "type": "address"
        },
        {
          "internalType": "uint256",
          "name": "amount",
          "type": "uint256"
        }
      ],
      "name": "burnFrom",
      "outputs": [],
      "stateMutability": "nonpayable",
      "type": "function"
    },
    {
      "inputs": [],
      "name": "controler",
      "outputs": [
        {
          "internalType": "address",
          "name": "",
          "type": "address"
        }
      ],
      "stateMutability": "view",
      "type": "function"
    },
    {
      "inputs": [
        {
          "internalType": "address",
          "name": "account",
          "type": "address"
        },
        {
          "internalType": "uint256",
          "name": "amount",
          "type": "uint256"
        }
      ],
      "name": "controllerBurn",
      "outputs": [],
      "stateMutability": "nonpayable",
      "type": "function"
    },
    {
      "inputs": [
        {
          "internalType": "address",
          "name": "account",
          "type": "address"
        },
        {
          "internalType": "uint256",
          "name": "amount",
          "type": "uint256"
        }
      ],
      "name": "controllerMint",
      "outputs": [],
      "stateMutability": "nonpayable",
      "type": "function"
    },
    {
      "inputs": [
        {
          "internalType": "address",
          "name": "sender",
          "type": "address"
        },
        {
          "internalType": "address",
          "name": "recipient",
          "type": "address"
        },
        {
          "internalType": "uint256",
          "name": "amount",
          "type": "uint256"
        }
      ],
      "name": "controllerTransfer",
      "outputs": [],
      "stateMutability": "nonpayable",
      "type": "function"
    },
    {
      "inputs": [],
      "name": "decimals",
      "outputs": [
        {
          "internalType": "uint8",
          "name": "",
          "type": "uint8"
        }
      ],
      "stateMutability": "view",
      "type": "function"
    },
    {
      "inputs": [
        {
          "internalType": "address",
          "name": "spender",
          "type": "address"
        },
        {
          "internalType": "uint256",
          "name": "subtractedValue",
          "type": "uint256"
        }
      ],
      "name": "decreaseAllowance",
      "outputs": [
        {
          "internalType": "bool",
          "name": "",
          "type": "bool"
        }
      ],
      "stateMutability": "nonpayable",
      "type": "function"
    },
    {
      "inputs": [
        {
          "internalType": "address",
          "name": "spender",
          "type": "address"
        },
        {
          "internalType": "uint256",
          "name": "addedValue",
          "type": "uint256"
        }
      ],
      "name": "increaseAllowance",
      "outputs": [
        {
          "internalType": "bool",
          "name": "",
          "type": "bool"
        }
      ],
      "stateMutability": "nonpayable",
      "type": "function"
    },
    {
      "inputs": [
        {
          "internalType": "address",
          "name": "controler_",
          "type": "address"
        },
        {
          "internalType": "string",
          "name": "name_",
          "type": "string"
        },
        {
          "internalType": "string",
          "name": "symbol_",
          "type": "string"
        }
      ],
      "name": "initialize",
      "outputs": [],
      "stateMutability": "nonpayable",
      "type": "function"
    },
    {
      "inputs": [],
      "name": "name",
      "outputs": [
        {
          "internalType": "string",
          "name": "",
          "type": "string"
        }
      ],
      "stateMutability": "view",
      "type": "function"
    },
    {
      "inputs": [],
      "name": "symbol",
      "outputs": [
        {
          "internalType": "string",
          "name": "",
          "type": "string"
        }
      ],
      "stateMutability": "view",
      "type": "function"
    },
    {
      "inputs": [],
      "name": "totalSupply",
      "outputs": [
        {
          "internalType": "uint256",
          "name": "",
          "type": "uint256"
        }
      ],
      "stateMutability": "view",
      "type": "function"
    },
    {
      "inputs": [
        {
          "internalType": "address",
          "name": "recipient",
          "type": "address"
        },
        {
          "internalType": "uint256",
          "name": "amount",
          "type": "uint256"
        }
      ],
      "name": "transfer",
      "outputs": [
        {
          "internalType": "bool",
          "name": "",
          "type": "bool"
        }
      ],
      "stateMutability": "nonpayable",
      "type": "function"
    },
    {
      "inputs": [
        {
          "internalType": "address",
          "name": "sender",
          "type": "address"
        },
        {
          "internalType": "address",
          "name": "recipient",
          "type": "address"
        },
        {
          "internalType": "uint256",
          "name": "amount",
          "type": "uint256"
        }
      ],
      "name": "transferFrom",
      "outputs": [
        {
          "internalType": "bool",
          "name": "",
          "type": "bool"
        }
      ],
      "stateMutability": "nonpayable",
      "type": "function"
    }
  ],
  "bytecode": "0x608060405234801561001057600080fd5b50600580546001600160a01b03191661dead1790556111b8806100346000396000f3fe608060405234801561001057600080fd5b50600436106101365760003560e01c806379cc6790116100b25780639b50438711610081578063a9059cbb11610066578063a9059cbb1461026b578063d331ce0f1461027e578063dd62ed3e1461029357610136565b80639b50438714610245578063a457c2d71461025857610136565b806379cc67901461020457806390596dd114610217578063906571471461022a57806395d89b411461023d57610136565b8063313ce5671161010957806342966c68116100ee57806342966c68146101c95780635d7b0758146101de57806370a08231146101f157610136565b8063313ce567146101a157806339509351146101b657610136565b806306fdde031461013b578063095ea7b31461015957806318160ddd1461017957806323b872dd1461018e575b600080fd5b6101436102a6565b6040516101509190610ca9565b60405180910390f35b61016c610167366004610c49565b610338565b6040516101509190610c9e565b610181610355565b60405161015091906110d5565b61016c61019c366004610b9d565b61035b565b6101a96103fb565b60405161015091906110de565b61016c6101c4366004610c49565b610400565b6101dc6101d7366004610c72565b61044f565b005b6101dc6101ec366004610c49565b610463565b6101816101ff366004610b4a565b610488565b6101dc610212366004610c49565b6104a7565b6101dc610225366004610c49565b6104fc565b6101dc610238366004610bd8565b61051d565b610143610570565b6101dc610253366004610b9d565b61057f565b61016c610266366004610c49565b6105a1565b61016c610279366004610c49565b61061c565b610286610630565b6040516101509190610c8a565b6101816102a1366004610b6b565b61063f565b6060600380546102b59061111b565b80601f01602080910402602001604051908101604052809291908181526020018280546102e19061111b565b801561032e5780601f106103035761010080835404028352916020019161032e565b820191906000526020600020905b81548152906001019060200180831161031157829003601f168201915b5050505050905090565b600061034c61034561066a565b848461066e565b50600192915050565b60025490565b6000610368848484610722565b6001600160a01b03841660009081526001602052604081208161038961066a565b6001600160a01b03166001600160a01b03168152602001908152602001600020549050828110156103d55760405162461bcd60e51b81526004016103cc90610e70565b60405180910390fd5b6103f0856103e161066a565b6103eb8685611104565b61066e565b506001949350505050565b601290565b600061034c61040d61066a565b84846001600061041b61066a565b6001600160a01b03908116825260208083019390935260409182016000908120918b16815292529020546103eb91906110ec565b61046061045a61066a565b8261084a565b50565b6005546001600160a01b0316331461047a57600080fd5b6104848282610930565b5050565b6001600160a01b0381166000908152602081905260409020545b919050565b60006104b5836102a161066a565b9050818110156104d75760405162461bcd60e51b81526004016103cc90610ecd565b6104ed836104e361066a565b6103eb8585611104565b6104f7838361084a565b505050565b6005546001600160a01b0316331461051357600080fd5b610484828261084a565b6005546001600160a01b03161561053357600080fd5b600580547fffffffffffffffffffffffff0000000000000000000000000000000000000000166001600160a01b0385161790556104f782826109f0565b6060600480546102b59061111b565b6005546001600160a01b0316331461059657600080fd5b6104f7838383610722565b600080600160006105b061066a565b6001600160a01b03908116825260208083019390935260409182016000908120918816815292529020549050828110156105fc5760405162461bcd60e51b81526004016103cc90611041565b61061261060761066a565b856103eb8685611104565b5060019392505050565b600061034c61062961066a565b8484610722565b6005546001600160a01b031681565b6001600160a01b03918216600090815260016020908152604080832093909416825291909152205490565b3390565b6001600160a01b0383166106945760405162461bcd60e51b81526004016103cc90610fe4565b6001600160a01b0382166106ba5760405162461bcd60e51b81526004016103cc90610db6565b6001600160a01b0380841660008181526001602090815260408083209487168084529490915290819020849055517f8c5be1e5ebec7d5bd14f71427d1e84f3dd0314c0f7b2291e5b200ac8c7c3b925906107159085906110d5565b60405180910390a3505050565b6001600160a01b0383166107485760405162461bcd60e51b81526004016103cc90610f87565b6001600160a01b03821661076e5760405162461bcd60e51b81526004016103cc90610cfc565b6107798383836104f7565b6001600160a01b038316600090815260208190526040902054818110156107b25760405162461bcd60e51b81526004016103cc90610e13565b6107bc8282611104565b6001600160a01b0380861660009081526020819052604080822093909355908516815290812080548492906107f29084906110ec565b92505081905550826001600160a01b0316846001600160a01b03167fddf252ad1be2c89b69c2b068fc378daa952ba7f163c4a11628f55a4df523b3ef8460405161083c91906110d5565b60405180910390a350505050565b6001600160a01b0382166108705760405162461bcd60e51b81526004016103cc90610f2a565b61087c826000836104f7565b6001600160a01b038216600090815260208190526040902054818110156108b55760405162461bcd60e51b81526004016103cc90610d59565b6108bf8282611104565b6001600160a01b038416600090815260208190526040812091909155600280548492906108ed908490611104565b90915550506040516000906001600160a01b038516907fddf252ad1be2c89b69c2b068fc378daa952ba7f163c4a11628f55a4df523b3ef906107159086906110d5565b6001600160a01b0382166109565760405162461bcd60e51b81526004016103cc9061109e565b610962600083836104f7565b806002600082825461097491906110ec565b90915550506001600160a01b038216600090815260208190526040812080548392906109a19084906110ec565b90915550506040516001600160a01b038316906000907fddf252ad1be2c89b69c2b068fc378daa952ba7f163c4a11628f55a4df523b3ef906109e49085906110d5565b60405180910390a35050565b8151610a03906003906020850190610a13565b5080516104f79060049060208401905b828054610a1f9061111b565b90600052602060002090601f016020900481019282610a415760008555610a87565b82601f10610a5a57805160ff1916838001178555610a87565b82800160010185558215610a87579182015b82811115610a87578251825591602001919060010190610a6c565b50610a93929150610a97565b5090565b5b80821115610a935760008155600101610a98565b80356001600160a01b03811681146104a257600080fd5b600082601f830112610ad3578081fd5b813567ffffffffffffffff80821115610aee57610aee61116c565b604051601f8301601f19908116603f01168101908282118183101715610b1657610b1661116c565b81604052838152866020858801011115610b2e578485fd5b8360208701602083013792830160200193909352509392505050565b600060208284031215610b5b578081fd5b610b6482610aac565b9392505050565b60008060408385031215610b7d578081fd5b610b8683610aac565b9150610b9460208401610aac565b90509250929050565b600080600060608486031215610bb1578081fd5b610bba84610aac565b9250610bc860208501610aac565b9150604084013590509250925092565b600080600060608486031215610bec578283fd5b610bf584610aac565b9250602084013567ffffffffffffffff80821115610c11578384fd5b610c1d87838801610ac3565b93506040860135915080821115610c32578283fd5b50610c3f86828701610ac3565b9150509250925092565b60008060408385031215610c5b578182fd5b610c6483610aac565b946020939093013593505050565b600060208284031215610c83578081fd5b5035919050565b6001600160a01b0391909116815260200190565b901515815260200190565b6000602080835283518082850152825b81811015610cd557858101830151858201604001528201610cb9565b81811115610ce65783604083870101525b50601f01601f1916929092016040019392505050565b60208082526023908201527f45524332303a207472616e7366657220746f20746865207a65726f206164647260408201527f6573730000000000000000000000000000000000000000000000000000000000606082015260800190565b60208082526022908201527f45524332303a206275726e20616d6f756e7420657863656564732062616c616e60408201527f6365000000000000000000000000000000000000000000000000000000000000606082015260800190565b60208082526022908201527f45524332303a20617070726f766520746f20746865207a65726f20616464726560408201527f7373000000000000000000000000000000000000000000000000000000000000606082015260800190565b60208082526026908201527f45524332303a207472616e7366657220616d6f756e742065786365656473206260408201527f616c616e63650000000000000000000000000000000000000000000000000000606082015260800190565b60208082526028908201527f45524332303a207472616e7366657220616d6f756e742065786365656473206160408201527f6c6c6f77616e6365000000000000000000000000000000000000000000000000606082015260800190565b60208082526024908201527f45524332303a206275726e20616d6f756e74206578636565647320616c6c6f7760408201527f616e636500000000000000000000000000000000000000000000000000000000606082015260800190565b60208082526021908201527f45524332303a206275726e2066726f6d20746865207a65726f2061646472657360408201527f7300000000000000000000000000000000000000000000000000000000000000606082015260800190565b60208082526025908201527f45524332303a207472616e736665722066726f6d20746865207a65726f20616460408201527f6472657373000000000000000000000000000000000000000000000000000000606082015260800190565b60208082526024908201527f45524332303a20617070726f76652066726f6d20746865207a65726f2061646460408201527f7265737300000000000000000000000000000000000000000000000000000000606082015260800190565b60208082526025908201527f45524332303a2064656372656173656420616c6c6f77616e63652062656c6f7760408201527f207a65726f000000000000000000000000000000000000000000000000000000606082015260800190565b6020808252601f908201527f45524332303a206d696e7420746f20746865207a65726f206164647265737300604082015260600190565b90815260200190565b60ff91909116815260200190565b600082198211156110ff576110ff611156565b500190565b60008282101561111657611116611156565b500390565b60028104600182168061112f57607f821691505b6020821081141561115057634e487b7160e01b600052602260045260246000fd5b50919050565b634e487b7160e01b600052601160045260246000fd5b634e487b7160e01b600052604160045260246000fdfea2646970667358221220ec3c61db7ff02ae5b4729bfb9bffea470efe375579f06dae61310530e2b416dd64736f6c63430008010033",
  "linkReferences": {},
  "deployedLinkReferences": {}
}